{
  "contractName": "IssuanceWhiteList",
  "abi": [
    {
      "constant": true,
      "inputs": [],
      "name": "owner",
      "outputs": [
        {
          "name": "",
          "type": "address"
        }
      ],
      "payable": false,
      "stateMutability": "view",
      "type": "function"
    },
    {
      "constant": true,
      "inputs": [],
      "name": "whitelistType",
      "outputs": [
        {
          "name": "",
          "type": "string"
        }
      ],
      "payable": false,
      "stateMutability": "view",
      "type": "function"
    },
    {
      "constant": false,
      "inputs": [
        {
          "name": "newOwner",
          "type": "address"
        }
      ],
      "name": "transferOwnership",
      "outputs": [],
      "payable": false,
      "stateMutability": "nonpayable",
      "type": "function"
    },
    {
      "anonymous": false,
      "inputs": [
        {
          "indexed": true,
          "name": "previousOwner",
          "type": "address"
        },
        {
          "indexed": true,
          "name": "newOwner",
          "type": "address"
        }
      ],
      "name": "OwnershipTransferred",
      "type": "event"
    },
    {
      "anonymous": false,
      "inputs": [
        {
          "indexed": false,
          "name": "newAgent",
          "type": "address"
        }
      ],
      "name": "NewAgentAssigned",
      "type": "event"
    },
    {
      "anonymous": false,
      "inputs": [
        {
          "indexed": false,
          "name": "qualifier",
          "type": "address"
        }
      ],
      "name": "QualifierAdded",
      "type": "event"
    },
    {
      "anonymous": false,
      "inputs": [
        {
          "indexed": false,
          "name": "qualifier",
          "type": "address"
        }
      ],
      "name": "QualifierRemoved",
      "type": "event"
    },
    {
      "anonymous": false,
      "inputs": [
        {
          "indexed": false,
          "name": "_whitelistType",
          "type": "string"
        }
      ],
      "name": "WhitelistTypeSet",
      "type": "event"
    },
    {
      "anonymous": false,
      "inputs": [
        {
          "indexed": false,
          "name": "member",
          "type": "address"
        }
      ],
      "name": "MemberAdded",
      "type": "event"
    },
    {
      "anonymous": false,
      "inputs": [
        {
          "indexed": false,
          "name": "member",
          "type": "address"
        }
      ],
      "name": "MemberRemoved",
      "type": "event"
    },
    {
      "constant": false,
      "inputs": [
        {
          "name": "_agent",
          "type": "address"
        }
      ],
      "name": "setAgent",
      "outputs": [],
      "payable": false,
      "stateMutability": "nonpayable",
      "type": "function"
    },
    {
      "constant": false,
      "inputs": [
        {
          "name": "_whitelistType",
          "type": "string"
        }
      ],
      "name": "setWhitelistType",
      "outputs": [],
      "payable": false,
      "stateMutability": "nonpayable",
      "type": "function"
    },
    {
      "constant": false,
      "inputs": [
        {
          "name": "_qualifier",
          "type": "address"
        }
      ],
      "name": "addQualifier",
      "outputs": [],
      "payable": false,
      "stateMutability": "nonpayable",
      "type": "function"
    },
    {
      "constant": false,
      "inputs": [
        {
          "name": "_qualifier",
          "type": "address"
        }
      ],
      "name": "removeQualifier",
      "outputs": [],
      "payable": false,
      "stateMutability": "nonpayable",
      "type": "function"
    },
    {
      "constant": false,
      "inputs": [
        {
          "name": "_buyer",
          "type": "address"
        }
      ],
      "name": "add",
      "outputs": [
        {
          "name": "",
          "type": "bool"
        }
      ],
      "payable": false,
      "stateMutability": "nonpayable",
      "type": "function"
    },
    {
      "constant": false,
      "inputs": [
        {
          "name": "_buyers",
          "type": "address[]"
        }
      ],
      "name": "addBuyers",
      "outputs": [
        {
          "name": "",
          "type": "bool"
        }
      ],
      "payable": false,
      "stateMutability": "nonpayable",
      "type": "function"
    },
    {
      "constant": false,
      "inputs": [
        {
          "name": "_buyer",
          "type": "address"
        }
      ],
      "name": "remove",
      "outputs": [
        {
          "name": "",
          "type": "bool"
        }
      ],
      "payable": false,
      "stateMutability": "nonpayable",
      "type": "function"
    },
    {
      "constant": true,
      "inputs": [
        {
          "name": "_buyer",
          "type": "address"
        }
      ],
      "name": "verify",
      "outputs": [
        {
          "name": "",
          "type": "bool"
        }
      ],
      "payable": false,
      "stateMutability": "view",
      "type": "function"
    },
    {
      "constant": true,
      "inputs": [],
      "name": "getBuyers",
      "outputs": [
        {
          "name": "",
          "type": "address[]"
        }
      ],
      "payable": false,
      "stateMutability": "view",
      "type": "function"
    },
    {
      "constant": true,
      "inputs": [],
      "name": "getQualifiers",
      "outputs": [
        {
          "name": "",
          "type": "address[]"
        }
      ],
      "payable": false,
      "stateMutability": "view",
      "type": "function"
    }
  ],
  "bytecode": "0x6080604052336000806101000a81548173ffffffffffffffffffffffffffffffffffffffff021916908373ffffffffffffffffffffffffffffffffffffffff160217905550611af7806100536000396000f3006080604052600436106100c5576000357c0100000000000000000000000000000000000000000000000000000000900463ffffffff1680630a3b0a4f146100ca57806329092d0e1461012557806332b1c48f1461018057806333a71094146101c3578063425c4e6f1461020657806363a9c3d71461028457806386485797146102df5780638da5cb5b1461034b578063a4d0d5a9146103a2578063bcf685ed14610432578063dfc23a0a14610475578063f2fde38b146104de578063f64bfaba14610521575b600080fd5b3480156100d657600080fd5b5061010b600480360381019080803573ffffffffffffffffffffffffffffffffffffffff16906020019092919050505061058d565b604051808215151515815260200191505060405180910390f35b34801561013157600080fd5b50610166600480360381019080803573ffffffffffffffffffffffffffffffffffffffff16906020019092919050505061085e565b604051808215151515815260200191505060405180910390f35b34801561018c57600080fd5b506101c1600480360381019080803573ffffffffffffffffffffffffffffffffffffffff169060200190929190505050610afa565b005b3480156101cf57600080fd5b50610204600480360381019080803573ffffffffffffffffffffffffffffffffffffffff169060200190929190505050610cec565b005b34801561021257600080fd5b5061026a60048036038101908080359060200190820180359060200190808060200260200160405190810160405280939291908181526020018383602002808284378201915050505050509192919290505050610f12565b604051808215151515815260200191505060405180910390f35b34801561029057600080fd5b506102c5600480360381019080803573ffffffffffffffffffffffffffffffffffffffff169060200190929190505050611274565b604051808215151515815260200191505060405180910390f35b3480156102eb57600080fd5b506102f46112d1565b6040518080602001828103825283818151815260200191508051906020019060200280838360005b8381101561033757808201518184015260208101905061031c565b505050509050019250505060405180910390f35b34801561035757600080fd5b50610360611466565b604051808273ffffffffffffffffffffffffffffffffffffffff1673ffffffffffffffffffffffffffffffffffffffff16815260200191505060405180910390f35b3480156103ae57600080fd5b506103b761148b565b6040518080602001828103825283818151815260200191508051906020019080838360005b838110156103f75780820151818401526020810190506103dc565b50505050905090810190601f1680156104245780820380516001836020036101000a031916815260200191505b509250505060405180910390f35b34801561043e57600080fd5b50610473600480360381019080803573ffffffffffffffffffffffffffffffffffffffff169060200190929190505050611529565b005b34801561048157600080fd5b506104dc600480360381019080803590602001908201803590602001908080601f016020809104026020016040519081016040528093929190818152602001838380828437820191505050505050919291929050505061162b565b005b3480156104ea57600080fd5b5061051f600480360381019080803573ffffffffffffffffffffffffffffffffffffffff16906020019092919050505061173c565b005b34801561052d57600080fd5b50610536611891565b6040518080602001828103825283818151815260200191508051906020019060200280838360005b8381101561057957808201518184015260208101905061055e565b505050509050019250505060405180910390f35b6000806000809054906101000a900473ffffffffffffffffffffffffffffffffffffffff1673ffffffffffffffffffffffffffffffffffffffff163373ffffffffffffffffffffffffffffffffffffffff1614806106385750600160009054906101000a900473ffffffffffffffffffffffffffffffffffffffff1673ffffffffffffffffffffffffffffffffffffffff163373ffffffffffffffffffffffffffffffffffffffff16145b8061068c5750600360003373ffffffffffffffffffffffffffffffffffffffff1673ffffffffffffffffffffffffffffffffffffffff16815260200190815260200160002060009054906101000a900460ff165b151561069757600080fd5b600260008473ffffffffffffffffffffffffffffffffffffffff1673ffffffffffffffffffffffffffffffffffffffff16815260200190815260200160002060009054906101000a900460ff16151561079d57600480549050905080600760008573ffffffffffffffffffffffffffffffffffffffff1673ffffffffffffffffffffffffffffffffffffffff1681526020019081526020016000208190555060048390806001815401808255809150509060018203906000526020600020016000909192909190916101000a81548173ffffffffffffffffffffffffffffffffffffffff021916908373ffffffffffffffffffffffffffffffffffffffff160217905550505b6001600260008573ffffffffffffffffffffffffffffffffffffffff1673ffffffffffffffffffffffffffffffffffffffff16815260200190815260200160002060006101000a81548160ff0219169083151502179055507fb251eb052afc73ffd02ffe85ad79990a8b3fed60d76dbc2fa2fdd7123dffd91483604051808273ffffffffffffffffffffffffffffffffffffffff1673ffffffffffffffffffffffffffffffffffffffff16815260200191505060405180910390a150919050565b6000806000809054906101000a900473ffffffffffffffffffffffffffffffffffffffff1673ffffffffffffffffffffffffffffffffffffffff163373ffffffffffffffffffffffffffffffffffffffff1614806109095750600160009054906101000a900473ffffffffffffffffffffffffffffffffffffffff1673ffffffffffffffffffffffffffffffffffffffff163373ffffffffffffffffffffffffffffffffffffffff16145b8061095d5750600360003373ffffffffffffffffffffffffffffffffffffffff1673ffffffffffffffffffffffffffffffffffffffff16815260200190815260200160002060009054906101000a900460ff165b151561096857600080fd5b600260008473ffffffffffffffffffffffffffffffffffffffff1673ffffffffffffffffffffffffffffffffffffffff16815260200190815260200160002060009054906101000a900460ff1615610a3957600760008473ffffffffffffffffffffffffffffffffffffffff1673ffffffffffffffffffffffffffffffffffffffff168152602001908152602001600020549050600481815481101515610a0b57fe5b9060005260206000200160006101000a81549073ffffffffffffffffffffffffffffffffffffffff02191690555b6000600260008573ffffffffffffffffffffffffffffffffffffffff1673ffffffffffffffffffffffffffffffffffffffff16815260200190815260200160002060006101000a81548160ff0219169083151502179055507f6e76fb4c77256006d9c38ec7d82b45a8c8f3c27b1d6766fffc42dfb8de68449283604051808273ffffffffffffffffffffffffffffffffffffffff1673ffffffffffffffffffffffffffffffffffffffff16815260200191505060405180910390a150919050565b60008060009054906101000a900473ffffffffffffffffffffffffffffffffffffffff1673ffffffffffffffffffffffffffffffffffffffff163373ffffffffffffffffffffffffffffffffffffffff161480610ba45750600160009054906101000a900473ffffffffffffffffffffffffffffffffffffffff1673ffffffffffffffffffffffffffffffffffffffff163373ffffffffffffffffffffffffffffffffffffffff16145b1515610baf57600080fd5b6000600360008473ffffffffffffffffffffffffffffffffffffffff1673ffffffffffffffffffffffffffffffffffffffff16815260200190815260200160002060006101000a81548160ff021916908315150217905550600660008373ffffffffffffffffffffffffffffffffffffffff1673ffffffffffffffffffffffffffffffffffffffff168152602001908152602001600020549050600581815481101515610c5857fe5b9060005260206000200160006101000a81549073ffffffffffffffffffffffffffffffffffffffff02191690557fd1740ddb28df431ba87af2f9209f73f5831e314c2eecc02a3af0d40f2631c6d782604051808273ffffffffffffffffffffffffffffffffffffffff1673ffffffffffffffffffffffffffffffffffffffff16815260200191505060405180910390a15050565b60008060009054906101000a900473ffffffffffffffffffffffffffffffffffffffff1673ffffffffffffffffffffffffffffffffffffffff163373ffffffffffffffffffffffffffffffffffffffff161480610d965750600160009054906101000a900473ffffffffffffffffffffffffffffffffffffffff1673ffffffffffffffffffffffffffffffffffffffff163373ffffffffffffffffffffffffffffffffffffffff16145b1515610da157600080fd5b6001600360008473ffffffffffffffffffffffffffffffffffffffff1673ffffffffffffffffffffffffffffffffffffffff16815260200190815260200160002060006101000a81548160ff021916908315150217905550600580549050905080600660008473ffffffffffffffffffffffffffffffffffffffff1673ffffffffffffffffffffffffffffffffffffffff1681526020019081526020016000208190555060058290806001815401808255809150509060018203906000526020600020016000909192909190916101000a81548173ffffffffffffffffffffffffffffffffffffffff021916908373ffffffffffffffffffffffffffffffffffffffff160217905550507f8b36f5f3daba47b07e1cd0f071e18ca9e5dbe4e2bfa609f037a5a603bde871f582604051808273ffffffffffffffffffffffffffffffffffffffff1673ffffffffffffffffffffffffffffffffffffffff16815260200191505060405180910390a15050565b60008060008060009054906101000a900473ffffffffffffffffffffffffffffffffffffffff1673ffffffffffffffffffffffffffffffffffffffff163373ffffffffffffffffffffffffffffffffffffffff161480610fbf5750600160009054906101000a900473ffffffffffffffffffffffffffffffffffffffff1673ffffffffffffffffffffffffffffffffffffffff163373ffffffffffffffffffffffffffffffffffffffff16145b806110135750600360003373ffffffffffffffffffffffffffffffffffffffff1673ffffffffffffffffffffffffffffffffffffffff16815260200190815260200160002060009054906101000a900460ff165b151561101e57600080fd5b600091505b835182101561126d5760026000858481518110151561103e57fe5b9060200190602002015173ffffffffffffffffffffffffffffffffffffffff1673ffffffffffffffffffffffffffffffffffffffff16815260200190815260200160002060009054906101000a900460ff161515611177576004805490509050806007600086858151811015156110b157fe5b9060200190602002015173ffffffffffffffffffffffffffffffffffffffff1673ffffffffffffffffffffffffffffffffffffffff168152602001908152602001600020819055506004848381518110151561110957fe5b9060200190602002015190806001815401808255809150509060018203906000526020600020016000909192909190916101000a81548173ffffffffffffffffffffffffffffffffffffffff021916908373ffffffffffffffffffffffffffffffffffffffff160217905550505b600160026000868581518110151561118b57fe5b9060200190602002015173ffffffffffffffffffffffffffffffffffffffff1673ffffffffffffffffffffffffffffffffffffffff16815260200190815260200160002060006101000a81548160ff0219169083151502179055507fb251eb052afc73ffd02ffe85ad79990a8b3fed60d76dbc2fa2fdd7123dffd914848381518110151561121557fe5b90602001906020020151604051808273ffffffffffffffffffffffffffffffffffffffff1673ffffffffffffffffffffffffffffffffffffffff16815260200191505060405180910390a18180600101925050611023565b5050919050565b600060011515600260008473ffffffffffffffffffffffffffffffffffffffff1673ffffffffffffffffffffffffffffffffffffffff16815260200190815260200160002060009054906101000a900460ff161515149050919050565b60606000809054906101000a900473ffffffffffffffffffffffffffffffffffffffff1673ffffffffffffffffffffffffffffffffffffffff163373ffffffffffffffffffffffffffffffffffffffff16148061137b5750600160009054906101000a900473ffffffffffffffffffffffffffffffffffffffff1673ffffffffffffffffffffffffffffffffffffffff163373ffffffffffffffffffffffffffffffffffffffff16145b806113cf5750600360003373ffffffffffffffffffffffffffffffffffffffff1673ffffffffffffffffffffffffffffffffffffffff16815260200190815260200160002060009054906101000a900460ff165b15156113da57600080fd5b600580548060200260200160405190810160405280929190818152602001828054801561145c57602002820191906000526020600020905b8160009054906101000a900473ffffffffffffffffffffffffffffffffffffffff1673ffffffffffffffffffffffffffffffffffffffff1681526020019060010190808311611412575b5050505050905090565b6000809054906101000a900473ffffffffffffffffffffffffffffffffffffffff1681565b60088054600181600116156101000203166002900480601f0160208091040260200160405190810160405280929190818152602001828054600181600116156101000203166002900480156115215780601f106114f657610100808354040283529160200191611521565b820191906000526020600020905b81548152906001019060200180831161150457829003601f168201915b505050505081565b6000809054906101000a900473ffffffffffffffffffffffffffffffffffffffff1673ffffffffffffffffffffffffffffffffffffffff163373ffffffffffffffffffffffffffffffffffffffff1614151561158457600080fd5b80600160006101000a81548173ffffffffffffffffffffffffffffffffffffffff021916908373ffffffffffffffffffffffffffffffffffffffff1602179055507f61a3bd1558245678bc7f935690f02a8b81f0f13ac925fbb0282af1e45fd6470b81604051808273ffffffffffffffffffffffffffffffffffffffff1673ffffffffffffffffffffffffffffffffffffffff16815260200191505060405180910390a150565b6000809054906101000a900473ffffffffffffffffffffffffffffffffffffffff1673ffffffffffffffffffffffffffffffffffffffff163373ffffffffffffffffffffffffffffffffffffffff1614151561168657600080fd5b806008908051906020019061169c929190611a26565b507f72535d8e317ac75a503334a037fffe100ce7af88d8b59bd07d7bb85353939dce816040518080602001828103825283818151815260200191508051906020019080838360005b838110156116ff5780820151818401526020810190506116e4565b50505050905090810190601f16801561172c5780820380516001836020036101000a031916815260200191505b509250505060405180910390a150565b6000809054906101000a900473ffffffffffffffffffffffffffffffffffffffff1673ffffffffffffffffffffffffffffffffffffffff163373ffffffffffffffffffffffffffffffffffffffff1614151561179757600080fd5b600073ffffffffffffffffffffffffffffffffffffffff168173ffffffffffffffffffffffffffffffffffffffff16141515156117d357600080fd5b8073ffffffffffffffffffffffffffffffffffffffff166000809054906101000a900473ffffffffffffffffffffffffffffffffffffffff1673ffffffffffffffffffffffffffffffffffffffff167f8be0079c531659141344cd1fd0a4f28419497f9722a3daafe3b4186f6b6457e060405160405180910390a3806000806101000a81548173ffffffffffffffffffffffffffffffffffffffff021916908373ffffffffffffffffffffffffffffffffffffffff16021790555050565b60606000809054906101000a900473ffffffffffffffffffffffffffffffffffffffff1673ffffffffffffffffffffffffffffffffffffffff163373ffffffffffffffffffffffffffffffffffffffff16148061193b5750600160009054906101000a900473ffffffffffffffffffffffffffffffffffffffff1673ffffffffffffffffffffffffffffffffffffffff163373ffffffffffffffffffffffffffffffffffffffff16145b8061198f5750600360003373ffffffffffffffffffffffffffffffffffffffff1673ffffffffffffffffffffffffffffffffffffffff16815260200190815260200160002060009054906101000a900460ff165b151561199a57600080fd5b6004805480602002602001604051908101604052809291908181526020018280548015611a1c57602002820191906000526020600020905b8160009054906101000a900473ffffffffffffffffffffffffffffffffffffffff1673ffffffffffffffffffffffffffffffffffffffff16815260200190600101908083116119d2575b5050505050905090565b828054600181600116156101000203166002900490600052602060002090601f016020900481019282601f10611a6757805160ff1916838001178555611a95565b82800160010185558215611a95579182015b82811115611a94578251825591602001919060010190611a79565b5b509050611aa29190611aa6565b5090565b611ac891905b80821115611ac4576000816000905550600101611aac565b5090565b905600a165627a7a723058208859525b5c82f99addda1c4170b9e8d38bb2a347c9f4a3e2cf7f87f6687189450029",
  "source": "pragma solidity ^0.4.18;\n\nimport \"./interfaces/IIssuanceWhiteList.sol\";\nimport \"./zeppelin-solidity/contracts/ownership/Ownable.sol\";\n\n/**\n * @title IssuanceWhiteList\n * @dev WhiteList for an AboveBoard issued token. Owner is the issuer.\n */\ncontract IssuanceWhiteList is IIssuanceWhiteList, Ownable {\n\n  address agent;\n  mapping(address => bool) members;\n  mapping(address => bool) qualifiers;\n  address[] membersAddress;\n  address[] qualifiersAddress;\n  mapping(address => uint256) qualifiersIndex;\n  mapping(address => uint256) membersIndex;\n\n  string public whitelistType;\n\n  modifier onlyAgentOrOwner() {\n    require(msg.sender == owner || msg.sender == agent);\n    _;\n  }\n\n  modifier onlyAgentOrOwnerOrQualifier() {\n    require(msg.sender == owner || msg.sender == agent || qualifiers[msg.sender]);\n    _;\n  }\n\n  function setAgent(address _agent) onlyOwner public {\n\n    agent = _agent;\n    NewAgentAssigned(_agent);\n    \n  }\n\n  function setWhitelistType(string _whitelistType) onlyOwner public {\n    whitelistType = _whitelistType;\n    WhitelistTypeSet(_whitelistType);\n  }\n\n  function addQualifier(address _qualifier) onlyAgentOrOwner public {\n    qualifiers[_qualifier] = true;\n    uint256 id = qualifiersAddress.length;\n    qualifiersIndex[_qualifier] = id;\n    qualifiersAddress.push(_qualifier);\n    QualifierAdded(_qualifier);\n  }\n\n  function removeQualifier(address _qualifier) onlyAgentOrOwner public {\n    qualifiers[_qualifier] = false;\n    uint256 id = qualifiersIndex[_qualifier];\n    delete qualifiersAddress[id];\n    QualifierRemoved(_qualifier);\n  }\n\n  function add(address _buyer) onlyAgentOrOwnerOrQualifier public returns (bool) {\n    if (!members[_buyer]) {\n      uint256 id = membersAddress.length;\n      membersIndex[_buyer] = id;\n      membersAddress.push(_buyer);\n    }\n\n    members[_buyer] = true;\n\n    MemberAdded(_buyer);\n  }\n\n  function addBuyers(address[] _buyers) onlyAgentOrOwnerOrQualifier public returns (bool) {\n    for (uint256 i = 0; i < _buyers.length; i++) {\n\n      if (!members[_buyers[i]]) {\n        uint256 id = membersAddress.length;\n        membersIndex[_buyers[i]] = id;\n        membersAddress.push(_buyers[i]);\n      }\n\n      members[_buyers[i]] = true;\n\n      MemberAdded(_buyers[i]);\n    }\n  }\n\n  function remove(address _buyer) onlyAgentOrOwnerOrQualifier public returns (bool) {\n    if (members[_buyer]) {\n      uint256 id = membersIndex[_buyer];\n      delete membersAddress[id];\n    }\n\n    members[_buyer] = false;\n\n    MemberRemoved(_buyer);\n  }\n\n  function verify(address _buyer) view public returns (bool) {\n    return members[_buyer] == true;\n  }\n\n  function getBuyers() onlyAgentOrOwnerOrQualifier view public returns (address[]) {\n    return membersAddress;\n  }\n\n  function getQualifiers() onlyAgentOrOwnerOrQualifier view public returns (address[]) {\n    return qualifiersAddress;\n  }\n}\n",
  "sourcePath": "/home/jordan/workspace/aboveboard/AboveboardSecurityToken/contracts/IssuanceWhiteList.sol",
  "compiler": {
    "name": "solc",
    "version": "0.4.24+commit.e67f0147.Emscripten.clang"
  },
  "schemaVersion": "2.0.1",
  "updatedAt": "2018-07-27T19:00:41.372Z"
}