{
  "contractName": "IssuanceWhiteList",
  "abi": [
    {
      "constant": true,
      "inputs": [],
      "name": "owner",
      "outputs": [
        {
          "name": "",
          "type": "address"
        }
      ],
      "payable": false,
      "stateMutability": "view",
      "type": "function"
    },
    {
      "constant": true,
      "inputs": [],
      "name": "whitelistType",
      "outputs": [
        {
          "name": "",
          "type": "string"
        }
      ],
      "payable": false,
      "stateMutability": "view",
      "type": "function"
    },
    {
      "constant": false,
      "inputs": [
        {
          "name": "newOwner",
          "type": "address"
        }
      ],
      "name": "transferOwnership",
      "outputs": [],
      "payable": false,
      "stateMutability": "nonpayable",
      "type": "function"
    },
    {
      "anonymous": false,
      "inputs": [
        {
          "indexed": true,
          "name": "previousOwner",
          "type": "address"
        },
        {
          "indexed": true,
          "name": "newOwner",
          "type": "address"
        }
      ],
      "name": "OwnershipTransferred",
      "type": "event"
    },
    {
      "anonymous": false,
      "inputs": [
        {
          "indexed": false,
          "name": "newAgent",
          "type": "address"
        }
      ],
      "name": "NewAgentAssigned",
      "type": "event"
    },
    {
      "anonymous": false,
      "inputs": [
        {
          "indexed": false,
          "name": "qualifier",
          "type": "address"
        }
      ],
      "name": "QualifierAdded",
      "type": "event"
    },
    {
      "anonymous": false,
      "inputs": [
        {
          "indexed": false,
          "name": "qualifier",
          "type": "address"
        }
      ],
      "name": "QualifierRemoved",
      "type": "event"
    },
    {
      "anonymous": false,
      "inputs": [
        {
          "indexed": false,
          "name": "_whitelistType",
          "type": "string"
        }
      ],
      "name": "WhitelistTypeSet",
      "type": "event"
    },
    {
      "anonymous": false,
      "inputs": [
        {
          "indexed": false,
          "name": "member",
          "type": "address"
        }
      ],
      "name": "MemberAdded",
      "type": "event"
    },
    {
      "anonymous": false,
      "inputs": [
        {
          "indexed": false,
          "name": "member",
          "type": "address"
        }
      ],
      "name": "MemberRemoved",
      "type": "event"
    },
    {
      "constant": false,
      "inputs": [
        {
          "name": "_agent",
          "type": "address"
        }
      ],
      "name": "setAgent",
      "outputs": [],
      "payable": false,
      "stateMutability": "nonpayable",
      "type": "function"
    },
    {
      "constant": false,
      "inputs": [
        {
          "name": "_whitelistType",
          "type": "string"
        }
      ],
      "name": "setWhitelistType",
      "outputs": [],
      "payable": false,
      "stateMutability": "nonpayable",
      "type": "function"
    },
    {
      "constant": false,
      "inputs": [
        {
          "name": "_qualifier",
          "type": "address"
        }
      ],
      "name": "addQualifier",
      "outputs": [],
      "payable": false,
      "stateMutability": "nonpayable",
      "type": "function"
    },
    {
      "constant": false,
      "inputs": [
        {
          "name": "_qualifier",
          "type": "address"
        }
      ],
      "name": "removeQualifier",
      "outputs": [],
      "payable": false,
      "stateMutability": "nonpayable",
      "type": "function"
    },
    {
      "constant": false,
      "inputs": [
        {
          "name": "_buyer",
          "type": "address"
        }
      ],
      "name": "add",
      "outputs": [
        {
          "name": "",
          "type": "bool"
        }
      ],
      "payable": false,
      "stateMutability": "nonpayable",
      "type": "function"
    },
    {
      "constant": false,
      "inputs": [
        {
          "name": "_buyers",
          "type": "address[]"
        }
      ],
      "name": "addBuyers",
      "outputs": [
        {
          "name": "",
          "type": "bool"
        }
      ],
      "payable": false,
      "stateMutability": "nonpayable",
      "type": "function"
    },
    {
      "constant": false,
      "inputs": [
        {
          "name": "_buyer",
          "type": "address"
        }
      ],
      "name": "remove",
      "outputs": [
        {
          "name": "",
          "type": "bool"
        }
      ],
      "payable": false,
      "stateMutability": "nonpayable",
      "type": "function"
    },
    {
      "constant": true,
      "inputs": [
        {
          "name": "_buyer",
          "type": "address"
        }
      ],
      "name": "verify",
      "outputs": [
        {
          "name": "",
          "type": "bool"
        }
      ],
      "payable": false,
      "stateMutability": "view",
      "type": "function"
    },
    {
      "constant": true,
      "inputs": [],
      "name": "getBuyers",
      "outputs": [
        {
          "name": "",
          "type": "address[]"
        }
      ],
      "payable": false,
      "stateMutability": "view",
      "type": "function"
    },
    {
      "constant": true,
      "inputs": [],
      "name": "getQualifiers",
      "outputs": [
        {
          "name": "",
          "type": "address[]"
        }
      ],
      "payable": false,
      "stateMutability": "view",
      "type": "function"
    },
    {
      "constant": true,
      "inputs": [],
      "name": "getAgentsOwnerAndQualifiers",
      "outputs": [
        {
          "name": "",
          "type": "address[]"
        }
      ],
      "payable": false,
      "stateMutability": "view",
      "type": "function"
    }
  ],
  "bytecode": "0x6080604052336000806101000a81548173ffffffffffffffffffffffffffffffffffffffff021916908373ffffffffffffffffffffffffffffffffffffffff160217905550611e3d806100536000396000f3006080604052600436106100d0576000357c0100000000000000000000000000000000000000000000000000000000900463ffffffff1680630a3b0a4f146100d557806329092d0e1461013057806332b1c48f1461018b57806333a71094146101ce578063425c4e6f1461021157806363a9c3d71461028f57806386485797146102ea5780638da5cb5b14610356578063a4d0d5a9146103ad578063bcf685ed1461043d578063dfc23a0a14610480578063f2fde38b146104e9578063f64bfaba1461052c578063f67f8c7a14610598575b600080fd5b3480156100e157600080fd5b50610116600480360381019080803573ffffffffffffffffffffffffffffffffffffffff169060200190929190505050610604565b604051808215151515815260200191505060405180910390f35b34801561013c57600080fd5b50610171600480360381019080803573ffffffffffffffffffffffffffffffffffffffff1690602001909291905050506108d5565b604051808215151515815260200191505060405180910390f35b34801561019757600080fd5b506101cc600480360381019080803573ffffffffffffffffffffffffffffffffffffffff169060200190929190505050610b71565b005b3480156101da57600080fd5b5061020f600480360381019080803573ffffffffffffffffffffffffffffffffffffffff169060200190929190505050610d63565b005b34801561021d57600080fd5b5061027560048036038101908080359060200190820180359060200190808060200260200160405190810160405280939291908181526020018383602002808284378201915050505050509192919290505050610f89565b604051808215151515815260200191505060405180910390f35b34801561029b57600080fd5b506102d0600480360381019080803573ffffffffffffffffffffffffffffffffffffffff1690602001909291905050506112eb565b604051808215151515815260200191505060405180910390f35b3480156102f657600080fd5b506102ff611348565b6040518080602001828103825283818151815260200191508051906020019060200280838360005b83811015610342578082015181840152602081019050610327565b505050509050019250505060405180910390f35b34801561036257600080fd5b5061036b6114dd565b604051808273ffffffffffffffffffffffffffffffffffffffff1673ffffffffffffffffffffffffffffffffffffffff16815260200191505060405180910390f35b3480156103b957600080fd5b506103c2611502565b6040518080602001828103825283818151815260200191508051906020019080838360005b838110156104025780820151818401526020810190506103e7565b50505050905090810190601f16801561042f5780820380516001836020036101000a031916815260200191505b509250505060405180910390f35b34801561044957600080fd5b5061047e600480360381019080803573ffffffffffffffffffffffffffffffffffffffff1690602001909291905050506115a0565b005b34801561048c57600080fd5b506104e7600480360381019080803590602001908201803590602001908080601f01602080910402602001604051908101604052809392919081815260200183838082843782019150505050505091929192905050506116a2565b005b3480156104f557600080fd5b5061052a600480360381019080803573ffffffffffffffffffffffffffffffffffffffff1690602001909291905050506117b3565b005b34801561053857600080fd5b50610541611908565b6040518080602001828103825283818151815260200191508051906020019060200280838360005b83811015610584578082015181840152602081019050610569565b505050509050019250505060405180910390f35b3480156105a457600080fd5b506105ad611a9d565b6040518080602001828103825283818151815260200191508051906020019060200280838360005b838110156105f05780820151818401526020810190506105d5565b505050509050019250505060405180910390f35b6000806000809054906101000a900473ffffffffffffffffffffffffffffffffffffffff1673ffffffffffffffffffffffffffffffffffffffff163373ffffffffffffffffffffffffffffffffffffffff1614806106af5750600160009054906101000a900473ffffffffffffffffffffffffffffffffffffffff1673ffffffffffffffffffffffffffffffffffffffff163373ffffffffffffffffffffffffffffffffffffffff16145b806107035750600560003373ffffffffffffffffffffffffffffffffffffffff1673ffffffffffffffffffffffffffffffffffffffff16815260200190815260200160002060009054906101000a900460ff165b151561070e57600080fd5b600260008473ffffffffffffffffffffffffffffffffffffffff1673ffffffffffffffffffffffffffffffffffffffff16815260200190815260200160002060009054906101000a900460ff16151561081457600380549050905080600460008573ffffffffffffffffffffffffffffffffffffffff1673ffffffffffffffffffffffffffffffffffffffff1681526020019081526020016000208190555060038390806001815401808255809150509060018203906000526020600020016000909192909190916101000a81548173ffffffffffffffffffffffffffffffffffffffff021916908373ffffffffffffffffffffffffffffffffffffffff160217905550505b6001600260008573ffffffffffffffffffffffffffffffffffffffff1673ffffffffffffffffffffffffffffffffffffffff16815260200190815260200160002060006101000a81548160ff0219169083151502179055507fb251eb052afc73ffd02ffe85ad79990a8b3fed60d76dbc2fa2fdd7123dffd91483604051808273ffffffffffffffffffffffffffffffffffffffff1673ffffffffffffffffffffffffffffffffffffffff16815260200191505060405180910390a150919050565b6000806000809054906101000a900473ffffffffffffffffffffffffffffffffffffffff1673ffffffffffffffffffffffffffffffffffffffff163373ffffffffffffffffffffffffffffffffffffffff1614806109805750600160009054906101000a900473ffffffffffffffffffffffffffffffffffffffff1673ffffffffffffffffffffffffffffffffffffffff163373ffffffffffffffffffffffffffffffffffffffff16145b806109d45750600560003373ffffffffffffffffffffffffffffffffffffffff1673ffffffffffffffffffffffffffffffffffffffff16815260200190815260200160002060009054906101000a900460ff165b15156109df57600080fd5b600260008473ffffffffffffffffffffffffffffffffffffffff1673ffffffffffffffffffffffffffffffffffffffff16815260200190815260200160002060009054906101000a900460ff1615610ab057600460008473ffffffffffffffffffffffffffffffffffffffff1673ffffffffffffffffffffffffffffffffffffffff168152602001908152602001600020549050600381815481101515610a8257fe5b9060005260206000200160006101000a81549073ffffffffffffffffffffffffffffffffffffffff02191690555b6000600260008573ffffffffffffffffffffffffffffffffffffffff1673ffffffffffffffffffffffffffffffffffffffff16815260200190815260200160002060006101000a81548160ff0219169083151502179055507f6e76fb4c77256006d9c38ec7d82b45a8c8f3c27b1d6766fffc42dfb8de68449283604051808273ffffffffffffffffffffffffffffffffffffffff1673ffffffffffffffffffffffffffffffffffffffff16815260200191505060405180910390a150919050565b60008060009054906101000a900473ffffffffffffffffffffffffffffffffffffffff1673ffffffffffffffffffffffffffffffffffffffff163373ffffffffffffffffffffffffffffffffffffffff161480610c1b5750600160009054906101000a900473ffffffffffffffffffffffffffffffffffffffff1673ffffffffffffffffffffffffffffffffffffffff163373ffffffffffffffffffffffffffffffffffffffff16145b1515610c2657600080fd5b6000600560008473ffffffffffffffffffffffffffffffffffffffff1673ffffffffffffffffffffffffffffffffffffffff16815260200190815260200160002060006101000a81548160ff021916908315150217905550600760008373ffffffffffffffffffffffffffffffffffffffff1673ffffffffffffffffffffffffffffffffffffffff168152602001908152602001600020549050600681815481101515610ccf57fe5b9060005260206000200160006101000a81549073ffffffffffffffffffffffffffffffffffffffff02191690557fd1740ddb28df431ba87af2f9209f73f5831e314c2eecc02a3af0d40f2631c6d782604051808273ffffffffffffffffffffffffffffffffffffffff1673ffffffffffffffffffffffffffffffffffffffff16815260200191505060405180910390a15050565b60008060009054906101000a900473ffffffffffffffffffffffffffffffffffffffff1673ffffffffffffffffffffffffffffffffffffffff163373ffffffffffffffffffffffffffffffffffffffff161480610e0d5750600160009054906101000a900473ffffffffffffffffffffffffffffffffffffffff1673ffffffffffffffffffffffffffffffffffffffff163373ffffffffffffffffffffffffffffffffffffffff16145b1515610e1857600080fd5b6001600560008473ffffffffffffffffffffffffffffffffffffffff1673ffffffffffffffffffffffffffffffffffffffff16815260200190815260200160002060006101000a81548160ff021916908315150217905550600680549050905080600760008473ffffffffffffffffffffffffffffffffffffffff1673ffffffffffffffffffffffffffffffffffffffff1681526020019081526020016000208190555060068290806001815401808255809150509060018203906000526020600020016000909192909190916101000a81548173ffffffffffffffffffffffffffffffffffffffff021916908373ffffffffffffffffffffffffffffffffffffffff160217905550507f8b36f5f3daba47b07e1cd0f071e18ca9e5dbe4e2bfa609f037a5a603bde871f582604051808273ffffffffffffffffffffffffffffffffffffffff1673ffffffffffffffffffffffffffffffffffffffff16815260200191505060405180910390a15050565b60008060008060009054906101000a900473ffffffffffffffffffffffffffffffffffffffff1673ffffffffffffffffffffffffffffffffffffffff163373ffffffffffffffffffffffffffffffffffffffff1614806110365750600160009054906101000a900473ffffffffffffffffffffffffffffffffffffffff1673ffffffffffffffffffffffffffffffffffffffff163373ffffffffffffffffffffffffffffffffffffffff16145b8061108a5750600560003373ffffffffffffffffffffffffffffffffffffffff1673ffffffffffffffffffffffffffffffffffffffff16815260200190815260200160002060009054906101000a900460ff165b151561109557600080fd5b600091505b83518210156112e4576002600085848151811015156110b557fe5b9060200190602002015173ffffffffffffffffffffffffffffffffffffffff1673ffffffffffffffffffffffffffffffffffffffff16815260200190815260200160002060009054906101000a900460ff1615156111ee5760038054905090508060046000868581518110151561112857fe5b9060200190602002015173ffffffffffffffffffffffffffffffffffffffff1673ffffffffffffffffffffffffffffffffffffffff168152602001908152602001600020819055506003848381518110151561118057fe5b9060200190602002015190806001815401808255809150509060018203906000526020600020016000909192909190916101000a81548173ffffffffffffffffffffffffffffffffffffffff021916908373ffffffffffffffffffffffffffffffffffffffff160217905550505b600160026000868581518110151561120257fe5b9060200190602002015173ffffffffffffffffffffffffffffffffffffffff1673ffffffffffffffffffffffffffffffffffffffff16815260200190815260200160002060006101000a81548160ff0219169083151502179055507fb251eb052afc73ffd02ffe85ad79990a8b3fed60d76dbc2fa2fdd7123dffd914848381518110151561128c57fe5b90602001906020020151604051808273ffffffffffffffffffffffffffffffffffffffff1673ffffffffffffffffffffffffffffffffffffffff16815260200191505060405180910390a1818060010192505061109a565b5050919050565b600060011515600260008473ffffffffffffffffffffffffffffffffffffffff1673ffffffffffffffffffffffffffffffffffffffff16815260200190815260200160002060009054906101000a900460ff161515149050919050565b60606000809054906101000a900473ffffffffffffffffffffffffffffffffffffffff1673ffffffffffffffffffffffffffffffffffffffff163373ffffffffffffffffffffffffffffffffffffffff1614806113f25750600160009054906101000a900473ffffffffffffffffffffffffffffffffffffffff1673ffffffffffffffffffffffffffffffffffffffff163373ffffffffffffffffffffffffffffffffffffffff16145b806114465750600560003373ffffffffffffffffffffffffffffffffffffffff1673ffffffffffffffffffffffffffffffffffffffff16815260200190815260200160002060009054906101000a900460ff165b151561145157600080fd5b60068054806020026020016040519081016040528092919081815260200182805480156114d357602002820191906000526020600020905b8160009054906101000a900473ffffffffffffffffffffffffffffffffffffffff1673ffffffffffffffffffffffffffffffffffffffff1681526020019060010190808311611489575b5050505050905090565b6000809054906101000a900473ffffffffffffffffffffffffffffffffffffffff1681565b60088054600181600116156101000203166002900480601f0160208091040260200160405190810160405280929190818152602001828054600181600116156101000203166002900480156115985780601f1061156d57610100808354040283529160200191611598565b820191906000526020600020905b81548152906001019060200180831161157b57829003601f168201915b505050505081565b6000809054906101000a900473ffffffffffffffffffffffffffffffffffffffff1673ffffffffffffffffffffffffffffffffffffffff163373ffffffffffffffffffffffffffffffffffffffff161415156115fb57600080fd5b80600160006101000a81548173ffffffffffffffffffffffffffffffffffffffff021916908373ffffffffffffffffffffffffffffffffffffffff1602179055507f61a3bd1558245678bc7f935690f02a8b81f0f13ac925fbb0282af1e45fd6470b81604051808273ffffffffffffffffffffffffffffffffffffffff1673ffffffffffffffffffffffffffffffffffffffff16815260200191505060405180910390a150565b6000809054906101000a900473ffffffffffffffffffffffffffffffffffffffff1673ffffffffffffffffffffffffffffffffffffffff163373ffffffffffffffffffffffffffffffffffffffff161415156116fd57600080fd5b8060089080519060200190611713929190611d6c565b507f72535d8e317ac75a503334a037fffe100ce7af88d8b59bd07d7bb85353939dce816040518080602001828103825283818151815260200191508051906020019080838360005b8381101561177657808201518184015260208101905061175b565b50505050905090810190601f1680156117a35780820380516001836020036101000a031916815260200191505b509250505060405180910390a150565b6000809054906101000a900473ffffffffffffffffffffffffffffffffffffffff1673ffffffffffffffffffffffffffffffffffffffff163373ffffffffffffffffffffffffffffffffffffffff1614151561180e57600080fd5b600073ffffffffffffffffffffffffffffffffffffffff168173ffffffffffffffffffffffffffffffffffffffff161415151561184a57600080fd5b8073ffffffffffffffffffffffffffffffffffffffff166000809054906101000a900473ffffffffffffffffffffffffffffffffffffffff1673ffffffffffffffffffffffffffffffffffffffff167f8be0079c531659141344cd1fd0a4f28419497f9722a3daafe3b4186f6b6457e060405160405180910390a3806000806101000a81548173ffffffffffffffffffffffffffffffffffffffff021916908373ffffffffffffffffffffffffffffffffffffffff16021790555050565b60606000809054906101000a900473ffffffffffffffffffffffffffffffffffffffff1673ffffffffffffffffffffffffffffffffffffffff163373ffffffffffffffffffffffffffffffffffffffff1614806119b25750600160009054906101000a900473ffffffffffffffffffffffffffffffffffffffff1673ffffffffffffffffffffffffffffffffffffffff163373ffffffffffffffffffffffffffffffffffffffff16145b80611a065750600560003373ffffffffffffffffffffffffffffffffffffffff1673ffffffffffffffffffffffffffffffffffffffff16815260200190815260200160002060009054906101000a900460ff165b1515611a1157600080fd5b6003805480602002602001604051908101604052809291908181526020018280548015611a9357602002820191906000526020600020905b8160009054906101000a900473ffffffffffffffffffffffffffffffffffffffff1673ffffffffffffffffffffffffffffffffffffffff1681526020019060010190808311611a49575b5050505050905090565b60608060008060009054906101000a900473ffffffffffffffffffffffffffffffffffffffff1673ffffffffffffffffffffffffffffffffffffffff163373ffffffffffffffffffffffffffffffffffffffff161480611b4a5750600160009054906101000a900473ffffffffffffffffffffffffffffffffffffffff1673ffffffffffffffffffffffffffffffffffffffff163373ffffffffffffffffffffffffffffffffffffffff16145b80611b9e5750600560003373ffffffffffffffffffffffffffffffffffffffff1673ffffffffffffffffffffffffffffffffffffffff16815260200190815260200160002060009054906101000a900460ff165b1515611ba957600080fd5b600260068054905001604051908082528060200260200182016040528015611be05781602001602082028038833980820191505090505b5091506000809054906101000a900473ffffffffffffffffffffffffffffffffffffffff16826000815181101515611c1457fe5b9060200190602002019073ffffffffffffffffffffffffffffffffffffffff16908173ffffffffffffffffffffffffffffffffffffffff1681525050600160009054906101000a900473ffffffffffffffffffffffffffffffffffffffff16826001815181101515611c8257fe5b9060200190602002019073ffffffffffffffffffffffffffffffffffffffff16908173ffffffffffffffffffffffffffffffffffffffff1681525050600090505b600680549050811015611d6457600681815481101515611cdf57fe5b9060005260206000200160009054906101000a900473ffffffffffffffffffffffffffffffffffffffff168260028301815181101515611d1b57fe5b9060200190602002019073ffffffffffffffffffffffffffffffffffffffff16908173ffffffffffffffffffffffffffffffffffffffff16815250508080600101915050611cc3565b819250505090565b828054600181600116156101000203166002900490600052602060002090601f016020900481019282601f10611dad57805160ff1916838001178555611ddb565b82800160010185558215611ddb579182015b82811115611dda578251825591602001919060010190611dbf565b5b509050611de89190611dec565b5090565b611e0e91905b80821115611e0a576000816000905550600101611df2565b5090565b905600a165627a7a72305820f7908703c1ec68ffe8e6e4362bd0fae2d31931b2fdbe8b7fa1bac47f7a27cbd70029",
  "source": "pragma solidity ^0.4.18;\n\nimport \"./interfaces/IIssuanceWhiteList.sol\";\nimport \"./zeppelin-solidity/contracts/ownership/Ownable.sol\";\n\n/**\n * @title IssuanceWhiteList\n * @dev WhiteList for an AboveBoard issued token. Owner is the issuer.\n */\ncontract IssuanceWhiteList is IIssuanceWhiteList, Ownable {\n\n  address agent;\n\n  mapping(address => bool) members;\n  address[] membersAddress;\n  mapping(address => uint256) membersIndex;\n\n  mapping(address => bool) qualifiers;\n  address[] qualifiersAddress;\n  mapping(address => uint256) qualifiersIndex;\n\n  string public whitelistType;\n\n  modifier onlyAgentOrOwner() {\n    require(msg.sender == owner || msg.sender == agent);\n    _;\n  }\n\n  modifier onlyAgentOrOwnerOrQualifier() {\n    require(msg.sender == owner || msg.sender == agent || qualifiers[msg.sender]);\n    _;\n  }\n\n  function setAgent(address _agent) onlyOwner public {\n    agent = _agent;\n    NewAgentAssigned(_agent);\n  }\n\n  function setWhitelistType(string _whitelistType) onlyOwner public {\n    whitelistType = _whitelistType;\n    WhitelistTypeSet(_whitelistType);\n  }\n\n  function addQualifier(address _qualifier) onlyAgentOrOwner public {\n    qualifiers[_qualifier] = true;\n    uint256 id = qualifiersAddress.length;\n    qualifiersIndex[_qualifier] = id;\n    qualifiersAddress.push(_qualifier);\n    QualifierAdded(_qualifier);\n  }\n\n  function removeQualifier(address _qualifier) onlyAgentOrOwner public {\n    qualifiers[_qualifier] = false;\n    uint256 id = qualifiersIndex[_qualifier];\n    delete qualifiersAddress[id];\n    QualifierRemoved(_qualifier);\n  }\n\n  function add(address _buyer) onlyAgentOrOwnerOrQualifier public returns (bool) {\n    if (!members[_buyer]) {\n      uint256 id = membersAddress.length;\n      membersIndex[_buyer] = id;\n      membersAddress.push(_buyer);\n    }\n\n    members[_buyer] = true;\n\n    MemberAdded(_buyer);\n  }\n\n  function addBuyers(address[] _buyers) onlyAgentOrOwnerOrQualifier public returns (bool) {\n    for (uint256 i = 0; i < _buyers.length; i++) {\n\n      if (!members[_buyers[i]]) {\n        uint256 id = membersAddress.length;\n        membersIndex[_buyers[i]] = id;\n        membersAddress.push(_buyers[i]);\n      }\n\n      members[_buyers[i]] = true;\n\n      MemberAdded(_buyers[i]);\n    }\n  }\n\n  function remove(address _buyer) onlyAgentOrOwnerOrQualifier public returns (bool) {\n    if (members[_buyer]) {\n      uint256 id = membersIndex[_buyer];\n      delete membersAddress[id];\n    }\n\n    members[_buyer] = false;\n\n    MemberRemoved(_buyer);\n  }\n\n  function verify(address _buyer) view public returns (bool) {\n    return members[_buyer] == true;\n  }\n\n  function getBuyers() onlyAgentOrOwnerOrQualifier view public returns (address[]) {\n    return membersAddress;\n  }\n\n  function getQualifiers() onlyAgentOrOwnerOrQualifier view public returns (address[]) {\n    return qualifiersAddress;\n  }\n\n  function getAgentsOwnerAndQualifiers() onlyAgentOrOwnerOrQualifier view public returns (address[]) {\n    address[] memory agentOwnerAndQualifiers = new address[](qualifiersAddress.length + 2);\n\n    agentOwnerAndQualifiers[0] = owner;\n    agentOwnerAndQualifiers[1] = agent;\n\n    for (uint i = 0; i < qualifiersAddress.length; i++) {\n      agentOwnerAndQualifiers[i + 2] = qualifiersAddress[i];\n    }\n\n    return agentOwnerAndQualifiers;\n  }\n}\n",
  "sourcePath": "/opt/app/contracts/IssuanceWhiteList.sol",
  "compiler": {
    "name": "solc",
    "version": "0.4.24+commit.e67f0147.Emscripten.clang"
  },
  "schemaVersion": "2.0.1",
  "updatedAt": "2018-08-02T18:00:46.362Z"
}