{
  "contractName": "RegulatorService",
  "abi": [
    {
      "constant": true,
      "inputs": [],
      "name": "settingsStorage",
      "outputs": [
        {
          "name": "",
          "type": "address"
        }
      ],
      "payable": false,
      "stateMutability": "view",
      "type": "function"
    },
    {
      "constant": true,
      "inputs": [],
      "name": "owner",
      "outputs": [
        {
          "name": "",
          "type": "address"
        }
      ],
      "payable": false,
      "stateMutability": "view",
      "type": "function"
    },
    {
      "constant": false,
      "inputs": [
        {
          "name": "newOwner",
          "type": "address"
        }
      ],
      "name": "transferOwnership",
      "outputs": [],
      "payable": false,
      "stateMutability": "nonpayable",
      "type": "function"
    },
    {
      "inputs": [
        {
          "name": "_storage",
          "type": "address"
        }
      ],
      "payable": false,
      "stateMutability": "nonpayable",
      "type": "constructor"
    },
    {
      "anonymous": false,
      "inputs": [
        {
          "indexed": true,
          "name": "previousOwner",
          "type": "address"
        },
        {
          "indexed": true,
          "name": "newOwner",
          "type": "address"
        }
      ],
      "name": "OwnershipTransferred",
      "type": "event"
    },
    {
      "anonymous": false,
      "inputs": [
        {
          "indexed": false,
          "name": "oldStorage",
          "type": "address"
        },
        {
          "indexed": false,
          "name": "newStorage",
          "type": "address"
        }
      ],
      "name": "ReplaceStorage",
      "type": "event"
    },
    {
      "constant": false,
      "inputs": [
        {
          "name": "_token",
          "type": "address"
        },
        {
          "name": "_from",
          "type": "address"
        },
        {
          "name": "_to",
          "type": "address"
        },
        {
          "name": "_amount",
          "type": "uint256"
        }
      ],
      "name": "check",
      "outputs": [
        {
          "name": "",
          "type": "uint8"
        }
      ],
      "payable": false,
      "stateMutability": "nonpayable",
      "type": "function"
    },
    {
      "constant": false,
      "inputs": [
        {
          "name": "_sender",
          "type": "address"
        },
        {
          "name": "_token",
          "type": "address"
        },
        {
          "name": "_from",
          "type": "address"
        },
        {
          "name": "_to",
          "type": "address"
        },
        {
          "name": "_amount",
          "type": "uint256"
        }
      ],
      "name": "checkArbitrage",
      "outputs": [
        {
          "name": "",
          "type": "uint8"
        }
      ],
      "payable": false,
      "stateMutability": "nonpayable",
      "type": "function"
    },
    {
      "constant": false,
      "inputs": [
        {
          "name": "_storage",
          "type": "address"
        }
      ],
      "name": "replaceStorage",
      "outputs": [],
      "payable": false,
      "stateMutability": "nonpayable",
      "type": "function"
    }
  ],
  "bytecode": "0x608060405234801561001057600080fd5b5060405160208061115f83398101806040528101908080519060200190929190505050336000806101000a81548173ffffffffffffffffffffffffffffffffffffffff021916908373ffffffffffffffffffffffffffffffffffffffff160217905550600073ffffffffffffffffffffffffffffffffffffffff168173ffffffffffffffffffffffffffffffffffffffff16141515156100af57600080fd5b80600160006101000a81548173ffffffffffffffffffffffffffffffffffffffff021916908373ffffffffffffffffffffffffffffffffffffffff1602179055505061105f806101006000396000f300608060405260043610610078576000357c0100000000000000000000000000000000000000000000000000000000900463ffffffff1680631e84a7941461007d5780634277b5b114610144578063505f65c3146101eb5780635332a857146102425780638da5cb5b14610285578063f2fde38b146102dc575b600080fd5b34801561008957600080fd5b50610128600480360381019080803573ffffffffffffffffffffffffffffffffffffffff169060200190929190803573ffffffffffffffffffffffffffffffffffffffff169060200190929190803573ffffffffffffffffffffffffffffffffffffffff169060200190929190803573ffffffffffffffffffffffffffffffffffffffff1690602001909291908035906020019092919050505061031f565b604051808260ff1660ff16815260200191505060405180910390f35b34801561015057600080fd5b506101cf600480360381019080803573ffffffffffffffffffffffffffffffffffffffff169060200190929190803573ffffffffffffffffffffffffffffffffffffffff169060200190929190803573ffffffffffffffffffffffffffffffffffffffff1690602001909291908035906020019092919050505061058d565b604051808260ff1660ff16815260200191505060405180910390f35b3480156101f757600080fd5b50610200610d1d565b604051808273ffffffffffffffffffffffffffffffffffffffff1673ffffffffffffffffffffffffffffffffffffffff16815260200191505060405180910390f35b34801561024e57600080fd5b50610283600480360381019080803573ffffffffffffffffffffffffffffffffffffffff169060200190929190505050610d43565b005b34801561029157600080fd5b5061029a610eb9565b604051808273ffffffffffffffffffffffffffffffffffffffff1673ffffffffffffffffffffffffffffffffffffffff16815260200191505060405180910390f35b3480156102e857600080fd5b5061031d600480360381019080803573ffffffffffffffffffffffffffffffffffffffff169060200190929190505050610ede565b005b6000806000600160009054906101000a900473ffffffffffffffffffffffffffffffffffffffff1673ffffffffffffffffffffffffffffffffffffffff1663084866dd896040518263ffffffff167c0100000000000000000000000000000000000000000000000000000000028152600401808273ffffffffffffffffffffffffffffffffffffffff1673ffffffffffffffffffffffffffffffffffffffff168152602001915050602060405180830381600087803b1580156103e157600080fd5b505af11580156103f5573d6000803e3d6000fd5b505050506040513d602081101561040b57600080fd5b810190808051906020019092919050505091508673ffffffffffffffffffffffffffffffffffffffff16638da5cb5b6040518163ffffffff167c0100000000000000000000000000000000000000000000000000000000028152600401602060405180830381600087803b15801561048257600080fd5b505af1158015610496573d6000803e3d6000fd5b505050506040513d60208110156104ac57600080fd5b810190808051906020019092919050505090508073ffffffffffffffffffffffffffffffffffffffff168673ffffffffffffffffffffffffffffffffffffffff16141580156104f9575081155b801561053157508073ffffffffffffffffffffffffffffffffffffffff168873ffffffffffffffffffffffffffffffffffffffff1614155b1561057d578073ffffffffffffffffffffffffffffffffffffffff168673ffffffffffffffffffffffffffffffffffffffff161415156105745760049250610582565b60069250610582565b600092505b505095945050505050565b600080606060006060600160009054906101000a900473ffffffffffffffffffffffffffffffffffffffff1673ffffffffffffffffffffffffffffffffffffffff1663cf3090126040518163ffffffff167c0100000000000000000000000000000000000000000000000000000000028152600401602060405180830381600087803b15801561061c57600080fd5b505af1158015610630573d6000803e3d6000fd5b505050506040513d602081101561064657600080fd5b8101908080519060200190929190505050156106655760019450610d11565b600160009054906101000a900473ffffffffffffffffffffffffffffffffffffffff1673ffffffffffffffffffffffffffffffffffffffff16632500cbfd6040518163ffffffff167c0100000000000000000000000000000000000000000000000000000000028152600401602060405180830381600087803b1580156106eb57600080fd5b505af11580156106ff573d6000803e3d6000fd5b505050506040513d602081101561071557600080fd5b8101908080519060200190929190505050158015610808575060008973ffffffffffffffffffffffffffffffffffffffff166370a08231896040518263ffffffff167c0100000000000000000000000000000000000000000000000000000000028152600401808273ffffffffffffffffffffffffffffffffffffffff1673ffffffffffffffffffffffffffffffffffffffff168152602001915050602060405180830381600087803b1580156107cb57600080fd5b505af11580156107df573d6000803e3d6000fd5b505050506040513d60208110156107f557600080fd5b8101908080519060200190929190505050145b156108165760029450610d11565b600160009054906101000a900473ffffffffffffffffffffffffffffffffffffffff1673ffffffffffffffffffffffffffffffffffffffff16636f9170f6896040518263ffffffff167c0100000000000000000000000000000000000000000000000000000000028152600401808273ffffffffffffffffffffffffffffffffffffffff1673ffffffffffffffffffffffffffffffffffffffff168152602001915050600060405180830381600087803b1580156108d357600080fd5b505af11580156108e7573d6000803e3d6000fd5b505050506040513d6000823e3d601f19601f82011682018060405250604081101561091157600080fd5b8101908080519060200190929190805164010000000081111561093357600080fd5b8281019050602081018481111561094957600080fd5b815185600182028301116401000000008211171561096657600080fd5b50509291905050508094508195505050600160009054906101000a900473ffffffffffffffffffffffffffffffffffffffff1673ffffffffffffffffffffffffffffffffffffffff16636f9170f6886040518263ffffffff167c0100000000000000000000000000000000000000000000000000000000028152600401808273ffffffffffffffffffffffffffffffffffffffff1673ffffffffffffffffffffffffffffffffffffffff168152602001915050600060405180830381600087803b158015610a3357600080fd5b505af1158015610a47573d6000803e3d6000fd5b505050506040513d6000823e3d601f19601f820116820180604052506040811015610a7157600080fd5b81019080805190602001909291908051640100000000811115610a9357600080fd5b82810190506020810184811115610aa957600080fd5b8151856001820283011164010000000082111715610ac657600080fd5b50509291905050508092508193505050811515610ae65760049450610d11565b60405180807f52656744000000000000000000000000000000000000000000000000000000008152506004019050604051809103902060001916816040518082805190602001908083835b602083101515610b565780518252602082019150602081019050602083039250610b31565b6001836020036101000a038019825116818451168082178552505050505050905001915050604051809103902060001916148015610c535750600160009054906101000a900473ffffffffffffffffffffffffffffffffffffffff1673ffffffffffffffffffffffffffffffffffffffff166369c385df6040518163ffffffff167c0100000000000000000000000000000000000000000000000000000000028152600401602060405180830381600087803b158015610c1557600080fd5b505af1158015610c29573d6000803e3d6000fd5b505050506040513d6020811015610c3f57600080fd5b810190808051906020019092919050505042105b8015610cfe575060405180807f71696200000000000000000000000000000000000000000000000000000000008152506003019050604051809103902060001916836040518082805190602001908083835b602083101515610cca5780518252602082019150602081019050602083039250610ca5565b6001836020036101000a03801982511681845116808217855250505050505090500191505060405180910390206000191614155b15610d0c5760059450610d11565b600094505b50505050949350505050565b600160009054906101000a900473ffffffffffffffffffffffffffffffffffffffff1681565b60008060009054906101000a900473ffffffffffffffffffffffffffffffffffffffff1673ffffffffffffffffffffffffffffffffffffffff163373ffffffffffffffffffffffffffffffffffffffff16141515610da057600080fd5b816000813b9050600081111515610db657600080fd5b600160009054906101000a900473ffffffffffffffffffffffffffffffffffffffff16925083600160006101000a81548173ffffffffffffffffffffffffffffffffffffffff021916908373ffffffffffffffffffffffffffffffffffffffff1602179055507fd837af80c7c7256ef44a7c5febba0827c80ece6c6ba3cb50fb007937aef599988385604051808373ffffffffffffffffffffffffffffffffffffffff1673ffffffffffffffffffffffffffffffffffffffff1681526020018273ffffffffffffffffffffffffffffffffffffffff1673ffffffffffffffffffffffffffffffffffffffff1681526020019250505060405180910390a150505050565b6000809054906101000a900473ffffffffffffffffffffffffffffffffffffffff1681565b6000809054906101000a900473ffffffffffffffffffffffffffffffffffffffff1673ffffffffffffffffffffffffffffffffffffffff163373ffffffffffffffffffffffffffffffffffffffff16141515610f3957600080fd5b600073ffffffffffffffffffffffffffffffffffffffff168173ffffffffffffffffffffffffffffffffffffffff1614151515610f7557600080fd5b8073ffffffffffffffffffffffffffffffffffffffff166000809054906101000a900473ffffffffffffffffffffffffffffffffffffffff1673ffffffffffffffffffffffffffffffffffffffff167f8be0079c531659141344cd1fd0a4f28419497f9722a3daafe3b4186f6b6457e060405160405180910390a3806000806101000a81548173ffffffffffffffffffffffffffffffffffffffff021916908373ffffffffffffffffffffffffffffffffffffffff160217905550505600a165627a7a72305820247db73beec19c087831a29be8e48f3c167b4c08e7cc7043eb77b072f9bd0a010029",
  "source": "pragma solidity ^0.4.18;\n\nimport \"./zeppelin-solidity/contracts/ownership/Ownable.sol\";\nimport \"./zeppelin-solidity/contracts/token/ERC20/MintableToken.sol\";\nimport \"./interfaces/WhiteList.sol\";\nimport \"./interfaces/IRegulatorService.sol\";\nimport \"./SettingsStorage.sol\";\n\n/// @notice Standard interface for `RegulatorService`s\ncontract RegulatorService is IRegulatorService, Ownable {\n\n  SettingsStorage public settingsStorage;\n\n  // @dev Check success code\n  uint8 constant private CHECK_SUCCESS = 0;\n\n  // @dev Check error reason: Token is locked\n  uint8 constant private CHECK_ELOCKED = 1;\n\n  // @dev Check error reason: New shareholders are not allowed\n  uint8 constant private CHECK_ERALLOW = 2;\n\n  // @dev Check error reason: Sender is not allowed to send the token\n  uint8 constant private CHECK_ESEND = 3;\n\n  // @dev Check error reason: Receiver is not allowed to receive the token\n  uint8 constant private CHECK_ERECV = 4;\n\n  // @dev Check error reason: Transfer before initial offering end date\n  uint8 constant private CHECK_ERREGD = 5;\n\n  // @dev Check error reason: Sender is not officer\n  uint8 constant private CHECK_EROFF = 6;\n\n  /**\n   * @dev Validate contract address\n   * Credit: https://github.com/Dexaran/ERC223-token-standard/blob/Recommended/ERC223_Token.sol#L107-L114\n   *\n   * @param _addr The address of a smart contract\n   */\n  modifier withContract(address _addr) {\n    uint length;\n    assembly { length := extcodesize(_addr) }\n    require(length > 0);\n    _;\n  }\n\n  /**\n   * @notice Constructor\n   * @param _storage The address of the `SettingsStorage`\n   */\n  constructor (address _storage) public {\n    require(_storage != address(0));\n    settingsStorage = SettingsStorage(_storage);\n  }\n\n  /*\n   * @notice This method *MUST* be called by `RegulatedToken`s during `transfer()` and `transferFrom()`.\n   *         The implementation *SHOULD* check whether or not a transfer can be approved.\n   *\n   * @dev    This method *MAY* call back to the token contract specified by `_token` for\n   *         more information needed to enforce trade approval.\n   *\n   * @param  _from The address of the sender account\n   * @param  _to The address of the receiver account\n   * @param  _amount The quantity of the token to trade\n   *\n   * @return uint8 The reason code: 0 means success.  Non-zero values are left to the implementation\n   *               to assign meaning.\n   */\n  function check(address _token, address _from, address _to, uint256 _amount) public returns (uint8) {\n    // trading is locked, can transfer to or from company account\n    if (settingsStorage.locked()) {\n      return CHECK_ELOCKED;\n    }\n\n    // if newShareholdersAllowed is not enabled, the transfer will only succeed if the buyer already has tokens or tranfers to or from company account\n    if (!settingsStorage.newShareholdersAllowed() && MintableToken(_token).balanceOf(_to) == 0) {\n      return CHECK_ERALLOW;\n    }\n\n    bool f;\n    string memory wlFrom;\n    (f, wlFrom) = settingsStorage.isWhiteListed(_from);\n\n    bool t;\n    string memory wlTo;\n    (t, wlTo) = settingsStorage.isWhiteListed(_to);\n\n    if (!t) {\n      return CHECK_ERECV;\n    }\n\n    // receiver is under Regulation D, Non-US investors can trade at any time\n    // only company account can send to US investors first year, US investors cannot sell these shares in the first year, except to the company account\n    // transfer rule for US Reg D / S / 144a. This will have a special case for addresses that are on the QIB whitelist\n    if (keccak256(wlTo) == keccak256(\"RegD\")\n      && block.timestamp < settingsStorage.initialOfferEndDate()\n      && keccak256(wlFrom) != keccak256(\"qib\")) {\n      return CHECK_ERREGD;\n    }\n\n    return CHECK_SUCCESS;\n  }\n\n  // the sender is the multisig wallet, or the _from is the company account and the sender is the issuer\n  function checkArbitrage(address _sender, address _token, address _from, address _to, uint256 _amount) public returns (uint8) {\n    bool isOfficer = settingsStorage.officers(_sender);\n    address tokenOwner = MintableToken(_token).owner();\n\n    if (_from != tokenOwner && !isOfficer && _sender != tokenOwner) {\n\n      if (_from != tokenOwner) {\n        return CHECK_ERECV;\n      }\n\n      return CHECK_EROFF;\n    }\n\n    return CHECK_SUCCESS;\n  }\n\n  /**\n   * @dev Replace the current SettingsStorage\n   *\n   * @param _storage The address of the `SettingsStorage`\n   *\n   */\n  function replaceStorage(address _storage) onlyOwner withContract(_storage) public {\n    address oldStorage = settingsStorage;\n    settingsStorage = SettingsStorage(_storage);\n    ReplaceStorage(oldStorage, _storage);\n  }\n}\n",
  "sourcePath": "/home/jordan/workspace/aboveboard/AboveboardSecurityToken/contracts/RegulatorService.sol",
  "compiler": {
    "name": "solc",
    "version": "0.4.24+commit.e67f0147.Emscripten.clang"
  },
  "schemaVersion": "2.0.1",
  "updatedAt": "2018-10-05T17:25:48.007Z"
}