{
  "contractName": "SettingsStorage",
  "abi": [
    {
      "constant": true,
      "inputs": [
        {
          "name": "",
          "type": "address"
        }
      ],
      "name": "officers",
      "outputs": [
        {
          "name": "",
          "type": "bool"
        }
      ],
      "payable": false,
      "stateMutability": "view",
      "type": "function"
    },
    {
      "constant": true,
      "inputs": [],
      "name": "newShareholdersAllowed",
      "outputs": [
        {
          "name": "",
          "type": "bool"
        }
      ],
      "payable": false,
      "stateMutability": "view",
      "type": "function"
    },
    {
      "constant": true,
      "inputs": [],
      "name": "initialOfferEndDate",
      "outputs": [
        {
          "name": "",
          "type": "uint256"
        }
      ],
      "payable": false,
      "stateMutability": "view",
      "type": "function"
    },
    {
      "constant": true,
      "inputs": [],
      "name": "owner",
      "outputs": [
        {
          "name": "",
          "type": "address"
        }
      ],
      "payable": false,
      "stateMutability": "view",
      "type": "function"
    },
    {
      "constant": true,
      "inputs": [],
      "name": "locked",
      "outputs": [
        {
          "name": "",
          "type": "bool"
        }
      ],
      "payable": false,
      "stateMutability": "view",
      "type": "function"
    },
    {
      "constant": false,
      "inputs": [
        {
          "name": "newOwner",
          "type": "address"
        }
      ],
      "name": "transferOwnership",
      "outputs": [],
      "payable": false,
      "stateMutability": "nonpayable",
      "type": "function"
    },
    {
      "inputs": [
        {
          "name": "_locked",
          "type": "bool"
        },
        {
          "name": "_newShareholdersAllowed",
          "type": "bool"
        },
        {
          "name": "_initialOfferEndDate",
          "type": "uint256"
        }
      ],
      "payable": false,
      "stateMutability": "nonpayable",
      "type": "constructor"
    },
    {
      "anonymous": false,
      "inputs": [
        {
          "indexed": true,
          "name": "previousOwner",
          "type": "address"
        },
        {
          "indexed": true,
          "name": "newOwner",
          "type": "address"
        }
      ],
      "name": "OwnershipTransferred",
      "type": "event"
    },
    {
      "anonymous": false,
      "inputs": [
        {
          "indexed": false,
          "name": "locked",
          "type": "bool"
        }
      ],
      "name": "LogLockSet",
      "type": "event"
    },
    {
      "anonymous": false,
      "inputs": [
        {
          "indexed": false,
          "name": "enabled",
          "type": "bool"
        }
      ],
      "name": "LogPartialTransferSet",
      "type": "event"
    },
    {
      "anonymous": false,
      "inputs": [
        {
          "indexed": false,
          "name": "_date",
          "type": "uint256"
        }
      ],
      "name": "InititalOfferEndDateSet",
      "type": "event"
    },
    {
      "anonymous": false,
      "inputs": [
        {
          "indexed": false,
          "name": "whitelist",
          "type": "address"
        }
      ],
      "name": "WhitelistAdded",
      "type": "event"
    },
    {
      "anonymous": false,
      "inputs": [
        {
          "indexed": false,
          "name": "whitelist",
          "type": "address"
        }
      ],
      "name": "WhitelistRemoved",
      "type": "event"
    },
    {
      "anonymous": false,
      "inputs": [
        {
          "indexed": false,
          "name": "whitelist",
          "type": "address"
        }
      ],
      "name": "RegulationDWhitelistSet",
      "type": "event"
    },
    {
      "anonymous": false,
      "inputs": [
        {
          "indexed": false,
          "name": "_officer",
          "type": "address"
        }
      ],
      "name": "OfficerAdded",
      "type": "event"
    },
    {
      "anonymous": false,
      "inputs": [
        {
          "indexed": false,
          "name": "_officer",
          "type": "address"
        }
      ],
      "name": "OfficerRemoved",
      "type": "event"
    },
    {
      "anonymous": false,
      "inputs": [
        {
          "indexed": false,
          "name": "allow",
          "type": "bool"
        }
      ],
      "name": "NewShareholdersAllowance",
      "type": "event"
    },
    {
      "constant": false,
      "inputs": [
        {
          "name": "permission",
          "type": "string"
        },
        {
          "name": "setting",
          "type": "bool"
        }
      ],
      "name": "setIssuerPermission",
      "outputs": [],
      "payable": false,
      "stateMutability": "nonpayable",
      "type": "function"
    },
    {
      "constant": false,
      "inputs": [
        {
          "name": "_locked",
          "type": "bool"
        }
      ],
      "name": "setLocked",
      "outputs": [],
      "payable": false,
      "stateMutability": "nonpayable",
      "type": "function"
    },
    {
      "constant": true,
      "inputs": [],
      "name": "getWhitelists",
      "outputs": [
        {
          "name": "",
          "type": "address[]"
        }
      ],
      "payable": false,
      "stateMutability": "view",
      "type": "function"
    },
    {
      "constant": false,
      "inputs": [
        {
          "name": "_whitelist",
          "type": "address"
        }
      ],
      "name": "addWhitelist",
      "outputs": [],
      "payable": false,
      "stateMutability": "nonpayable",
      "type": "function"
    },
    {
      "constant": false,
      "inputs": [
        {
          "name": "_whitelist",
          "type": "address"
        }
      ],
      "name": "removeWhitelist",
      "outputs": [],
      "payable": false,
      "stateMutability": "nonpayable",
      "type": "function"
    },
    {
      "constant": true,
      "inputs": [
        {
          "name": "_address",
          "type": "address"
        }
      ],
      "name": "isWhiteListed",
      "outputs": [
        {
          "name": "",
          "type": "bool"
        },
        {
          "name": "",
          "type": "string"
        }
      ],
      "payable": false,
      "stateMutability": "view",
      "type": "function"
    },
    {
      "constant": false,
      "inputs": [
        {
          "name": "_date",
          "type": "uint256"
        }
      ],
      "name": "setInititalOfferEndDate",
      "outputs": [],
      "payable": false,
      "stateMutability": "nonpayable",
      "type": "function"
    },
    {
      "constant": false,
      "inputs": [
        {
          "name": "_officer",
          "type": "address"
        }
      ],
      "name": "addOfficer",
      "outputs": [],
      "payable": false,
      "stateMutability": "nonpayable",
      "type": "function"
    },
    {
      "constant": false,
      "inputs": [
        {
          "name": "_officer",
          "type": "address"
        }
      ],
      "name": "removeOfficer",
      "outputs": [],
      "payable": false,
      "stateMutability": "nonpayable",
      "type": "function"
    },
    {
      "constant": false,
      "inputs": [
        {
          "name": "allow",
          "type": "bool"
        }
      ],
      "name": "allowNewShareholders",
      "outputs": [],
      "payable": false,
      "stateMutability": "nonpayable",
      "type": "function"
    }
  ],
  "bytecode": "0x608060405234801561001057600080fd5b50604051606080611a22833981018060405281019080805190602001909291908051906020019092919080519060200190929190505050336000806101000a81548173ffffffffffffffffffffffffffffffffffffffff021916908373ffffffffffffffffffffffffffffffffffffffff16021790555082600060146101000a81548160ff02191690831515021790555081600060156101000a81548160ff0219169083151502179055508060028190555050505061194e806100d46000396000f3006080604052600436106100e6576000357c0100000000000000000000000000000000000000000000000000000000900463ffffffff168063084866dd146100eb578063211e28b6146101465780632500cbfd1461017557806358da66c8146101a457806369c385df146102195780636f9170f614610244578063719a0f8c1461030b57806378c8cda71461034e578063865ed63e146103915780638da5cb5b146103c0578063c35dcf9014610417578063cf30901214610483578063d9803cb2146104b2578063f2fde38b146104f5578063f3065dac14610538578063f80f5dd514610565575b600080fd5b3480156100f757600080fd5b5061012c600480360381019080803573ffffffffffffffffffffffffffffffffffffffff1690602001909291905050506105a8565b604051808215151515815260200191505060405180910390f35b34801561015257600080fd5b506101736004803603810190808035151590602001909291905050506105c8565b005b34801561018157600080fd5b5061018a610723565b604051808215151515815260200191505060405180910390f35b3480156101b057600080fd5b50610217600480360381019080803590602001908201803590602001908080601f0160208091040260200160405190810160405280939291908181526020018383808284378201915050505050509192919290803515159060200190929190505050610736565b005b34801561022557600080fd5b5061022e610818565b6040518082815260200191505060405180910390f35b34801561025057600080fd5b50610285600480360381019080803573ffffffffffffffffffffffffffffffffffffffff16906020019092919050505061081e565b604051808315151515815260200180602001828103825283818151815260200191508051906020019080838360005b838110156102cf5780820151818401526020810190506102b4565b50505050905090810190601f1680156102fc5780820380516001836020036101000a031916815260200191505b50935050505060405180910390f35b34801561031757600080fd5b5061034c600480360381019080803573ffffffffffffffffffffffffffffffffffffffff169060200190929190505050610ab0565b005b34801561035a57600080fd5b5061038f600480360381019080803573ffffffffffffffffffffffffffffffffffffffff169060200190929190505050610c56565b005b34801561039d57600080fd5b506103be600480360381019080803515159060200190929190505050610e98565b005b3480156103cc57600080fd5b506103d5610ff3565b604051808273ffffffffffffffffffffffffffffffffffffffff1673ffffffffffffffffffffffffffffffffffffffff16815260200191505060405180910390f35b34801561042357600080fd5b5061042c611018565b6040518080602001828103825283818151815260200191508051906020019060200280838360005b8381101561046f578082015181840152602081019050610454565b505050509050019250505060405180910390f35b34801561048f57600080fd5b506104986110a6565b604051808215151515815260200191505060405180910390f35b3480156104be57600080fd5b506104f3600480360381019080803573ffffffffffffffffffffffffffffffffffffffff1690602001909291905050506110b9565b005b34801561050157600080fd5b50610536600480360381019080803573ffffffffffffffffffffffffffffffffffffffff16906020019092919050505061125e565b005b34801561054457600080fd5b50610563600480360381019080803590602001909291905050506113b3565b005b34801561057157600080fd5b506105a6600480360381019080803573ffffffffffffffffffffffffffffffffffffffff1690602001909291905050506114f7565b005b60016020528060005260406000206000915054906101000a900460ff1681565b600460405180807f7365744c6f636b656400000000000000000000000000000000000000000000008152506009019050908152602001604051809103902060009054906101000a900460ff1680156106695750600160003373ffffffffffffffffffffffffffffffffffffffff1673ffffffffffffffffffffffffffffffffffffffff16815260200190815260200160002060009054906101000a900460ff165b806106c057506000809054906101000a900473ffffffffffffffffffffffffffffffffffffffff1673ffffffffffffffffffffffffffffffffffffffff163373ffffffffffffffffffffffffffffffffffffffff16145b15156106cb57600080fd5b80600060146101000a81548160ff0219169083151502179055507f05bf206e40ba001f44679b0460da2d1e1b62f43d9326c71badd4823e2220b47d81604051808215151515815260200191505060405180910390a150565b600060159054906101000a900460ff1681565b6000809054906101000a900473ffffffffffffffffffffffffffffffffffffffff1673ffffffffffffffffffffffffffffffffffffffff163373ffffffffffffffffffffffffffffffffffffffff1614151561079157600080fd5b806004836040518082805190602001908083835b6020831015156107ca57805182526020820191506020810190506020830392506107a5565b6001836020036101000a038019825116818451168082178552505050505050905001915050908152602001604051809103902060006101000a81548160ff0219169083151502179055505050565b60025481565b6000606060008090505b600380549050811015610a925760038181548110151561084457fe5b9060005260206000200160009054906101000a900473ffffffffffffffffffffffffffffffffffffffff1673ffffffffffffffffffffffffffffffffffffffff166363a9c3d7856040518263ffffffff167c0100000000000000000000000000000000000000000000000000000000028152600401808273ffffffffffffffffffffffffffffffffffffffff1673ffffffffffffffffffffffffffffffffffffffff168152602001915050602060405180830381600087803b15801561090957600080fd5b505af115801561091d573d6000803e3d6000fd5b505050506040513d602081101561093357600080fd5b810190808051906020019092919050505015610a8557600160038281548110151561095a57fe5b9060005260206000200160009054906101000a900473ffffffffffffffffffffffffffffffffffffffff1673ffffffffffffffffffffffffffffffffffffffff1663a4d0d5a96040518163ffffffff167c0100000000000000000000000000000000000000000000000000000000028152600401600060405180830381600087803b1580156109e857600080fd5b505af11580156109fc573d6000803e3d6000fd5b505050506040513d6000823e3d601f19601f820116820180604052506020811015610a2657600080fd5b810190808051640100000000811115610a3e57600080fd5b82810190506020810184811115610a5457600080fd5b8151856001820283011164010000000082111715610a7157600080fd5b505092919050505080905092509250610aaa565b8080600101915050610828565b60006020604051908101604052806000815250925092505b50915091565b600160003373ffffffffffffffffffffffffffffffffffffffff1673ffffffffffffffffffffffffffffffffffffffff16815260200190815260200160002060009054906101000a900460ff168015610b365750600073ffffffffffffffffffffffffffffffffffffffff168173ffffffffffffffffffffffffffffffffffffffff1614155b80610b8d57506000809054906101000a900473ffffffffffffffffffffffffffffffffffffffff1673ffffffffffffffffffffffffffffffffffffffff163373ffffffffffffffffffffffffffffffffffffffff16145b1515610b9857600080fd5b6000600160008373ffffffffffffffffffffffffffffffffffffffff1673ffffffffffffffffffffffffffffffffffffffff16815260200190815260200160002060006101000a81548160ff0219169083151502179055507fc71ac73682f965d639a2f97202d5b162f5ea75f1ef0e933bad7f1db870a4c25481604051808273ffffffffffffffffffffffffffffffffffffffff1673ffffffffffffffffffffffffffffffffffffffff16815260200191505060405180910390a150565b60008073ffffffffffffffffffffffffffffffffffffffff168273ffffffffffffffffffffffffffffffffffffffff1614151515610c9357600080fd5b600460405180807f72656d6f766557686974656c6973740000000000000000000000000000000000815250600f019050908152602001604051809103902060009054906101000a900460ff168015610d345750600160003373ffffffffffffffffffffffffffffffffffffffff1673ffffffffffffffffffffffffffffffffffffffff16815260200190815260200160002060009054906101000a900460ff165b80610d8b57506000809054906101000a900473ffffffffffffffffffffffffffffffffffffffff1673ffffffffffffffffffffffffffffffffffffffff163373ffffffffffffffffffffffffffffffffffffffff16145b1515610d9657600080fd5b600090505b600380549050811015610e93578173ffffffffffffffffffffffffffffffffffffffff16600382815481101515610dce57fe5b9060005260206000200160009054906101000a900473ffffffffffffffffffffffffffffffffffffffff1673ffffffffffffffffffffffffffffffffffffffff161415610e8657610e1e816117a8565b7fde8cf212af7ce38b2840785a2768d97ff2dbf3c21b516961cec0061e134c2a1e82604051808273ffffffffffffffffffffffffffffffffffffffff1673ffffffffffffffffffffffffffffffffffffffff16815260200191505060405180910390a1610e94565b8080600101915050610d9b565b5b5050565b600460405180807f616c6c6f774e65775368617265686f6c646572730000000000000000000000008152506014019050908152602001604051809103902060009054906101000a900460ff168015610f395750600160003373ffffffffffffffffffffffffffffffffffffffff1673ffffffffffffffffffffffffffffffffffffffff16815260200190815260200160002060009054906101000a900460ff165b80610f9057506000809054906101000a900473ffffffffffffffffffffffffffffffffffffffff1673ffffffffffffffffffffffffffffffffffffffff163373ffffffffffffffffffffffffffffffffffffffff16145b1515610f9b57600080fd5b80600060156101000a81548160ff0219169083151502179055507f72ac31df7bbe575a23cb17b22ddf6b96ae0b018687ae58247202e94b7842ebad81604051808215151515815260200191505060405180910390a150565b6000809054906101000a900473ffffffffffffffffffffffffffffffffffffffff1681565b6060600380548060200260200160405190810160405280929190818152602001828054801561109c57602002820191906000526020600020905b8160009054906101000a900473ffffffffffffffffffffffffffffffffffffffff1673ffffffffffffffffffffffffffffffffffffffff1681526020019060010190808311611052575b5050505050905090565b600060149054906101000a900460ff1681565b600160003373ffffffffffffffffffffffffffffffffffffffff1673ffffffffffffffffffffffffffffffffffffffff16815260200190815260200160002060009054906101000a900460ff16801561113f5750600073ffffffffffffffffffffffffffffffffffffffff168173ffffffffffffffffffffffffffffffffffffffff1614155b8061119657506000809054906101000a900473ffffffffffffffffffffffffffffffffffffffff1673ffffffffffffffffffffffffffffffffffffffff163373ffffffffffffffffffffffffffffffffffffffff16145b15156111a157600080fd5b60018060008373ffffffffffffffffffffffffffffffffffffffff1673ffffffffffffffffffffffffffffffffffffffff16815260200190815260200160002060006101000a81548160ff0219169083151502179055507f0a5e350574f3293d09c9df68b92156ccec15be9e07b6cab9616ec2b486d2a4d981604051808273ffffffffffffffffffffffffffffffffffffffff1673ffffffffffffffffffffffffffffffffffffffff16815260200191505060405180910390a150565b6000809054906101000a900473ffffffffffffffffffffffffffffffffffffffff1673ffffffffffffffffffffffffffffffffffffffff163373ffffffffffffffffffffffffffffffffffffffff161415156112b957600080fd5b600073ffffffffffffffffffffffffffffffffffffffff168173ffffffffffffffffffffffffffffffffffffffff16141515156112f557600080fd5b8073ffffffffffffffffffffffffffffffffffffffff166000809054906101000a900473ffffffffffffffffffffffffffffffffffffffff1673ffffffffffffffffffffffffffffffffffffffff167f8be0079c531659141344cd1fd0a4f28419497f9722a3daafe3b4186f6b6457e060405160405180910390a3806000806101000a81548173ffffffffffffffffffffffffffffffffffffffff021916908373ffffffffffffffffffffffffffffffffffffffff16021790555050565b600460405180807f736574496e69746974616c4f66666572456e64446174650000000000000000008152506017019050908152602001604051809103902060009054906101000a900460ff1680156114545750600160003373ffffffffffffffffffffffffffffffffffffffff1673ffffffffffffffffffffffffffffffffffffffff16815260200190815260200160002060009054906101000a900460ff165b806114ab57506000809054906101000a900473ffffffffffffffffffffffffffffffffffffffff1673ffffffffffffffffffffffffffffffffffffffff163373ffffffffffffffffffffffffffffffffffffffff16145b15156114b657600080fd5b806002819055507fc2e7181d064be2909b07bcba7a1f8bb1dc0ce1261d5fdbbce2358b8bf6f7d5a8816040518082815260200191505060405180910390a150565b600080600073ffffffffffffffffffffffffffffffffffffffff168373ffffffffffffffffffffffffffffffffffffffff161415151561153657600080fd5b600460405180807f61646457686974656c6973740000000000000000000000000000000000000000815250600c019050908152602001604051809103902060009054906101000a900460ff1680156115d75750600160003373ffffffffffffffffffffffffffffffffffffffff1673ffffffffffffffffffffffffffffffffffffffff16815260200190815260200160002060009054906101000a900460ff165b8061162e57506000809054906101000a900473ffffffffffffffffffffffffffffffffffffffff1673ffffffffffffffffffffffffffffffffffffffff163373ffffffffffffffffffffffffffffffffffffffff16145b151561163957600080fd5b60009150600090505b6003805490508110156116d2578273ffffffffffffffffffffffffffffffffffffffff1660038281548110151561167557fe5b9060005260206000200160009054906101000a900473ffffffffffffffffffffffffffffffffffffffff1673ffffffffffffffffffffffffffffffffffffffff1614156116c557600191506116d2565b8080600101915050611642565b8115156117a35760038390806001815401808255809150509060018203906000526020600020016000909192909190916101000a81548173ffffffffffffffffffffffffffffffffffffffff021916908373ffffffffffffffffffffffffffffffffffffffff160217905550507f4790a4adb426ca2345bb5108f6e454eae852a7bf687544cd66a7270dff3a41d683604051808273ffffffffffffffffffffffffffffffffffffffff1673ffffffffffffffffffffffffffffffffffffffff16815260200191505060405180910390a15b505050565b6000600380549050821015156117bd576118cd565b8190505b600160038054905003811015611872576003600182018154811015156117e357fe5b9060005260206000200160009054906101000a900473ffffffffffffffffffffffffffffffffffffffff1660038281548110151561181d57fe5b9060005260206000200160006101000a81548173ffffffffffffffffffffffffffffffffffffffff021916908373ffffffffffffffffffffffffffffffffffffffff16021790555080806001019150506117c1565b600360016003805490500381548110151561188957fe5b9060005260206000200160006101000a81549073ffffffffffffffffffffffffffffffffffffffff021916905560038054809190600190036118cb91906118d1565b505b5050565b8154818355818111156118f8578183600052602060002091820191016118f791906118fd565b5b505050565b61191f91905b8082111561191b576000816000905550600101611903565b5090565b905600a165627a7a72305820a90987c4527ce8612caad2b490ca88ba41079ca57132239d48f5a04ba4668ed10029",
  "source": "pragma solidity ^0.4.18;\n\nimport \"./zeppelin-solidity/contracts/ownership/Ownable.sol\";\nimport \"./interfaces/ISettingsStorage.sol\";\nimport \"./IssuanceWhiteList.sol\";\n\ncontract SettingsStorage is ISettingsStorage, Ownable {\n\n  /**\n    * @dev Toggle for locking/unlocking trades at a token level.\n    *      The default behavior of the zero memory state for locking will be unlocked.\n    */\n  bool public locked;\n\n  /// @dev Toggle for allowing/disallowing new shareholders\n  bool public newShareholdersAllowed;\n\n  /// @dev Issuers of the token\n  mapping(address => bool) public officers;\n\n  /// @dev Initial offering end date\n  uint256 public initialOfferEndDate;\n\n  /// @dev Array of whitelists\n  IssuanceWhiteList[] whitelists;\n\n  mapping(string => bool) issuerPermissions;\n\n  constructor (bool _locked, bool _newShareholdersAllowed, uint256 _initialOfferEndDate) public {\n    locked = _locked;\n    newShareholdersAllowed = _newShareholdersAllowed;\n    initialOfferEndDate = _initialOfferEndDate;\n  }\n\n  function setIssuerPermission(string permission, bool setting) public {\n    require (msg.sender == owner);\n\n    issuerPermissions[permission] = setting;\n  }\n\n  /**\n   * @notice Locks the ability to trade a token\n   *\n   * @dev    This method can only be called by this contract's issuer\n   *\n   * @param  _locked True for lock the token\n   */\n  function setLocked(bool _locked) public {\n    require(issuerPermissions[\"setLocked\"] && officers[msg.sender] || msg.sender == owner);\n\n    locked = _locked;\n    LogLockSet(_locked);\n  }\n\n  /**\n   * @notice Get whitelists\n   *\n   * @return IssuanceWhiteList[] Array of whitelists\n   */\n  function getWhitelists() view public returns (IssuanceWhiteList[]) {\n    return whitelists;\n  }\n\n  function addWhitelist(IssuanceWhiteList _whitelist) public {\n    //check that we don't pass an empty list\n    require(_whitelist != address(0));\n    require(issuerPermissions[\"addWhitelist\"] && officers[msg.sender] || msg.sender == owner);\n\n    bool contains = false;\n\n    //Loop through array to see if the whitelist is present\n    for (uint256 i = 0; i < whitelists.length; i++) {\n      if (whitelists[i] == _whitelist) {\n\n        //if it is, change the value of contains and stop\n        contains = true;\n        break;\n      }\n    }\n\n    //if not, push it into the array\n    if (!contains) {\n      whitelists.push(_whitelist);\n      WhitelistAdded(_whitelist);\n    }\n  }\n\n  function removeWhitelist(IssuanceWhiteList _whitelist) public {\n    //check that we don't pass an empty list\n    require(_whitelist != address(0));\n    require(issuerPermissions[\"removeWhitelist\"] && officers[msg.sender] || msg.sender == owner);\n\n    //Loop through array to see if the whitelist is present\n    for (uint256 i = 0; i < whitelists.length; i++) {\n\n      //if we find it, we remove it from the list\n      if (whitelists[i] == _whitelist) {\n        remove(i);\n        WhitelistRemoved(_whitelist);\n        return;\n      }\n    }\n  }\n\n  function remove(uint256 index) private {\n    //check that the index doesn't exceed the list length\n    if (index >= whitelists.length)\n      return;\n\n    //move each list with one position on the left\n    for (uint256 i = index; i < whitelists.length-1; i++) {\n        whitelists[i] = whitelists[i+1];\n    }\n\n    //delete the last whitelist and decrease the array length\n    delete whitelists[whitelists.length-1];\n    whitelists.length--;\n  }\n\n  /**\n   * @notice Check if address is indeed in one of the whitelists\n   *\n   * @param _address Buyer to be added to whitelist\n   *\n   * @return True if buyer is added to whitelist, otherwise false\n   */\n  function isWhiteListed(address _address) view public returns (bool, string) {\n    for (uint256 i = 0; i < whitelists.length; i++) {\n      if (whitelists[i].verify(_address))\n        return (true, whitelists[i].whitelistType());\n    }\n    return (false, \"\");\n  }\n\n  /**\n   * @notice Set initial offering end date\n   *\n   * @param  _date Initial offering end date\n   */\n  function setInititalOfferEndDate(uint256 _date) public {\n    require(issuerPermissions[\"setInititalOfferEndDate\"] && officers[msg.sender] || msg.sender == owner);\n\n    initialOfferEndDate = _date;\n    InititalOfferEndDateSet(_date);\n  }\n\n  /**\n   * @notice Set officer of token\n   *\n   * @param  _officer Officer to be set\n   */\n  function addOfficer(address _officer) public {\n    require((officers[msg.sender] && _officer != address(0)) ||\n            msg.sender == owner);\n\n    officers[_officer] = true;\n    OfficerAdded(_officer);\n  }\n\n  /**\n   * @notice Remove officer of token\n   *\n   * @param  _officer Officer to be removed\n   */\n  function removeOfficer(address _officer) public {\n    require((officers[msg.sender] && _officer != address(0)) ||\n            msg.sender == owner);\n\n    officers[_officer] = false;\n    OfficerRemoved(_officer);\n  }\n\n  /**\n   * @notice Allow/disallow new shareholders\n   *\n   * @param  allow Allow/disallow new shareholders\n   */\n  function allowNewShareholders(bool allow) public {\n    require(issuerPermissions[\"allowNewShareholders\"] && officers[msg.sender] || msg.sender == owner);\n\n    newShareholdersAllowed = allow;\n    NewShareholdersAllowance(allow);\n  }\n}\n",
  "sourcePath": "/home/jordan/workspace/aboveboard/AboveboardSecurityToken/contracts/SettingsStorage.sol",
  "compiler": {
    "name": "solc",
    "version": "0.4.24+commit.e67f0147.Emscripten.clang"
  },
  "schemaVersion": "2.0.1",
  "updatedAt": "2018-09-18T21:02:46.499Z"
}