{
  "contractName": "SettingsStorage",
  "abi": [
    {
      "constant": true,
      "inputs": [
        {
          "name": "",
          "type": "address"
        }
      ],
      "name": "officers",
      "outputs": [
        {
          "name": "",
          "type": "bool"
        }
      ],
      "payable": false,
      "stateMutability": "view",
      "type": "function"
    },
    {
      "constant": true,
      "inputs": [],
      "name": "newShareholdersAllowed",
      "outputs": [
        {
          "name": "",
          "type": "bool"
        }
      ],
      "payable": false,
      "stateMutability": "view",
      "type": "function"
    },
    {
      "constant": true,
      "inputs": [],
      "name": "initialOfferEndDate",
      "outputs": [
        {
          "name": "",
          "type": "uint256"
        }
      ],
      "payable": false,
      "stateMutability": "view",
      "type": "function"
    },
    {
      "constant": true,
      "inputs": [],
      "name": "messagingAddress",
      "outputs": [
        {
          "name": "",
          "type": "string"
        }
      ],
      "payable": false,
      "stateMutability": "view",
      "type": "function"
    },
    {
      "constant": true,
      "inputs": [],
      "name": "owner",
      "outputs": [
        {
          "name": "",
          "type": "address"
        }
      ],
      "payable": false,
      "stateMutability": "view",
      "type": "function"
    },
    {
      "constant": true,
      "inputs": [],
      "name": "locked",
      "outputs": [
        {
          "name": "",
          "type": "bool"
        }
      ],
      "payable": false,
      "stateMutability": "view",
      "type": "function"
    },
    {
      "constant": false,
      "inputs": [
        {
          "name": "newOwner",
          "type": "address"
        }
      ],
      "name": "transferOwnership",
      "outputs": [],
      "payable": false,
      "stateMutability": "nonpayable",
      "type": "function"
    },
    {
      "inputs": [
        {
          "name": "_locked",
          "type": "bool"
        },
        {
          "name": "_newShareholdersAllowed",
          "type": "bool"
        },
        {
          "name": "_initialOfferEndDate",
          "type": "uint256"
        },
        {
          "name": "_messagingAddress",
          "type": "string"
        }
      ],
      "payable": false,
      "stateMutability": "nonpayable",
      "type": "constructor"
    },
    {
      "anonymous": false,
      "inputs": [
        {
          "indexed": true,
          "name": "previousOwner",
          "type": "address"
        },
        {
          "indexed": true,
          "name": "newOwner",
          "type": "address"
        }
      ],
      "name": "OwnershipTransferred",
      "type": "event"
    },
    {
      "anonymous": false,
      "inputs": [
        {
          "indexed": false,
          "name": "locked",
          "type": "bool"
        }
      ],
      "name": "LogLockSet",
      "type": "event"
    },
    {
      "anonymous": false,
      "inputs": [
        {
          "indexed": false,
          "name": "enabled",
          "type": "bool"
        }
      ],
      "name": "LogPartialTransferSet",
      "type": "event"
    },
    {
      "anonymous": false,
      "inputs": [
        {
          "indexed": false,
          "name": "_date",
          "type": "uint256"
        }
      ],
      "name": "InititalOfferEndDateSet",
      "type": "event"
    },
    {
      "anonymous": false,
      "inputs": [
        {
          "indexed": false,
          "name": "whitelist",
          "type": "address"
        }
      ],
      "name": "WhitelistAdded",
      "type": "event"
    },
    {
      "anonymous": false,
      "inputs": [
        {
          "indexed": false,
          "name": "whitelist",
          "type": "address"
        }
      ],
      "name": "WhitelistRemoved",
      "type": "event"
    },
    {
      "anonymous": false,
      "inputs": [
        {
          "indexed": false,
          "name": "whitelist",
          "type": "address"
        }
      ],
      "name": "RegulationDWhitelistSet",
      "type": "event"
    },
    {
      "anonymous": false,
      "inputs": [
        {
          "indexed": false,
          "name": "_officer",
          "type": "address"
        }
      ],
      "name": "OfficerAdded",
      "type": "event"
    },
    {
      "anonymous": false,
      "inputs": [
        {
          "indexed": false,
          "name": "_officer",
          "type": "address"
        }
      ],
      "name": "OfficerRemoved",
      "type": "event"
    },
    {
      "anonymous": false,
      "inputs": [
        {
          "indexed": false,
          "name": "_address",
          "type": "string"
        }
      ],
      "name": "MessagingAddressSet",
      "type": "event"
    },
    {
      "anonymous": false,
      "inputs": [
        {
          "indexed": false,
          "name": "allow",
          "type": "bool"
        }
      ],
      "name": "NewShareholdersAllowance",
      "type": "event"
    },
    {
      "constant": false,
      "inputs": [
        {
          "name": "permission",
          "type": "string"
        },
        {
          "name": "setting",
          "type": "bool"
        }
      ],
      "name": "setIssuerPermission",
      "outputs": [],
      "payable": false,
      "stateMutability": "nonpayable",
      "type": "function"
    },
    {
      "constant": false,
      "inputs": [
        {
          "name": "_locked",
          "type": "bool"
        }
      ],
      "name": "setLocked",
      "outputs": [],
      "payable": false,
      "stateMutability": "nonpayable",
      "type": "function"
    },
    {
      "constant": true,
      "inputs": [],
      "name": "getWhitelists",
      "outputs": [
        {
          "name": "",
          "type": "address[]"
        }
      ],
      "payable": false,
      "stateMutability": "view",
      "type": "function"
    },
    {
      "constant": false,
      "inputs": [
        {
          "name": "_whitelist",
          "type": "address"
        }
      ],
      "name": "addWhitelist",
      "outputs": [],
      "payable": false,
      "stateMutability": "nonpayable",
      "type": "function"
    },
    {
      "constant": false,
      "inputs": [
        {
          "name": "_whitelist",
          "type": "address"
        }
      ],
      "name": "removeWhitelist",
      "outputs": [],
      "payable": false,
      "stateMutability": "nonpayable",
      "type": "function"
    },
    {
      "constant": true,
      "inputs": [
        {
          "name": "_address",
          "type": "address"
        }
      ],
      "name": "isWhiteListed",
      "outputs": [
        {
          "name": "",
          "type": "bool"
        },
        {
          "name": "",
          "type": "string"
        }
      ],
      "payable": false,
      "stateMutability": "view",
      "type": "function"
    },
    {
      "constant": false,
      "inputs": [
        {
          "name": "_date",
          "type": "uint256"
        }
      ],
      "name": "setInititalOfferEndDate",
      "outputs": [],
      "payable": false,
      "stateMutability": "nonpayable",
      "type": "function"
    },
    {
      "constant": false,
      "inputs": [
        {
          "name": "_officer",
          "type": "address"
        }
      ],
      "name": "addOfficer",
      "outputs": [],
      "payable": false,
      "stateMutability": "nonpayable",
      "type": "function"
    },
    {
      "constant": false,
      "inputs": [
        {
          "name": "_officer",
          "type": "address"
        }
      ],
      "name": "removeOfficer",
      "outputs": [],
      "payable": false,
      "stateMutability": "nonpayable",
      "type": "function"
    },
    {
      "constant": false,
      "inputs": [
        {
          "name": "_address",
          "type": "string"
        }
      ],
      "name": "setMessagingAddress",
      "outputs": [],
      "payable": false,
      "stateMutability": "nonpayable",
      "type": "function"
    },
    {
      "constant": false,
      "inputs": [
        {
          "name": "allow",
          "type": "bool"
        }
      ],
      "name": "allowNewShareholders",
      "outputs": [],
      "payable": false,
      "stateMutability": "nonpayable",
      "type": "function"
    }
  ],
  "bytecode": "0x60806040523480156200001157600080fd5b5060405162001ee538038062001ee583398101806040528101908080519060200190929190805190602001909291908051906020019092919080518201929190505050336000806101000a81548173ffffffffffffffffffffffffffffffffffffffff021916908373ffffffffffffffffffffffffffffffffffffffff16021790555083600060146101000a81548160ff02191690831515021790555082600060156101000a81548160ff021916908315150217905550816002819055508060039080519060200190620000e7929190620000f2565b5050505050620001a1565b828054600181600116156101000203166002900490600052602060002090601f016020900481019282601f106200013557805160ff191683800117855562000166565b8280016001018555821562000166579182015b828111156200016557825182559160200191906001019062000148565b5b50905062000175919062000179565b5090565b6200019e91905b808211156200019a57600081600090555060010162000180565b5090565b90565b611d3480620001b16000396000f3006080604052600436106100fc576000357c0100000000000000000000000000000000000000000000000000000000900463ffffffff168063084866dd146101015780630eed3f9f1461015c578063211e28b6146101c55780632500cbfd146101f457806358da66c81461022357806369c385df146102985780636f9170f6146102c3578063719a0f8c1461038a57806378c8cda7146103cd578063807071d014610410578063865ed63e146104a05780638da5cb5b146104cf578063c35dcf9014610526578063cf30901214610592578063d9803cb2146105c1578063f2fde38b14610604578063f3065dac14610647578063f80f5dd514610674575b600080fd5b34801561010d57600080fd5b50610142600480360381019080803573ffffffffffffffffffffffffffffffffffffffff1690602001909291905050506106b7565b604051808215151515815260200191505060405180910390f35b34801561016857600080fd5b506101c3600480360381019080803590602001908201803590602001908080601f01602080910402602001604051908101604052809392919081815260200183838082843782019150505050505091929192905050506106d7565b005b3480156101d157600080fd5b506101f2600480360381019080803515159060200190929190505050610890565b005b34801561020057600080fd5b506102096109eb565b604051808215151515815260200191505060405180910390f35b34801561022f57600080fd5b50610296600480360381019080803590602001908201803590602001908080601f01602080910402602001604051908101604052809392919081815260200183838082843782019150505050505091929192908035151590602001909291905050506109fe565b005b3480156102a457600080fd5b506102ad610ae0565b6040518082815260200191505060405180910390f35b3480156102cf57600080fd5b50610304600480360381019080803573ffffffffffffffffffffffffffffffffffffffff169060200190929190505050610ae6565b604051808315151515815260200180602001828103825283818151815260200191508051906020019080838360005b8381101561034e578082015181840152602081019050610333565b50505050905090810190601f16801561037b5780820380516001836020036101000a031916815260200191505b50935050505060405180910390f35b34801561039657600080fd5b506103cb600480360381019080803573ffffffffffffffffffffffffffffffffffffffff169060200190929190505050610d78565b005b3480156103d957600080fd5b5061040e600480360381019080803573ffffffffffffffffffffffffffffffffffffffff169060200190929190505050610f1e565b005b34801561041c57600080fd5b50610425611160565b6040518080602001828103825283818151815260200191508051906020019080838360005b8381101561046557808201518184015260208101905061044a565b50505050905090810190601f1680156104925780820380516001836020036101000a031916815260200191505b509250505060405180910390f35b3480156104ac57600080fd5b506104cd6004803603810190808035151590602001909291905050506111fe565b005b3480156104db57600080fd5b506104e4611359565b604051808273ffffffffffffffffffffffffffffffffffffffff1673ffffffffffffffffffffffffffffffffffffffff16815260200191505060405180910390f35b34801561053257600080fd5b5061053b61137e565b6040518080602001828103825283818151815260200191508051906020019060200280838360005b8381101561057e578082015181840152602081019050610563565b505050509050019250505060405180910390f35b34801561059e57600080fd5b506105a761140c565b604051808215151515815260200191505060405180910390f35b3480156105cd57600080fd5b50610602600480360381019080803573ffffffffffffffffffffffffffffffffffffffff16906020019092919050505061141f565b005b34801561061057600080fd5b50610645600480360381019080803573ffffffffffffffffffffffffffffffffffffffff1690602001909291905050506115c4565b005b34801561065357600080fd5b5061067260048036038101908080359060200190929190505050611719565b005b34801561068057600080fd5b506106b5600480360381019080803573ffffffffffffffffffffffffffffffffffffffff16906020019092919050505061185d565b005b60016020528060005260406000206000915054906101000a900460ff1681565b600560405180807f7365744d6573736167696e6741646472657373000000000000000000000000008152506013019050908152602001604051809103902060009054906101000a900460ff1680156107785750600160003373ffffffffffffffffffffffffffffffffffffffff1673ffffffffffffffffffffffffffffffffffffffff16815260200190815260200160002060009054906101000a900460ff165b806107cf57506000809054906101000a900473ffffffffffffffffffffffffffffffffffffffff1673ffffffffffffffffffffffffffffffffffffffff163373ffffffffffffffffffffffffffffffffffffffff16145b15156107da57600080fd5b80600390805190602001906107f0929190611c37565b507f827f513c0402b7e2c74297f5ab29c1608819df765bacf6bbe760706642f0bcf4816040518080602001828103825283818151815260200191508051906020019080838360005b83811015610853578082015181840152602081019050610838565b50505050905090810190601f1680156108805780820380516001836020036101000a031916815260200191505b509250505060405180910390a150565b600560405180807f7365744c6f636b656400000000000000000000000000000000000000000000008152506009019050908152602001604051809103902060009054906101000a900460ff1680156109315750600160003373ffffffffffffffffffffffffffffffffffffffff1673ffffffffffffffffffffffffffffffffffffffff16815260200190815260200160002060009054906101000a900460ff165b8061098857506000809054906101000a900473ffffffffffffffffffffffffffffffffffffffff1673ffffffffffffffffffffffffffffffffffffffff163373ffffffffffffffffffffffffffffffffffffffff16145b151561099357600080fd5b80600060146101000a81548160ff0219169083151502179055507f05bf206e40ba001f44679b0460da2d1e1b62f43d9326c71badd4823e2220b47d81604051808215151515815260200191505060405180910390a150565b600060159054906101000a900460ff1681565b6000809054906101000a900473ffffffffffffffffffffffffffffffffffffffff1673ffffffffffffffffffffffffffffffffffffffff163373ffffffffffffffffffffffffffffffffffffffff16141515610a5957600080fd5b806005836040518082805190602001908083835b602083101515610a925780518252602082019150602081019050602083039250610a6d565b6001836020036101000a038019825116818451168082178552505050505050905001915050908152602001604051809103902060006101000a81548160ff0219169083151502179055505050565b60025481565b6000606060008090505b600480549050811015610d5a57600481815481101515610b0c57fe5b9060005260206000200160009054906101000a900473ffffffffffffffffffffffffffffffffffffffff1673ffffffffffffffffffffffffffffffffffffffff166363a9c3d7856040518263ffffffff167c0100000000000000000000000000000000000000000000000000000000028152600401808273ffffffffffffffffffffffffffffffffffffffff1673ffffffffffffffffffffffffffffffffffffffff168152602001915050602060405180830381600087803b158015610bd157600080fd5b505af1158015610be5573d6000803e3d6000fd5b505050506040513d6020811015610bfb57600080fd5b810190808051906020019092919050505015610d4d576001600482815481101515610c2257fe5b9060005260206000200160009054906101000a900473ffffffffffffffffffffffffffffffffffffffff1673ffffffffffffffffffffffffffffffffffffffff1663a4d0d5a96040518163ffffffff167c0100000000000000000000000000000000000000000000000000000000028152600401600060405180830381600087803b158015610cb057600080fd5b505af1158015610cc4573d6000803e3d6000fd5b505050506040513d6000823e3d601f19601f820116820180604052506020811015610cee57600080fd5b810190808051640100000000811115610d0657600080fd5b82810190506020810184811115610d1c57600080fd5b8151856001820283011164010000000082111715610d3957600080fd5b505092919050505080905092509250610d72565b8080600101915050610af0565b60006020604051908101604052806000815250925092505b50915091565b600160003373ffffffffffffffffffffffffffffffffffffffff1673ffffffffffffffffffffffffffffffffffffffff16815260200190815260200160002060009054906101000a900460ff168015610dfe5750600073ffffffffffffffffffffffffffffffffffffffff168173ffffffffffffffffffffffffffffffffffffffff1614155b80610e5557506000809054906101000a900473ffffffffffffffffffffffffffffffffffffffff1673ffffffffffffffffffffffffffffffffffffffff163373ffffffffffffffffffffffffffffffffffffffff16145b1515610e6057600080fd5b6000600160008373ffffffffffffffffffffffffffffffffffffffff1673ffffffffffffffffffffffffffffffffffffffff16815260200190815260200160002060006101000a81548160ff0219169083151502179055507fc71ac73682f965d639a2f97202d5b162f5ea75f1ef0e933bad7f1db870a4c25481604051808273ffffffffffffffffffffffffffffffffffffffff1673ffffffffffffffffffffffffffffffffffffffff16815260200191505060405180910390a150565b60008073ffffffffffffffffffffffffffffffffffffffff168273ffffffffffffffffffffffffffffffffffffffff1614151515610f5b57600080fd5b600560405180807f72656d6f766557686974656c6973740000000000000000000000000000000000815250600f019050908152602001604051809103902060009054906101000a900460ff168015610ffc5750600160003373ffffffffffffffffffffffffffffffffffffffff1673ffffffffffffffffffffffffffffffffffffffff16815260200190815260200160002060009054906101000a900460ff165b8061105357506000809054906101000a900473ffffffffffffffffffffffffffffffffffffffff1673ffffffffffffffffffffffffffffffffffffffff163373ffffffffffffffffffffffffffffffffffffffff16145b151561105e57600080fd5b600090505b60048054905081101561115b578173ffffffffffffffffffffffffffffffffffffffff1660048281548110151561109657fe5b9060005260206000200160009054906101000a900473ffffffffffffffffffffffffffffffffffffffff1673ffffffffffffffffffffffffffffffffffffffff16141561114e576110e681611b0e565b7fde8cf212af7ce38b2840785a2768d97ff2dbf3c21b516961cec0061e134c2a1e82604051808273ffffffffffffffffffffffffffffffffffffffff1673ffffffffffffffffffffffffffffffffffffffff16815260200191505060405180910390a161115c565b8080600101915050611063565b5b5050565b60038054600181600116156101000203166002900480601f0160208091040260200160405190810160405280929190818152602001828054600181600116156101000203166002900480156111f65780601f106111cb576101008083540402835291602001916111f6565b820191906000526020600020905b8154815290600101906020018083116111d957829003601f168201915b505050505081565b600560405180807f616c6c6f774e65775368617265686f6c646572730000000000000000000000008152506014019050908152602001604051809103902060009054906101000a900460ff16801561129f5750600160003373ffffffffffffffffffffffffffffffffffffffff1673ffffffffffffffffffffffffffffffffffffffff16815260200190815260200160002060009054906101000a900460ff165b806112f657506000809054906101000a900473ffffffffffffffffffffffffffffffffffffffff1673ffffffffffffffffffffffffffffffffffffffff163373ffffffffffffffffffffffffffffffffffffffff16145b151561130157600080fd5b80600060156101000a81548160ff0219169083151502179055507f72ac31df7bbe575a23cb17b22ddf6b96ae0b018687ae58247202e94b7842ebad81604051808215151515815260200191505060405180910390a150565b6000809054906101000a900473ffffffffffffffffffffffffffffffffffffffff1681565b6060600480548060200260200160405190810160405280929190818152602001828054801561140257602002820191906000526020600020905b8160009054906101000a900473ffffffffffffffffffffffffffffffffffffffff1673ffffffffffffffffffffffffffffffffffffffff16815260200190600101908083116113b8575b5050505050905090565b600060149054906101000a900460ff1681565b600160003373ffffffffffffffffffffffffffffffffffffffff1673ffffffffffffffffffffffffffffffffffffffff16815260200190815260200160002060009054906101000a900460ff1680156114a55750600073ffffffffffffffffffffffffffffffffffffffff168173ffffffffffffffffffffffffffffffffffffffff1614155b806114fc57506000809054906101000a900473ffffffffffffffffffffffffffffffffffffffff1673ffffffffffffffffffffffffffffffffffffffff163373ffffffffffffffffffffffffffffffffffffffff16145b151561150757600080fd5b60018060008373ffffffffffffffffffffffffffffffffffffffff1673ffffffffffffffffffffffffffffffffffffffff16815260200190815260200160002060006101000a81548160ff0219169083151502179055507f0a5e350574f3293d09c9df68b92156ccec15be9e07b6cab9616ec2b486d2a4d981604051808273ffffffffffffffffffffffffffffffffffffffff1673ffffffffffffffffffffffffffffffffffffffff16815260200191505060405180910390a150565b6000809054906101000a900473ffffffffffffffffffffffffffffffffffffffff1673ffffffffffffffffffffffffffffffffffffffff163373ffffffffffffffffffffffffffffffffffffffff1614151561161f57600080fd5b600073ffffffffffffffffffffffffffffffffffffffff168173ffffffffffffffffffffffffffffffffffffffff161415151561165b57600080fd5b8073ffffffffffffffffffffffffffffffffffffffff166000809054906101000a900473ffffffffffffffffffffffffffffffffffffffff1673ffffffffffffffffffffffffffffffffffffffff167f8be0079c531659141344cd1fd0a4f28419497f9722a3daafe3b4186f6b6457e060405160405180910390a3806000806101000a81548173ffffffffffffffffffffffffffffffffffffffff021916908373ffffffffffffffffffffffffffffffffffffffff16021790555050565b600560405180807f736574496e69746974616c4f66666572456e64446174650000000000000000008152506017019050908152602001604051809103902060009054906101000a900460ff1680156117ba5750600160003373ffffffffffffffffffffffffffffffffffffffff1673ffffffffffffffffffffffffffffffffffffffff16815260200190815260200160002060009054906101000a900460ff165b8061181157506000809054906101000a900473ffffffffffffffffffffffffffffffffffffffff1673ffffffffffffffffffffffffffffffffffffffff163373ffffffffffffffffffffffffffffffffffffffff16145b151561181c57600080fd5b806002819055507fc2e7181d064be2909b07bcba7a1f8bb1dc0ce1261d5fdbbce2358b8bf6f7d5a8816040518082815260200191505060405180910390a150565b600080600073ffffffffffffffffffffffffffffffffffffffff168373ffffffffffffffffffffffffffffffffffffffff161415151561189c57600080fd5b600560405180807f61646457686974656c6973740000000000000000000000000000000000000000815250600c019050908152602001604051809103902060009054906101000a900460ff16801561193d5750600160003373ffffffffffffffffffffffffffffffffffffffff1673ffffffffffffffffffffffffffffffffffffffff16815260200190815260200160002060009054906101000a900460ff165b8061199457506000809054906101000a900473ffffffffffffffffffffffffffffffffffffffff1673ffffffffffffffffffffffffffffffffffffffff163373ffffffffffffffffffffffffffffffffffffffff16145b151561199f57600080fd5b60009150600090505b600480549050811015611a38578273ffffffffffffffffffffffffffffffffffffffff166004828154811015156119db57fe5b9060005260206000200160009054906101000a900473ffffffffffffffffffffffffffffffffffffffff1673ffffffffffffffffffffffffffffffffffffffff161415611a2b5760019150611a38565b80806001019150506119a8565b811515611b095760048390806001815401808255809150509060018203906000526020600020016000909192909190916101000a81548173ffffffffffffffffffffffffffffffffffffffff021916908373ffffffffffffffffffffffffffffffffffffffff160217905550507f4790a4adb426ca2345bb5108f6e454eae852a7bf687544cd66a7270dff3a41d683604051808273ffffffffffffffffffffffffffffffffffffffff1673ffffffffffffffffffffffffffffffffffffffff16815260200191505060405180910390a15b505050565b600060048054905082101515611b2357611c33565b8190505b600160048054905003811015611bd857600460018201815481101515611b4957fe5b9060005260206000200160009054906101000a900473ffffffffffffffffffffffffffffffffffffffff16600482815481101515611b8357fe5b9060005260206000200160006101000a81548173ffffffffffffffffffffffffffffffffffffffff021916908373ffffffffffffffffffffffffffffffffffffffff1602179055508080600101915050611b27565b6004600160048054905003815481101515611bef57fe5b9060005260206000200160006101000a81549073ffffffffffffffffffffffffffffffffffffffff02191690556004805480919060019003611c319190611cb7565b505b5050565b828054600181600116156101000203166002900490600052602060002090601f016020900481019282601f10611c7857805160ff1916838001178555611ca6565b82800160010185558215611ca6579182015b82811115611ca5578251825591602001919060010190611c8a565b5b509050611cb39190611ce3565b5090565b815481835581811115611cde57818360005260206000209182019101611cdd9190611ce3565b5b505050565b611d0591905b80821115611d01576000816000905550600101611ce9565b5090565b905600a165627a7a72305820f513c4b5b7b4fe6df3535da70cf4c8ee8572ad85306c3e850b752caaeb2701b60029",
  "source": "pragma solidity ^0.4.18;\n\nimport \"./zeppelin-solidity/contracts/ownership/Ownable.sol\";\nimport \"./interfaces/ISettingsStorage.sol\";\nimport \"./IssuanceWhiteList.sol\";\n\ncontract SettingsStorage is ISettingsStorage, Ownable {\n\n  /**\n    * @dev Toggle for locking/unlocking trades at a token level.\n    *      The default behavior of the zero memory state for locking will be unlocked.\n    */\n  bool public locked;\n\n  /// @dev Toggle for allowing/disallowing new shareholders\n  bool public newShareholdersAllowed;\n\n  /// @dev Issuers of the token\n  mapping(address => bool) public officers;\n\n  /// @dev Initial offering end date\n  uint256 public initialOfferEndDate;\n\n  /// @dev Messaging address\n  string public messagingAddress;\n\n  /// @dev Array of whitelists\n  IssuanceWhiteList[] whitelists;\n\n  mapping(string => bool) issuerPermissions;\n\n  constructor (bool _locked, bool _newShareholdersAllowed, uint256 _initialOfferEndDate, string _messagingAddress) public {\n    locked = _locked;\n    newShareholdersAllowed = _newShareholdersAllowed;\n    initialOfferEndDate = _initialOfferEndDate;\n    messagingAddress = _messagingAddress;\n  }\n\n  function setIssuerPermission(string permission, bool setting) public {\n    require (msg.sender == owner);\n\n    issuerPermissions[permission] = setting;\n  }\n\n  /**\n   * @notice Locks the ability to trade a token\n   *\n   * @dev    This method can only be called by this contract's issuer\n   *\n   * @param  _locked True for lock the token\n   */\n  function setLocked(bool _locked) public {\n    require(issuerPermissions[\"setLocked\"] && officers[msg.sender] || msg.sender == owner);\n\n    locked = _locked;\n    LogLockSet(_locked);\n  }\n\n  /**\n   * @notice Get whitelists\n   *\n   * @return IssuanceWhiteList[] Array of whitelists\n   */\n  function getWhitelists() view public returns (IssuanceWhiteList[]) {\n    return whitelists;\n  }\n\n  function addWhitelist(IssuanceWhiteList _whitelist) public {\n    //check that we don't pass an empty list\n    require(_whitelist != address(0));\n    require(issuerPermissions[\"addWhitelist\"] && officers[msg.sender] || msg.sender == owner);\n\n    bool contains = false;\n\n    //Loop through array to see if the whitelist is present\n    for (uint256 i = 0; i < whitelists.length; i++) {\n      if (whitelists[i] == _whitelist) {\n\n        //if it is, change the value of contains and stop\n        contains = true;\n        break;\n      }\n    }\n\n    //if not, push it into the array\n    if (!contains) {\n      whitelists.push(_whitelist);\n      WhitelistAdded(_whitelist);\n    }\n  }\n\n  function removeWhitelist(IssuanceWhiteList _whitelist) public {\n    //check that we don't pass an empty list\n    require(_whitelist != address(0));\n    require(issuerPermissions[\"removeWhitelist\"] && officers[msg.sender] || msg.sender == owner);\n\n    //Loop through array to see if the whitelist is present\n    for (uint256 i = 0; i < whitelists.length; i++) {\n\n      //if we find it, we remove it from the list\n      if (whitelists[i] == _whitelist) {\n        remove(i);\n        WhitelistRemoved(_whitelist);\n        return;\n      }\n    }\n  }\n\n  function remove(uint256 index) private {\n    //check that the index doesn't exceed the list length\n    if (index >= whitelists.length)\n      return;\n\n    //move each list with one position on the left\n    for (uint256 i = index; i < whitelists.length-1; i++) {\n        whitelists[i] = whitelists[i+1];\n    }\n\n    //delete the last whitelist and decrease the array length\n    delete whitelists[whitelists.length-1];\n    whitelists.length--;\n  }\n\n  /**\n   * @notice Check if address is indeed in one of the whitelists\n   *\n   * @param _address Buyer to be added to whitelist\n   *\n   * @return True if buyer is added to whitelist, otherwise false\n   */\n  function isWhiteListed(address _address) view public returns (bool, string) {\n    for (uint256 i = 0; i < whitelists.length; i++) {\n      if (whitelists[i].verify(_address))\n        return (true, whitelists[i].whitelistType());\n    }\n    return (false, \"\");\n  }\n\n  /**\n   * @notice Set initial offering end date\n   *\n   * @param  _date Initial offering end date\n   */\n  function setInititalOfferEndDate(uint256 _date) public {\n    require(issuerPermissions[\"setInititalOfferEndDate\"] && officers[msg.sender] || msg.sender == owner);\n\n    initialOfferEndDate = _date;\n    InititalOfferEndDateSet(_date);\n  }\n\n  /**\n   * @notice Set officer of token\n   *\n   * @param  _officer Officer to be set\n   */\n  function addOfficer(address _officer) public {\n    require((officers[msg.sender] && _officer != address(0)) ||\n            msg.sender == owner);\n\n    officers[_officer] = true;\n    OfficerAdded(_officer);\n  }\n\n  /**\n   * @notice Remove officer of token\n   *\n   * @param  _officer Officer to be removed\n   */\n  function removeOfficer(address _officer) public {\n    require((officers[msg.sender] && _officer != address(0)) ||\n            msg.sender == owner);\n\n    officers[_officer] = false;\n    OfficerRemoved(_officer);\n  }\n\n  /**\n   * @notice Set messaging address\n   *\n   * @param  _address Messaging address to be set\n   */\n  function setMessagingAddress(string _address) public {\n    require(issuerPermissions[\"setMessagingAddress\"] && officers[msg.sender] || msg.sender == owner);\n\n    messagingAddress = _address;\n    MessagingAddressSet(_address);\n  }\n\n  /**\n   * @notice Allow/disallow new shareholders\n   *\n   * @param  allow Allow/disallow new shareholders\n   */\n  function allowNewShareholders(bool allow) public {\n    require(issuerPermissions[\"allowNewShareholders\"] && officers[msg.sender] || msg.sender == owner);\n\n    newShareholdersAllowed = allow;\n    NewShareholdersAllowance(allow);\n  }\n}\n",
  "sourcePath": "/opt/app/contracts/SettingsStorage.sol",
  "compiler": {
    "name": "solc",
    "version": "0.4.24+commit.e67f0147.Emscripten.clang"
  },
  "schemaVersion": "2.0.1",
  "updatedAt": "2018-08-29T16:25:23.421Z"
}