{
  "contractName": "SettingsStorage",
  "abi": [
    {
      "constant": true,
      "inputs": [
        {
          "name": "",
          "type": "address"
        }
      ],
      "name": "officers",
      "outputs": [
        {
          "name": "",
          "type": "bool"
        }
      ],
      "payable": false,
      "stateMutability": "view",
      "type": "function"
    },
    {
      "constant": true,
      "inputs": [],
      "name": "newShareholdersAllowed",
      "outputs": [
        {
          "name": "",
          "type": "bool"
        }
      ],
      "payable": false,
      "stateMutability": "view",
      "type": "function"
    },
    {
      "constant": true,
      "inputs": [],
      "name": "initialOfferEndDate",
      "outputs": [
        {
          "name": "",
          "type": "uint256"
        }
      ],
      "payable": false,
      "stateMutability": "view",
      "type": "function"
    },
    {
      "constant": true,
      "inputs": [],
      "name": "messagingAddress",
      "outputs": [
        {
          "name": "",
          "type": "string"
        }
      ],
      "payable": false,
      "stateMutability": "view",
      "type": "function"
    },
    {
      "constant": true,
      "inputs": [],
      "name": "tokenOwner",
      "outputs": [
        {
          "name": "",
          "type": "address"
        }
      ],
      "payable": false,
      "stateMutability": "view",
      "type": "function"
    },
    {
      "constant": true,
      "inputs": [],
      "name": "locked",
      "outputs": [
        {
          "name": "",
          "type": "bool"
        }
      ],
      "payable": false,
      "stateMutability": "view",
      "type": "function"
    },
    {
      "inputs": [],
      "payable": false,
      "stateMutability": "nonpayable",
      "type": "constructor"
    },
    {
      "anonymous": false,
      "inputs": [
        {
          "indexed": false,
          "name": "locked",
          "type": "bool"
        }
      ],
      "name": "LogLockSet",
      "type": "event"
    },
    {
      "anonymous": false,
      "inputs": [
        {
          "indexed": false,
          "name": "enabled",
          "type": "bool"
        }
      ],
      "name": "LogPartialTransferSet",
      "type": "event"
    },
    {
      "anonymous": false,
      "inputs": [
        {
          "indexed": false,
          "name": "_date",
          "type": "uint256"
        }
      ],
      "name": "InititalOfferEndDateSet",
      "type": "event"
    },
    {
      "anonymous": false,
      "inputs": [
        {
          "indexed": false,
          "name": "whitelist",
          "type": "address"
        }
      ],
      "name": "WhitelistAdded",
      "type": "event"
    },
    {
      "anonymous": false,
      "inputs": [
        {
          "indexed": false,
          "name": "whitelist",
          "type": "address"
        }
      ],
      "name": "WhitelistRemoved",
      "type": "event"
    },
    {
      "anonymous": false,
      "inputs": [
        {
          "indexed": false,
          "name": "whitelist",
          "type": "address"
        }
      ],
      "name": "RegulationDWhitelistSet",
      "type": "event"
    },
    {
      "anonymous": false,
      "inputs": [
        {
          "indexed": false,
          "name": "_officer",
          "type": "address"
        }
      ],
      "name": "OfficerAdded",
      "type": "event"
    },
    {
      "anonymous": false,
      "inputs": [
        {
          "indexed": false,
          "name": "_officer",
          "type": "address"
        }
      ],
      "name": "OfficerRemoved",
      "type": "event"
    },
    {
      "anonymous": false,
      "inputs": [
        {
          "indexed": false,
          "name": "_address",
          "type": "string"
        }
      ],
      "name": "MessagingAddressSet",
      "type": "event"
    },
    {
      "anonymous": false,
      "inputs": [
        {
          "indexed": false,
          "name": "allow",
          "type": "bool"
        }
      ],
      "name": "NewShareholdersAllowance",
      "type": "event"
    },
    {
      "constant": false,
      "inputs": [
        {
          "name": "_owner",
          "type": "address"
        }
      ],
      "name": "setTokenOwner",
      "outputs": [],
      "payable": false,
      "stateMutability": "nonpayable",
      "type": "function"
    },
    {
      "constant": false,
      "inputs": [
        {
          "name": "permission",
          "type": "string"
        },
        {
          "name": "setting",
          "type": "bool"
        }
      ],
      "name": "setIssuerPermission",
      "outputs": [],
      "payable": false,
      "stateMutability": "nonpayable",
      "type": "function"
    },
    {
      "constant": false,
      "inputs": [
        {
          "name": "_locked",
          "type": "bool"
        }
      ],
      "name": "setLocked",
      "outputs": [],
      "payable": false,
      "stateMutability": "nonpayable",
      "type": "function"
    },
    {
      "constant": true,
      "inputs": [],
      "name": "getWhitelists",
      "outputs": [
        {
          "name": "",
          "type": "address[]"
        }
      ],
      "payable": false,
      "stateMutability": "view",
      "type": "function"
    },
    {
      "constant": false,
      "inputs": [
        {
          "name": "_whitelist",
          "type": "address"
        }
      ],
      "name": "addWhitelist",
      "outputs": [],
      "payable": false,
      "stateMutability": "nonpayable",
      "type": "function"
    },
    {
      "constant": false,
      "inputs": [
        {
          "name": "_whitelist",
          "type": "address"
        }
      ],
      "name": "removeWhitelist",
      "outputs": [],
      "payable": false,
      "stateMutability": "nonpayable",
      "type": "function"
    },
    {
      "constant": true,
      "inputs": [
        {
          "name": "_address",
          "type": "address"
        }
      ],
      "name": "isWhiteListed",
      "outputs": [
        {
          "name": "",
          "type": "bool"
        },
        {
          "name": "",
          "type": "string"
        }
      ],
      "payable": false,
      "stateMutability": "view",
      "type": "function"
    },
    {
      "constant": false,
      "inputs": [
        {
          "name": "_date",
          "type": "uint256"
        }
      ],
      "name": "setInititalOfferEndDate",
      "outputs": [],
      "payable": false,
      "stateMutability": "nonpayable",
      "type": "function"
    },
    {
      "constant": false,
      "inputs": [
        {
          "name": "_officer",
          "type": "address"
        }
      ],
      "name": "addOfficer",
      "outputs": [],
      "payable": false,
      "stateMutability": "nonpayable",
      "type": "function"
    },
    {
      "constant": false,
      "inputs": [
        {
          "name": "_officer",
          "type": "address"
        }
      ],
      "name": "removeOfficer",
      "outputs": [],
      "payable": false,
      "stateMutability": "nonpayable",
      "type": "function"
    },
    {
      "constant": false,
      "inputs": [
        {
          "name": "_address",
          "type": "string"
        }
      ],
      "name": "setMessagingAddress",
      "outputs": [],
      "payable": false,
      "stateMutability": "nonpayable",
      "type": "function"
    },
    {
      "constant": false,
      "inputs": [
        {
          "name": "allow",
          "type": "bool"
        }
      ],
      "name": "allowNewShareholders",
      "outputs": [],
      "payable": false,
      "stateMutability": "nonpayable",
      "type": "function"
    }
  ],
  "bytecode": "0x608060405234801561001057600080fd5b5033600460006101000a81548173ffffffffffffffffffffffffffffffffffffffff021916908373ffffffffffffffffffffffffffffffffffffffff160217905550611d16806100616000396000f3006080604052600436106100fc576000357c0100000000000000000000000000000000000000000000000000000000900463ffffffff168063084866dd146101015780630eed3f9f1461015c57806318e02bd9146101c5578063211e28b6146102085780632500cbfd1461023757806358da66c81461026657806369c385df146102db5780636f9170f614610306578063719a0f8c146103cd57806378c8cda714610410578063807071d014610453578063865ed63e146104e3578063a3e6761014610512578063c35dcf9014610569578063cf309012146105d5578063d9803cb214610604578063f3065dac14610647578063f80f5dd514610674575b600080fd5b34801561010d57600080fd5b50610142600480360381019080803573ffffffffffffffffffffffffffffffffffffffff1690602001909291905050506106b7565b604051808215151515815260200191505060405180910390f35b34801561016857600080fd5b506101c3600480360381019080803590602001908201803590602001908080601f01602080910402602001604051908101604052809392919081815260200183838082843782019150505050505091929192905050506106d7565b005b3480156101d157600080fd5b50610206600480360381019080803573ffffffffffffffffffffffffffffffffffffffff169060200190929190505050610891565b005b34801561021457600080fd5b506102356004803603810190808035151590602001909291905050506109c1565b005b34801561024357600080fd5b5061024c610b1c565b604051808215151515815260200191505060405180910390f35b34801561027257600080fd5b506102d9600480360381019080803590602001908201803590602001908080601f0160208091040260200160405190810160405280939291908181526020018383808284378201915050505050509192919290803515159060200190929190505050610b2f565b005b3480156102e757600080fd5b506102f0610c12565b6040518082815260200191505060405180910390f35b34801561031257600080fd5b50610347600480360381019080803573ffffffffffffffffffffffffffffffffffffffff169060200190929190505050610c18565b604051808315151515815260200180602001828103825283818151815260200191508051906020019080838360005b83811015610391578082015181840152602081019050610376565b50505050905090810190601f1680156103be5780820380516001836020036101000a031916815260200191505b50935050505060405180910390f35b3480156103d957600080fd5b5061040e600480360381019080803573ffffffffffffffffffffffffffffffffffffffff169060200190929190505050610eaa565b005b34801561041c57600080fd5b50610451600480360381019080803573ffffffffffffffffffffffffffffffffffffffff169060200190929190505050611050565b005b34801561045f57600080fd5b50610468611293565b6040518080602001828103825283818151815260200191508051906020019080838360005b838110156104a857808201518184015260208101905061048d565b50505050905090810190601f1680156104d55780820380516001836020036101000a031916815260200191505b509250505060405180910390f35b3480156104ef57600080fd5b50610510600480360381019080803515159060200190929190505050611331565b005b34801561051e57600080fd5b5061052761148d565b604051808273ffffffffffffffffffffffffffffffffffffffff1673ffffffffffffffffffffffffffffffffffffffff16815260200191505060405180910390f35b34801561057557600080fd5b5061057e6114b3565b6040518080602001828103825283818151815260200191508051906020019060200280838360005b838110156105c15780820151818401526020810190506105a6565b505050509050019250505060405180910390f35b3480156105e157600080fd5b506105ea611541565b604051808215151515815260200191505060405180910390f35b34801561061057600080fd5b50610645600480360381019080803573ffffffffffffffffffffffffffffffffffffffff169060200190929190505050611553565b005b34801561065357600080fd5b50610672600480360381019080803590602001909291905050506116f9565b005b34801561068057600080fd5b506106b5600480360381019080803573ffffffffffffffffffffffffffffffffffffffff16906020019092919050505061183e565b005b60016020528060005260406000206000915054906101000a900460ff1681565b600660405180807f7365744d6573736167696e6741646472657373000000000000000000000000008152506013019050908152602001604051809103902060009054906101000a900460ff1680156107785750600160003373ffffffffffffffffffffffffffffffffffffffff1673ffffffffffffffffffffffffffffffffffffffff16815260200190815260200160002060009054906101000a900460ff165b806107d05750600460009054906101000a900473ffffffffffffffffffffffffffffffffffffffff1673ffffffffffffffffffffffffffffffffffffffff163373ffffffffffffffffffffffffffffffffffffffff16145b15156107db57600080fd5b80600390805190602001906107f1929190611c19565b507f827f513c0402b7e2c74297f5ab29c1608819df765bacf6bbe760706642f0bcf4816040518080602001828103825283818151815260200191508051906020019080838360005b83811015610854578082015181840152602081019050610839565b50505050905090810190601f1680156108815780820380516001836020036101000a031916815260200191505b509250505060405180910390a150565b600073ffffffffffffffffffffffffffffffffffffffff168173ffffffffffffffffffffffffffffffffffffffff16141515156108cd57600080fd5b600160003373ffffffffffffffffffffffffffffffffffffffff1673ffffffffffffffffffffffffffffffffffffffff16815260200190815260200160002060009054906101000a900460ff16806109725750600460009054906101000a900473ffffffffffffffffffffffffffffffffffffffff1673ffffffffffffffffffffffffffffffffffffffff163373ffffffffffffffffffffffffffffffffffffffff16145b151561097d57600080fd5b80600460006101000a81548173ffffffffffffffffffffffffffffffffffffffff021916908373ffffffffffffffffffffffffffffffffffffffff16021790555050565b600660405180807f7365744c6f636b656400000000000000000000000000000000000000000000008152506009019050908152602001604051809103902060009054906101000a900460ff168015610a625750600160003373ffffffffffffffffffffffffffffffffffffffff1673ffffffffffffffffffffffffffffffffffffffff16815260200190815260200160002060009054906101000a900460ff165b80610aba5750600460009054906101000a900473ffffffffffffffffffffffffffffffffffffffff1673ffffffffffffffffffffffffffffffffffffffff163373ffffffffffffffffffffffffffffffffffffffff16145b1515610ac557600080fd5b806000806101000a81548160ff0219169083151502179055507f05bf206e40ba001f44679b0460da2d1e1b62f43d9326c71badd4823e2220b47d81604051808215151515815260200191505060405180910390a150565b600060019054906101000a900460ff1681565b600460009054906101000a900473ffffffffffffffffffffffffffffffffffffffff1673ffffffffffffffffffffffffffffffffffffffff163373ffffffffffffffffffffffffffffffffffffffff16141515610b8b57600080fd5b806006836040518082805190602001908083835b602083101515610bc45780518252602082019150602081019050602083039250610b9f565b6001836020036101000a038019825116818451168082178552505050505050905001915050908152602001604051809103902060006101000a81548160ff0219169083151502179055505050565b60025481565b6000606060008090505b600580549050811015610e8c57600581815481101515610c3e57fe5b9060005260206000200160009054906101000a900473ffffffffffffffffffffffffffffffffffffffff1673ffffffffffffffffffffffffffffffffffffffff166363a9c3d7856040518263ffffffff167c0100000000000000000000000000000000000000000000000000000000028152600401808273ffffffffffffffffffffffffffffffffffffffff1673ffffffffffffffffffffffffffffffffffffffff168152602001915050602060405180830381600087803b158015610d0357600080fd5b505af1158015610d17573d6000803e3d6000fd5b505050506040513d6020811015610d2d57600080fd5b810190808051906020019092919050505015610e7f576001600582815481101515610d5457fe5b9060005260206000200160009054906101000a900473ffffffffffffffffffffffffffffffffffffffff1673ffffffffffffffffffffffffffffffffffffffff1663a4d0d5a96040518163ffffffff167c0100000000000000000000000000000000000000000000000000000000028152600401600060405180830381600087803b158015610de257600080fd5b505af1158015610df6573d6000803e3d6000fd5b505050506040513d6000823e3d601f19601f820116820180604052506020811015610e2057600080fd5b810190808051640100000000811115610e3857600080fd5b82810190506020810184811115610e4e57600080fd5b8151856001820283011164010000000082111715610e6b57600080fd5b505092919050505080905092509250610ea4565b8080600101915050610c22565b60006020604051908101604052806000815250925092505b50915091565b600160003373ffffffffffffffffffffffffffffffffffffffff1673ffffffffffffffffffffffffffffffffffffffff16815260200190815260200160002060009054906101000a900460ff168015610f305750600073ffffffffffffffffffffffffffffffffffffffff168173ffffffffffffffffffffffffffffffffffffffff1614155b80610f885750600460009054906101000a900473ffffffffffffffffffffffffffffffffffffffff1673ffffffffffffffffffffffffffffffffffffffff163373ffffffffffffffffffffffffffffffffffffffff16145b1515610f9357600080fd5b60018060008373ffffffffffffffffffffffffffffffffffffffff1673ffffffffffffffffffffffffffffffffffffffff16815260200190815260200160002060006101000a81548160ff0219169083151502179055507fc71ac73682f965d639a2f97202d5b162f5ea75f1ef0e933bad7f1db870a4c25481604051808273ffffffffffffffffffffffffffffffffffffffff1673ffffffffffffffffffffffffffffffffffffffff16815260200191505060405180910390a150565b60008073ffffffffffffffffffffffffffffffffffffffff168273ffffffffffffffffffffffffffffffffffffffff161415151561108d57600080fd5b600660405180807f72656d6f766557686974656c6973740000000000000000000000000000000000815250600f019050908152602001604051809103902060009054906101000a900460ff16801561112e5750600160003373ffffffffffffffffffffffffffffffffffffffff1673ffffffffffffffffffffffffffffffffffffffff16815260200190815260200160002060009054906101000a900460ff165b806111865750600460009054906101000a900473ffffffffffffffffffffffffffffffffffffffff1673ffffffffffffffffffffffffffffffffffffffff163373ffffffffffffffffffffffffffffffffffffffff16145b151561119157600080fd5b600090505b60058054905081101561128e578173ffffffffffffffffffffffffffffffffffffffff166005828154811015156111c957fe5b9060005260206000200160009054906101000a900473ffffffffffffffffffffffffffffffffffffffff1673ffffffffffffffffffffffffffffffffffffffff1614156112815761121981611af0565b7fde8cf212af7ce38b2840785a2768d97ff2dbf3c21b516961cec0061e134c2a1e82604051808273ffffffffffffffffffffffffffffffffffffffff1673ffffffffffffffffffffffffffffffffffffffff16815260200191505060405180910390a161128f565b8080600101915050611196565b5b5050565b60038054600181600116156101000203166002900480601f0160208091040260200160405190810160405280929190818152602001828054600181600116156101000203166002900480156113295780601f106112fe57610100808354040283529160200191611329565b820191906000526020600020905b81548152906001019060200180831161130c57829003601f168201915b505050505081565b600660405180807f616c6c6f774e65775368617265686f6c646572730000000000000000000000008152506014019050908152602001604051809103902060009054906101000a900460ff1680156113d25750600160003373ffffffffffffffffffffffffffffffffffffffff1673ffffffffffffffffffffffffffffffffffffffff16815260200190815260200160002060009054906101000a900460ff165b8061142a5750600460009054906101000a900473ffffffffffffffffffffffffffffffffffffffff1673ffffffffffffffffffffffffffffffffffffffff163373ffffffffffffffffffffffffffffffffffffffff16145b151561143557600080fd5b80600060016101000a81548160ff0219169083151502179055507f72ac31df7bbe575a23cb17b22ddf6b96ae0b018687ae58247202e94b7842ebad81604051808215151515815260200191505060405180910390a150565b600460009054906101000a900473ffffffffffffffffffffffffffffffffffffffff1681565b6060600580548060200260200160405190810160405280929190818152602001828054801561153757602002820191906000526020600020905b8160009054906101000a900473ffffffffffffffffffffffffffffffffffffffff1673ffffffffffffffffffffffffffffffffffffffff16815260200190600101908083116114ed575b5050505050905090565b6000809054906101000a900460ff1681565b600160003373ffffffffffffffffffffffffffffffffffffffff1673ffffffffffffffffffffffffffffffffffffffff16815260200190815260200160002060009054906101000a900460ff1680156115d95750600073ffffffffffffffffffffffffffffffffffffffff168173ffffffffffffffffffffffffffffffffffffffff1614155b806116315750600460009054906101000a900473ffffffffffffffffffffffffffffffffffffffff1673ffffffffffffffffffffffffffffffffffffffff163373ffffffffffffffffffffffffffffffffffffffff16145b151561163c57600080fd5b60018060008373ffffffffffffffffffffffffffffffffffffffff1673ffffffffffffffffffffffffffffffffffffffff16815260200190815260200160002060006101000a81548160ff0219169083151502179055507f0a5e350574f3293d09c9df68b92156ccec15be9e07b6cab9616ec2b486d2a4d981604051808273ffffffffffffffffffffffffffffffffffffffff1673ffffffffffffffffffffffffffffffffffffffff16815260200191505060405180910390a150565b600660405180807f736574496e69746974616c4f66666572456e64446174650000000000000000008152506017019050908152602001604051809103902060009054906101000a900460ff16801561179a5750600160003373ffffffffffffffffffffffffffffffffffffffff1673ffffffffffffffffffffffffffffffffffffffff16815260200190815260200160002060009054906101000a900460ff165b806117f25750600460009054906101000a900473ffffffffffffffffffffffffffffffffffffffff1673ffffffffffffffffffffffffffffffffffffffff163373ffffffffffffffffffffffffffffffffffffffff16145b15156117fd57600080fd5b806002819055507fc2e7181d064be2909b07bcba7a1f8bb1dc0ce1261d5fdbbce2358b8bf6f7d5a8816040518082815260200191505060405180910390a150565b600080600073ffffffffffffffffffffffffffffffffffffffff168373ffffffffffffffffffffffffffffffffffffffff161415151561187d57600080fd5b600660405180807f61646457686974656c6973740000000000000000000000000000000000000000815250600c019050908152602001604051809103902060009054906101000a900460ff16801561191e5750600160003373ffffffffffffffffffffffffffffffffffffffff1673ffffffffffffffffffffffffffffffffffffffff16815260200190815260200160002060009054906101000a900460ff165b806119765750600460009054906101000a900473ffffffffffffffffffffffffffffffffffffffff1673ffffffffffffffffffffffffffffffffffffffff163373ffffffffffffffffffffffffffffffffffffffff16145b151561198157600080fd5b60009150600090505b600580549050811015611a1a578273ffffffffffffffffffffffffffffffffffffffff166005828154811015156119bd57fe5b9060005260206000200160009054906101000a900473ffffffffffffffffffffffffffffffffffffffff1673ffffffffffffffffffffffffffffffffffffffff161415611a0d5760019150611a1a565b808060010191505061198a565b811515611aeb5760058390806001815401808255809150509060018203906000526020600020016000909192909190916101000a81548173ffffffffffffffffffffffffffffffffffffffff021916908373ffffffffffffffffffffffffffffffffffffffff160217905550507f4790a4adb426ca2345bb5108f6e454eae852a7bf687544cd66a7270dff3a41d683604051808273ffffffffffffffffffffffffffffffffffffffff1673ffffffffffffffffffffffffffffffffffffffff16815260200191505060405180910390a15b505050565b600060058054905082101515611b0557611c15565b8190505b600160058054905003811015611bba57600560018201815481101515611b2b57fe5b9060005260206000200160009054906101000a900473ffffffffffffffffffffffffffffffffffffffff16600582815481101515611b6557fe5b9060005260206000200160006101000a81548173ffffffffffffffffffffffffffffffffffffffff021916908373ffffffffffffffffffffffffffffffffffffffff1602179055508080600101915050611b09565b6005600160058054905003815481101515611bd157fe5b9060005260206000200160006101000a81549073ffffffffffffffffffffffffffffffffffffffff02191690556005805480919060019003611c139190611c99565b505b5050565b828054600181600116156101000203166002900490600052602060002090601f016020900481019282601f10611c5a57805160ff1916838001178555611c88565b82800160010185558215611c88579182015b82811115611c87578251825591602001919060010190611c6c565b5b509050611c959190611cc5565b5090565b815481835581811115611cc057818360005260206000209182019101611cbf9190611cc5565b5b505050565b611ce791905b80821115611ce3576000816000905550600101611ccb565b5090565b905600a165627a7a72305820ebb933ca28409c810305023b42e7e2a153ff28f5fd528b6cb568aa2e8ada890a0029",
  "source": "pragma solidity ^0.4.18;\n\nimport \"./IssuanceWhiteList.sol\";\nimport \"./interfaces/ISettingsStorage.sol\";\n\ncontract SettingsStorage is ISettingsStorage {\n\n  /**\n    * @dev Toggle for locking/unlocking trades at a token level.\n    *      The default behavior of the zero memory state for locking will be unlocked.\n    */\n  bool public locked;\n\n  /// @dev Toggle for allowing/disallowing new shareholders\n  bool public newShareholdersAllowed;\n\n  /// @dev Issuers of the token\n  mapping(address => bool) public officers;\n\n  /// @dev Initial offering end date\n  uint256 public initialOfferEndDate;\n\n  /// @dev Messaging address\n  string public messagingAddress;\n\n  /// @dev Owner of the Regulated Token\n  address public tokenOwner;\n\n  /// @dev Array of whitelists\n  IssuanceWhiteList[] whitelists;\n\n  mapping(string => bool) issuerPermissions;\n\n  /**\n   * @notice Constructor\n   */\n  constructor () public {\n    tokenOwner = msg.sender;\n  }\n\n  function setTokenOwner(address _owner) public {\n    require(_owner != address(0));\n    require(officers[msg.sender] || msg.sender == tokenOwner);\n\n    tokenOwner = _owner;\n  }\n\n  function setIssuerPermission(string permission, bool setting) public {\n    require (msg.sender == tokenOwner);\n\n    issuerPermissions[permission] = setting;\n  }\n\n  /**\n   * @notice Locks the ability to trade a token\n   *\n   * @dev    This method can only be called by this contract's issuer\n   *\n   * @param  _locked True for lock the token\n   */\n  function setLocked(bool _locked) public {\n    require(issuerPermissions[\"setLocked\"] && officers[msg.sender] || msg.sender == tokenOwner);\n\n    locked = _locked;\n    LogLockSet(_locked);\n  }\n\n  /**\n   * @notice Get whitelists\n   *\n   * @return IssuanceWhiteList[] Array of whitelists\n   */\n  function getWhitelists() view public returns (IssuanceWhiteList[]) {\n    return whitelists;\n  }\n\n  function addWhitelist(IssuanceWhiteList _whitelist) public {\n    //check that we don't pass an empty list\n    require(_whitelist != address(0));\n    require(issuerPermissions[\"addWhitelist\"] && officers[msg.sender] || msg.sender == tokenOwner);\n\n    bool contains = false;\n\n    //Loop through array to see if the whitelist is present\n    for (uint256 i = 0; i < whitelists.length; i++) {\n      if (whitelists[i] == _whitelist) {\n\n        //if it is, change the value of contains and stop\n        contains = true;\n        break;\n      }\n    }\n\n    //if not, push it into the array\n    if (!contains) {\n      whitelists.push(_whitelist);\n      WhitelistAdded(_whitelist);\n    }\n  }\n\n  function removeWhitelist(IssuanceWhiteList _whitelist) public {\n    //check that we don't pass an empty list\n    require(_whitelist != address(0));\n    require(issuerPermissions[\"removeWhitelist\"] && officers[msg.sender] || msg.sender == tokenOwner);\n\n    //Loop through array to see if the whitelist is present\n    for (uint256 i = 0; i < whitelists.length; i++) {\n\n      //if we find it, we remove it from the list\n      if (whitelists[i] == _whitelist) {\n        remove(i);\n        WhitelistRemoved(_whitelist);\n        return;\n      }\n    }\n  }\n\n  function remove(uint256 index) private {\n    //check that the index doesn't exceed the list length\n    if (index >= whitelists.length)\n      return;\n\n    //move each list with one position on the left\n    for (uint256 i = index; i < whitelists.length-1; i++) {\n        whitelists[i] = whitelists[i+1];\n    }\n\n    //delete the last whitelist and decrease the array length\n    delete whitelists[whitelists.length-1];\n    whitelists.length--;\n  }\n\n  /**\n   * @notice Check if address is indeed in one of the whitelists\n   *\n   * @param _address Buyer to be added to whitelist\n   *\n   * @return True if buyer is added to whitelist, otherwise false\n   */\n  function isWhiteListed(address _address) view public returns (bool, string) {\n    for (uint256 i = 0; i < whitelists.length; i++) {\n      if (whitelists[i].verify(_address))\n        return (true, whitelists[i].whitelistType());\n    }\n    return (false, \"\");\n  }\n\n  /**\n   * @notice Set initial offering end date\n   *\n   * @param  _date Initial offering end date\n   */\n  function setInititalOfferEndDate(uint256 _date) public {\n    require(issuerPermissions[\"setInititalOfferEndDate\"] && officers[msg.sender] || msg.sender == tokenOwner);\n\n    initialOfferEndDate = _date;\n    InititalOfferEndDateSet(_date);\n  }\n\n  /**\n   * @notice Set officer of token\n   *\n   * @param  _officer Officer to be set\n   */\n  function addOfficer(address _officer) public {\n    require((officers[msg.sender] && _officer != address(0)) ||\n            msg.sender == tokenOwner);\n\n    officers[_officer] = true;\n    OfficerAdded(_officer);\n  }\n\n  /**\n   * @notice Remove officer of token\n   *\n   * @param  _officer Officer to be removed\n   */\n  function removeOfficer(address _officer) public {\n    require((officers[msg.sender] && _officer != address(0)) ||\n            msg.sender == tokenOwner);\n\n    officers[_officer] = true;\n    OfficerRemoved(_officer);\n  }\n\n  /**\n   * @notice Set messaging address\n   *\n   * @param  _address Messaging address to be set\n   */\n  function setMessagingAddress(string _address) public {\n    require(issuerPermissions[\"setMessagingAddress\"] && officers[msg.sender] || msg.sender == tokenOwner);\n\n    messagingAddress = _address;\n    MessagingAddressSet(_address);\n  }\n\n  /**\n   * @notice Allow/disallow new shareholders\n   *\n   * @param  allow Allow/disallow new shareholders\n   */\n  function allowNewShareholders(bool allow) public {\n    require(issuerPermissions[\"allowNewShareholders\"] && officers[msg.sender] || msg.sender == tokenOwner);\n\n    newShareholdersAllowed = allow;\n    NewShareholdersAllowance(allow);\n  }\n}\n",
  "sourcePath": "/home/jordan/workspace/aboveboard/AboveboardSecurityToken/contracts/SettingsStorage.sol",
  "compiler": {
    "name": "solc",
    "version": "0.4.24+commit.e67f0147.Emscripten.clang"
  },
  "schemaVersion": "2.0.1",
  "updatedAt": "2018-07-27T19:00:41.383Z"
}