{
  "contractName": "AboveboardRegDSWhitelistRegulatorService",
  "abi": [
    {
      "constant": true,
      "inputs": [],
      "name": "settingsStorage",
      "outputs": [
        {
          "name": "",
          "type": "address"
        }
      ],
      "payable": false,
      "stateMutability": "view",
      "type": "function"
    },
    {
      "constant": true,
      "inputs": [],
      "name": "owner",
      "outputs": [
        {
          "name": "",
          "type": "address"
        }
      ],
      "payable": false,
      "stateMutability": "view",
      "type": "function"
    },
    {
      "constant": false,
      "inputs": [
        {
          "name": "newOwner",
          "type": "address"
        }
      ],
      "name": "transferOwnership",
      "outputs": [],
      "payable": false,
      "stateMutability": "nonpayable",
      "type": "function"
    },
    {
      "inputs": [
        {
          "name": "_storage",
          "type": "address"
        }
      ],
      "payable": false,
      "stateMutability": "nonpayable",
      "type": "constructor"
    },
    {
      "anonymous": false,
      "inputs": [
        {
          "indexed": true,
          "name": "previousOwner",
          "type": "address"
        },
        {
          "indexed": true,
          "name": "newOwner",
          "type": "address"
        }
      ],
      "name": "OwnershipTransferred",
      "type": "event"
    },
    {
      "anonymous": false,
      "inputs": [
        {
          "indexed": false,
          "name": "oldStorage",
          "type": "address"
        },
        {
          "indexed": false,
          "name": "newStorage",
          "type": "address"
        }
      ],
      "name": "ReplaceStorage",
      "type": "event"
    },
    {
      "constant": false,
      "inputs": [
        {
          "name": "_token",
          "type": "address"
        },
        {
          "name": "_from",
          "type": "address"
        },
        {
          "name": "_to",
          "type": "address"
        },
        {
          "name": "_amount",
          "type": "uint256"
        }
      ],
      "name": "check",
      "outputs": [
        {
          "name": "",
          "type": "uint8"
        }
      ],
      "payable": false,
      "stateMutability": "nonpayable",
      "type": "function"
    },
    {
      "constant": false,
      "inputs": [
        {
          "name": "_token",
          "type": "address"
        },
        {
          "name": "_from",
          "type": "address"
        },
        {
          "name": "_to",
          "type": "address"
        },
        {
          "name": "_amount",
          "type": "uint256"
        }
      ],
      "name": "checkArbitrage",
      "outputs": [
        {
          "name": "",
          "type": "uint8"
        }
      ],
      "payable": false,
      "stateMutability": "nonpayable",
      "type": "function"
    },
    {
      "constant": false,
      "inputs": [
        {
          "name": "_storage",
          "type": "address"
        }
      ],
      "name": "replaceStorage",
      "outputs": [],
      "payable": false,
      "stateMutability": "nonpayable",
      "type": "function"
    }
  ],
  "bytecode": "0x608060405234801561001057600080fd5b506040516020806112d483398101806040528101908080519060200190929190505050336000806101000a81548173ffffffffffffffffffffffffffffffffffffffff021916908373ffffffffffffffffffffffffffffffffffffffff160217905550600073ffffffffffffffffffffffffffffffffffffffff168173ffffffffffffffffffffffffffffffffffffffff16141515156100af57600080fd5b80600160006101000a81548173ffffffffffffffffffffffffffffffffffffffff021916908373ffffffffffffffffffffffffffffffffffffffff160217905550506111d4806101006000396000f300608060405260043610610078576000357c0100000000000000000000000000000000000000000000000000000000900463ffffffff16806309d9aa071461007d5780634277b5b114610124578063505f65c3146101cb5780635332a857146102225780638da5cb5b14610265578063f2fde38b146102bc575b600080fd5b34801561008957600080fd5b50610108600480360381019080803573ffffffffffffffffffffffffffffffffffffffff169060200190929190803573ffffffffffffffffffffffffffffffffffffffff169060200190929190803573ffffffffffffffffffffffffffffffffffffffff169060200190929190803590602001909291905050506102ff565b604051808260ff1660ff16815260200191505060405180910390f35b34801561013057600080fd5b506101af600480360381019080803573ffffffffffffffffffffffffffffffffffffffff169060200190929190803573ffffffffffffffffffffffffffffffffffffffff169060200190929190803573ffffffffffffffffffffffffffffffffffffffff16906020019092919080359060200190929190505050610534565b604051808260ff1660ff16815260200191505060405180910390f35b3480156101d757600080fd5b506101e0610e92565b604051808273ffffffffffffffffffffffffffffffffffffffff1673ffffffffffffffffffffffffffffffffffffffff16815260200191505060405180910390f35b34801561022e57600080fd5b50610263600480360381019080803573ffffffffffffffffffffffffffffffffffffffff169060200190929190505050610eb8565b005b34801561027157600080fd5b5061027a61102e565b604051808273ffffffffffffffffffffffffffffffffffffffff1673ffffffffffffffffffffffffffffffffffffffff16815260200191505060405180910390f35b3480156102c857600080fd5b506102fd600480360381019080803573ffffffffffffffffffffffffffffffffffffffff169060200190929190505050611053565b005b6000806000600160009054906101000a900473ffffffffffffffffffffffffffffffffffffffff1673ffffffffffffffffffffffffffffffffffffffff1663084866dd336040518263ffffffff167c0100000000000000000000000000000000000000000000000000000000028152600401808273ffffffffffffffffffffffffffffffffffffffff1673ffffffffffffffffffffffffffffffffffffffff168152602001915050602060405180830381600087803b1580156103c157600080fd5b505af11580156103d5573d6000803e3d6000fd5b505050506040513d60208110156103eb57600080fd5b810190808051906020019092919050505091508673ffffffffffffffffffffffffffffffffffffffff16638da5cb5b6040518163ffffffff167c0100000000000000000000000000000000000000000000000000000000028152600401602060405180830381600087803b15801561046257600080fd5b505af1158015610476573d6000803e3d6000fd5b505050506040513d602081101561048c57600080fd5b810190808051906020019092919050505090508073ffffffffffffffffffffffffffffffffffffffff168573ffffffffffffffffffffffffffffffffffffffff16141580156104d9575081155b15610525578073ffffffffffffffffffffffffffffffffffffffff168573ffffffffffffffffffffffffffffffffffffffff1614151561051c576004925061052a565b6006925061052a565b600092505b5050949350505050565b60008060006060600060608973ffffffffffffffffffffffffffffffffffffffff16638da5cb5b6040518163ffffffff167c0100000000000000000000000000000000000000000000000000000000028152600401602060405180830381600087803b1580156105a357600080fd5b505af11580156105b7573d6000803e3d6000fd5b505050506040513d60208110156105cd57600080fd5b810190808051906020019092919050505073ffffffffffffffffffffffffffffffffffffffff168973ffffffffffffffffffffffffffffffffffffffff1614806106e057508973ffffffffffffffffffffffffffffffffffffffff16638da5cb5b6040518163ffffffff167c0100000000000000000000000000000000000000000000000000000000028152600401602060405180830381600087803b15801561067657600080fd5b505af115801561068a573d6000803e3d6000fd5b505050506040513d60208110156106a057600080fd5b810190808051906020019092919050505073ffffffffffffffffffffffffffffffffffffffff168873ffffffffffffffffffffffffffffffffffffffff16145b9450600160009054906101000a900473ffffffffffffffffffffffffffffffffffffffff1673ffffffffffffffffffffffffffffffffffffffff1663cf3090126040518163ffffffff167c0100000000000000000000000000000000000000000000000000000000028152600401602060405180830381600087803b15801561076857600080fd5b505af115801561077c573d6000803e3d6000fd5b505050506040513d602081101561079257600080fd5b810190808051906020019092919050505080156107ad575084155b156107bb5760019550610e85565b600160009054906101000a900473ffffffffffffffffffffffffffffffffffffffff1673ffffffffffffffffffffffffffffffffffffffff16632500cbfd6040518163ffffffff167c0100000000000000000000000000000000000000000000000000000000028152600401602060405180830381600087803b15801561084157600080fd5b505af1158015610855573d6000803e3d6000fd5b505050506040513d602081101561086b57600080fd5b810190808051906020019092919050505015801561095e575060008a73ffffffffffffffffffffffffffffffffffffffff166370a082318a6040518263ffffffff167c0100000000000000000000000000000000000000000000000000000000028152600401808273ffffffffffffffffffffffffffffffffffffffff1673ffffffffffffffffffffffffffffffffffffffff168152602001915050602060405180830381600087803b15801561092157600080fd5b505af1158015610935573d6000803e3d6000fd5b505050506040513d602081101561094b57600080fd5b8101908080519060200190929190505050145b8015610968575084155b156109765760029550610e85565b600160009054906101000a900473ffffffffffffffffffffffffffffffffffffffff1673ffffffffffffffffffffffffffffffffffffffff16636f9170f68a6040518263ffffffff167c0100000000000000000000000000000000000000000000000000000000028152600401808273ffffffffffffffffffffffffffffffffffffffff1673ffffffffffffffffffffffffffffffffffffffff168152602001915050600060405180830381600087803b158015610a3357600080fd5b505af1158015610a47573d6000803e3d6000fd5b505050506040513d6000823e3d601f19601f820116820180604052506040811015610a7157600080fd5b81019080805190602001909291908051640100000000811115610a9357600080fd5b82810190506020810184811115610aa957600080fd5b8151856001820283011164010000000082111715610ac657600080fd5b50509291905050508094508195505050600160009054906101000a900473ffffffffffffffffffffffffffffffffffffffff1673ffffffffffffffffffffffffffffffffffffffff16636f9170f6896040518263ffffffff167c0100000000000000000000000000000000000000000000000000000000028152600401808273ffffffffffffffffffffffffffffffffffffffff1673ffffffffffffffffffffffffffffffffffffffff168152602001915050600060405180830381600087803b158015610b9357600080fd5b505af1158015610ba7573d6000803e3d6000fd5b505050506040513d6000823e3d601f19601f820116820180604052506040811015610bd157600080fd5b81019080805190602001909291908051640100000000811115610bf357600080fd5b82810190506020810184811115610c0957600080fd5b8151856001820283011164010000000082111715610c2657600080fd5b5050929190505050809250819350505081158015610c42575084155b15610c505760049550610e85565b60405180807f52656744000000000000000000000000000000000000000000000000000000008152506004019050604051809103902060001916816040518082805190602001908083835b602083101515610cc05780518252602082019150602081019050602083039250610c9b565b6001836020036101000a038019825116818451168082178552505050505050905001915050604051809103902060001916148015610dbd5750600160009054906101000a900473ffffffffffffffffffffffffffffffffffffffff1673ffffffffffffffffffffffffffffffffffffffff166369c385df6040518163ffffffff167c0100000000000000000000000000000000000000000000000000000000028152600401602060405180830381600087803b158015610d7f57600080fd5b505af1158015610d93573d6000803e3d6000fd5b505050506040513d6020811015610da957600080fd5b810190808051906020019092919050505042105b8015610dc7575084155b8015610e72575060405180807f71696200000000000000000000000000000000000000000000000000000000008152506003019050604051809103902060001916836040518082805190602001908083835b602083101515610e3e5780518252602082019150602081019050602083039250610e19565b6001836020036101000a03801982511681845116808217855250505050505090500191505060405180910390206000191614155b15610e805760059550610e85565b600095505b5050505050949350505050565b600160009054906101000a900473ffffffffffffffffffffffffffffffffffffffff1681565b60008060009054906101000a900473ffffffffffffffffffffffffffffffffffffffff1673ffffffffffffffffffffffffffffffffffffffff163373ffffffffffffffffffffffffffffffffffffffff16141515610f1557600080fd5b816000813b9050600081111515610f2b57600080fd5b600160009054906101000a900473ffffffffffffffffffffffffffffffffffffffff16925083600160006101000a81548173ffffffffffffffffffffffffffffffffffffffff021916908373ffffffffffffffffffffffffffffffffffffffff1602179055507fd837af80c7c7256ef44a7c5febba0827c80ece6c6ba3cb50fb007937aef599988385604051808373ffffffffffffffffffffffffffffffffffffffff1673ffffffffffffffffffffffffffffffffffffffff1681526020018273ffffffffffffffffffffffffffffffffffffffff1673ffffffffffffffffffffffffffffffffffffffff1681526020019250505060405180910390a150505050565b6000809054906101000a900473ffffffffffffffffffffffffffffffffffffffff1681565b6000809054906101000a900473ffffffffffffffffffffffffffffffffffffffff1673ffffffffffffffffffffffffffffffffffffffff163373ffffffffffffffffffffffffffffffffffffffff161415156110ae57600080fd5b600073ffffffffffffffffffffffffffffffffffffffff168173ffffffffffffffffffffffffffffffffffffffff16141515156110ea57600080fd5b8073ffffffffffffffffffffffffffffffffffffffff166000809054906101000a900473ffffffffffffffffffffffffffffffffffffffff1673ffffffffffffffffffffffffffffffffffffffff167f8be0079c531659141344cd1fd0a4f28419497f9722a3daafe3b4186f6b6457e060405160405180910390a3806000806101000a81548173ffffffffffffffffffffffffffffffffffffffff021916908373ffffffffffffffffffffffffffffffffffffffff160217905550505600a165627a7a7230582034ca1d9ae239a644611c62a37d95b917321767a1ee1847e496caf82c83ce34680029",
  "source": "pragma solidity ^0.4.18;\r\n\r\nimport \"./zeppelin-solidity/contracts/ownership/Ownable.sol\";\r\nimport \"./zeppelin-solidity/contracts/token/ERC20/MintableToken.sol\";\r\nimport \"./interfaces/WhiteList.sol\";\r\nimport \"./interfaces/IRegulatorService.sol\";\r\nimport \"./SettingsStorage.sol\";\r\n\r\n/// @notice Standard interface for `RegulatorService`s\r\ncontract AboveboardRegDSWhitelistRegulatorService is IRegulatorService, Ownable {\r\n\r\n  SettingsStorage public settingsStorage;\r\n\r\n  // @dev Check success code\r\n  uint8 constant private CHECK_SUCCESS = 0;\r\n\r\n  // @dev Check error reason: Token is locked\r\n  uint8 constant private CHECK_ELOCKED = 1;\r\n\r\n  // @dev Check error reason: New shareholders are not allowed\r\n  uint8 constant private CHECK_ERALLOW = 2;\r\n\r\n  // @dev Check error reason: Sender is not allowed to send the token\r\n  uint8 constant private CHECK_ESEND = 3;\r\n\r\n  // @dev Check error reason: Receiver is not allowed to receive the token\r\n  uint8 constant private CHECK_ERECV = 4;\r\n\r\n  // @dev Check error reason: Transfer before initial offering end date\r\n  uint8 constant private CHECK_ERREGD = 5;\r\n\r\n  // @dev Check error reason: Sender is not officer\r\n  uint8 constant private CHECK_EROFF = 6;\r\n\r\n  /**\r\n   * @dev Validate contract address\r\n   * Credit: https://github.com/Dexaran/ERC223-token-standard/blob/Recommended/ERC223_Token.sol#L107-L114\r\n   *\r\n   * @param _addr The address of a smart contract\r\n   */\r\n  modifier withContract(address _addr) {\r\n    uint length;\r\n    assembly { length := extcodesize(_addr) }\r\n    require(length > 0);\r\n    _;\r\n  }\r\n\r\n  /**\r\n   * @notice Constructor\r\n   * @param _storage The address of the `SettingsStorage`\r\n   */\r\n  constructor (address _storage) public {\r\n    require(_storage != address(0));\r\n    settingsStorage = SettingsStorage(_storage);\r\n  }\r\n\r\n  /*\r\n   * @notice This method *MUST* be called by `RegulatedToken`s during `transfer()` and `transferFrom()`.\r\n   *         The implementation *SHOULD* check whether or not a transfer can be approved.\r\n   *\r\n   * @dev    This method *MAY* call back to the token contract specified by `_token` for\r\n   *         more information needed to enforce trade approval.\r\n   *\r\n   * @param  _from The address of the sender account\r\n   * @param  _to The address of the receiver account\r\n   * @param  _amount The quantity of the token to trade\r\n   *\r\n   * @return uint8 The reason code: 0 means success.  Non-zero values are left to the implementation\r\n   *               to assign meaning.\r\n   */\r\n  function check(address _token, address _from, address _to, uint256 _amount) public returns (uint8) {\r\n    bool isCompany = _from == MintableToken(_token).owner() || _to == MintableToken(_token).owner();\r\n\r\n    // trading is locked, can transfer to or from company account\r\n    if (settingsStorage.locked() && !isCompany) {\r\n      return CHECK_ELOCKED;\r\n    }\r\n\r\n    // if newShareholdersAllowed is not enabled, the transfer will only succeed if the buyer already has tokens or tranfers to or from company account\r\n    if (!settingsStorage.newShareholdersAllowed() && MintableToken(_token).balanceOf(_to) == 0 && !isCompany) {\r\n      return CHECK_ERALLOW;\r\n    }\r\n\r\n    bool f;\r\n    string memory wlFrom;\r\n    (f, wlFrom) = settingsStorage.isWhiteListed(_from);\r\n\r\n    bool t;\r\n    string memory wlTo;\r\n    (t, wlTo) = settingsStorage.isWhiteListed(_to);\r\n\r\n    if (!t && !isCompany) {\r\n      return CHECK_ERECV;\r\n    }\r\n\r\n    // receiver is under Regulation D, Non-US investors can trade at any time\r\n    // only company account can send to US investors first year, US investors cannot sell these shares in the first year, except to the company account\r\n    // transfer rule for US Reg D / S / 144a. This will have a special case for addresses that are on the QIB whitelist\r\n    if (keccak256(wlTo) == keccak256(\"RegD\")\r\n      && block.timestamp < settingsStorage.initialOfferEndDate()\r\n      && !isCompany\r\n      && keccak256(wlFrom) != keccak256(\"qib\")) {\r\n      return CHECK_ERREGD;\r\n    }\r\n\r\n    return CHECK_SUCCESS;\r\n  }\r\n\r\n  // the sender is the multisig wallet, or the _from is the company account and the sender is the issuer\r\n  function checkArbitrage(address _token, address _from, address _to, uint256 _amount) public returns (uint8) {\r\n    bool isOfficer = settingsStorage.officers(msg.sender);\r\n    address tokenOwner = MintableToken(_token).owner();\r\n\r\n    if (_to != tokenOwner && !isOfficer) {\r\n\r\n      if (_to != tokenOwner) {\r\n        return CHECK_ERECV;\r\n      }\r\n\r\n      return CHECK_EROFF;\r\n    }\r\n\r\n    return CHECK_SUCCESS;\r\n  }\r\n\r\n  /**\r\n   * @dev Replace the current SettingsStorage\r\n   *\r\n   * @param _storage The address of the `SettingsStorage`\r\n   *\r\n   */\r\n  function replaceStorage(address _storage) onlyOwner withContract(_storage) public {\r\n    address oldStorage = settingsStorage;\r\n    settingsStorage = SettingsStorage(_storage);\r\n    ReplaceStorage(oldStorage, _storage);\r\n  }\r\n}\r\n",
  "sourcePath": "C:\\Users\\hrome\\Documents\\GitHub\\AboveboardSecurityToken\\contracts\\AboveboardRegDSWhitelistRegulatorService.sol",
  "compiler": {
    "name": "solc",
    "version": "0.4.24+commit.e67f0147.Emscripten.clang"
  },
  "schemaVersion": "2.0.1",
  "updatedAt": "2018-08-29T12:00:33.504Z"
}