{
  "contractName": "AboveboardRegDSWhitelistRegulatorService",
  "abi": [
    {
      "constant": true,
      "inputs": [],
      "name": "owner",
      "outputs": [
        {
          "name": "",
          "type": "address"
        }
      ],
      "payable": false,
      "stateMutability": "view",
      "type": "function"
    },
    {
      "constant": false,
      "inputs": [
        {
          "name": "newOwner",
          "type": "address"
        }
      ],
      "name": "transferOwnership",
      "outputs": [],
      "payable": false,
      "stateMutability": "nonpayable",
      "type": "function"
    },
    {
      "anonymous": false,
      "inputs": [
        {
          "indexed": true,
          "name": "previousOwner",
          "type": "address"
        },
        {
          "indexed": true,
          "name": "newOwner",
          "type": "address"
        }
      ],
      "name": "OwnershipTransferred",
      "type": "event"
    },
    {
      "anonymous": false,
      "inputs": [
        {
          "indexed": true,
          "name": "token",
          "type": "address"
        },
        {
          "indexed": false,
          "name": "locked",
          "type": "bool"
        }
      ],
      "name": "LogLockSet",
      "type": "event"
    },
    {
      "anonymous": false,
      "inputs": [
        {
          "indexed": true,
          "name": "token",
          "type": "address"
        },
        {
          "indexed": false,
          "name": "enabled",
          "type": "bool"
        }
      ],
      "name": "LogPartialTransferSet",
      "type": "event"
    },
    {
      "anonymous": false,
      "inputs": [
        {
          "indexed": false,
          "name": "token",
          "type": "address"
        },
        {
          "indexed": false,
          "name": "_date",
          "type": "uint256"
        }
      ],
      "name": "InititalOfferEndDateSet",
      "type": "event"
    },
    {
      "anonymous": false,
      "inputs": [
        {
          "indexed": false,
          "name": "whitelist",
          "type": "address"
        }
      ],
      "name": "WhitelistAdded",
      "type": "event"
    },
    {
      "anonymous": false,
      "inputs": [
        {
          "indexed": false,
          "name": "whitelist",
          "type": "address"
        }
      ],
      "name": "WhitelistRemoved",
      "type": "event"
    },
    {
      "anonymous": false,
      "inputs": [
        {
          "indexed": false,
          "name": "token",
          "type": "address"
        },
        {
          "indexed": false,
          "name": "whitelist",
          "type": "address"
        }
      ],
      "name": "RegulationDWhitelistSet",
      "type": "event"
    },
    {
      "anonymous": false,
      "inputs": [
        {
          "indexed": false,
          "name": "token",
          "type": "address"
        },
        {
          "indexed": false,
          "name": "_issuer",
          "type": "address"
        }
      ],
      "name": "IssuerSet",
      "type": "event"
    },
    {
      "anonymous": false,
      "inputs": [
        {
          "indexed": false,
          "name": "token",
          "type": "address"
        }
      ],
      "name": "IssuerRemoved",
      "type": "event"
    },
    {
      "anonymous": false,
      "inputs": [
        {
          "indexed": false,
          "name": "_address",
          "type": "string"
        }
      ],
      "name": "MessagingAddressSet",
      "type": "event"
    },
    {
      "anonymous": false,
      "inputs": [
        {
          "indexed": false,
          "name": "token",
          "type": "address"
        },
        {
          "indexed": false,
          "name": "allow",
          "type": "bool"
        }
      ],
      "name": "NewShareholdersAllowance",
      "type": "event"
    },
    {
      "constant": false,
      "inputs": [
        {
          "name": "_whitelist",
          "type": "address"
        }
      ],
      "name": "addWhitelist",
      "outputs": [],
      "payable": false,
      "stateMutability": "nonpayable",
      "type": "function"
    },
    {
      "constant": false,
      "inputs": [
        {
          "name": "_token",
          "type": "address"
        },
        {
          "name": "_whitelist",
          "type": "address"
        }
      ],
      "name": "setRegDWhitelist",
      "outputs": [],
      "payable": false,
      "stateMutability": "nonpayable",
      "type": "function"
    },
    {
      "constant": false,
      "inputs": [
        {
          "name": "_whitelist",
          "type": "address"
        }
      ],
      "name": "removeWhitelist",
      "outputs": [],
      "payable": false,
      "stateMutability": "nonpayable",
      "type": "function"
    },
    {
      "constant": true,
      "inputs": [],
      "name": "getWhitelists",
      "outputs": [
        {
          "name": "",
          "type": "address[]"
        }
      ],
      "payable": false,
      "stateMutability": "view",
      "type": "function"
    },
    {
      "constant": false,
      "inputs": [
        {
          "name": "_token",
          "type": "address"
        },
        {
          "name": "_locked",
          "type": "bool"
        }
      ],
      "name": "setLocked",
      "outputs": [],
      "payable": false,
      "stateMutability": "nonpayable",
      "type": "function"
    },
    {
      "constant": false,
      "inputs": [
        {
          "name": "_token",
          "type": "address"
        },
        {
          "name": "_enabled",
          "type": "bool"
        }
      ],
      "name": "setPartialTransfers",
      "outputs": [],
      "payable": false,
      "stateMutability": "nonpayable",
      "type": "function"
    },
    {
      "constant": false,
      "inputs": [
        {
          "name": "_token",
          "type": "address"
        },
        {
          "name": "_from",
          "type": "address"
        },
        {
          "name": "_to",
          "type": "address"
        },
        {
          "name": "_amount",
          "type": "uint256"
        }
      ],
      "name": "check",
      "outputs": [
        {
          "name": "",
          "type": "uint8"
        }
      ],
      "payable": false,
      "stateMutability": "nonpayable",
      "type": "function"
    },
    {
      "constant": false,
      "inputs": [
        {
          "name": "_token",
          "type": "address"
        },
        {
          "name": "_date",
          "type": "uint256"
        }
      ],
      "name": "setInititalOfferEndDate",
      "outputs": [],
      "payable": false,
      "stateMutability": "nonpayable",
      "type": "function"
    },
    {
      "constant": false,
      "inputs": [
        {
          "name": "_token",
          "type": "address"
        },
        {
          "name": "_issuer",
          "type": "address"
        }
      ],
      "name": "setIssuer",
      "outputs": [],
      "payable": false,
      "stateMutability": "nonpayable",
      "type": "function"
    },
    {
      "constant": false,
      "inputs": [
        {
          "name": "_token",
          "type": "address"
        }
      ],
      "name": "removeIssuer",
      "outputs": [],
      "payable": false,
      "stateMutability": "nonpayable",
      "type": "function"
    },
    {
      "constant": true,
      "inputs": [
        {
          "name": "_token",
          "type": "address"
        }
      ],
      "name": "getIssuerAddress",
      "outputs": [
        {
          "name": "",
          "type": "address"
        }
      ],
      "payable": false,
      "stateMutability": "view",
      "type": "function"
    },
    {
      "constant": true,
      "inputs": [],
      "name": "getMessagingAddress",
      "outputs": [
        {
          "name": "",
          "type": "string"
        }
      ],
      "payable": false,
      "stateMutability": "view",
      "type": "function"
    },
    {
      "constant": false,
      "inputs": [
        {
          "name": "_address",
          "type": "string"
        }
      ],
      "name": "setMessagingAddress",
      "outputs": [],
      "payable": false,
      "stateMutability": "nonpayable",
      "type": "function"
    },
    {
      "constant": false,
      "inputs": [
        {
          "name": "_token",
          "type": "address"
        },
        {
          "name": "allow",
          "type": "bool"
        }
      ],
      "name": "allowNewShareholders",
      "outputs": [],
      "payable": false,
      "stateMutability": "nonpayable",
      "type": "function"
    }
  ],
  "bytecode": "0x6060604052336000806101000a81548173ffffffffffffffffffffffffffffffffffffffff021916908373ffffffffffffffffffffffffffffffffffffffff1602179055506120fc806100536000396000f3006060604052600436106100e6576000357c0100000000000000000000000000000000000000000000000000000000900463ffffffff1680630eed3f9f146100eb5780634277b5b114610148578063446040d5146101e257806347bc70931461022457806359ea70fd1461025d57806378c8cda7146102eb57806389ad0a34146103245780638da5cb5b1461036857806392f96115146103bd5780639a38330d14610401578063b6053aa514610459578063c35dcf90146104d2578063ead8d2ae1461053c578063f2fde38b14610594578063f6da7e0a146105cd578063f80f5dd514610611575b600080fd5b34156100f657600080fd5b610146600480803590602001908201803590602001908080601f0160208091040260200160405190810160405280939291908181526020018383808284378201915050505050509190505061064a565b005b341561015357600080fd5b6101c6600480803573ffffffffffffffffffffffffffffffffffffffff1690602001909190803573ffffffffffffffffffffffffffffffffffffffff1690602001909190803573ffffffffffffffffffffffffffffffffffffffff1690602001909190803590602001909190505061075b565b604051808260ff1660ff16815260200191505060405180910390f35b34156101ed57600080fd5b610222600480803573ffffffffffffffffffffffffffffffffffffffff16906020019091908035906020019091905050610c66565b005b341561022f57600080fd5b61025b600480803573ffffffffffffffffffffffffffffffffffffffff16906020019091905050610d77565b005b341561026857600080fd5b610270610eba565b6040518080602001828103825283818151815260200191508051906020019080838360005b838110156102b0578082015181840152602081019050610295565b50505050905090810190601f1680156102dd5780820380516001836020036101000a031916815260200191505b509250505060405180910390f35b34156102f657600080fd5b610322600480803573ffffffffffffffffffffffffffffffffffffffff16906020019091905050610f62565b005b341561032f57600080fd5b610366600480803573ffffffffffffffffffffffffffffffffffffffff1690602001909190803515159060200190919050506110fe565b005b341561037357600080fd5b61037b611209565b604051808273ffffffffffffffffffffffffffffffffffffffff1673ffffffffffffffffffffffffffffffffffffffff16815260200191505060405180910390f35b34156103c857600080fd5b6103ff600480803573ffffffffffffffffffffffffffffffffffffffff16906020019091908035151590602001909190505061122e565b005b341561040c57600080fd5b610457600480803573ffffffffffffffffffffffffffffffffffffffff1690602001909190803573ffffffffffffffffffffffffffffffffffffffff16906020019091905050611339565b005b341561046457600080fd5b610490600480803573ffffffffffffffffffffffffffffffffffffffff169060200190919050506114ec565b604051808273ffffffffffffffffffffffffffffffffffffffff1673ffffffffffffffffffffffffffffffffffffffff16815260200191505060405180910390f35b34156104dd57600080fd5b6104e5611558565b6040518080602001828103825283818151815260200191508051906020019060200280838360005b8381101561052857808201518184015260208101905061050d565b505050509050019250505060405180910390f35b341561054757600080fd5b610592600480803573ffffffffffffffffffffffffffffffffffffffff1690602001909190803573ffffffffffffffffffffffffffffffffffffffff169060200190919050506115ec565b005b341561059f57600080fd5b6105cb600480803573ffffffffffffffffffffffffffffffffffffffff16906020019091905050611763565b005b34156105d857600080fd5b61060f600480803573ffffffffffffffffffffffffffffffffffffffff1690602001909190803515159060200190919050506118b8565b005b341561061c57600080fd5b610648600480803573ffffffffffffffffffffffffffffffffffffffff169060200190919050506119e0565b005b6000809054906101000a900473ffffffffffffffffffffffffffffffffffffffff1673ffffffffffffffffffffffffffffffffffffffff163373ffffffffffffffffffffffffffffffffffffffff161415156106a557600080fd5b80600190805190602001906106bb929190611fab565b507f827f513c0402b7e2c74297f5ab29c1608819df765bacf6bbe760706642f0bcf4816040518080602001828103825283818151815260200191508051906020019080838360005b8381101561071e578082015181840152602081019050610703565b50505050905090810190601f16801561074b5780820380516001836020036101000a031916815260200191505b509250505060405180910390a150565b6000806000806000600360008a73ffffffffffffffffffffffffffffffffffffffff1673ffffffffffffffffffffffffffffffffffffffff16815260200190815260200160002060000160009054906101000a900460ff16156107c15760019450610c5a565b600360008a73ffffffffffffffffffffffffffffffffffffffff1673ffffffffffffffffffffffffffffffffffffffff16815260200190815260200160002060000160029054906101000a900460ff161580156108ce575060008973ffffffffffffffffffffffffffffffffffffffff166370a08231896040518263ffffffff167c0100000000000000000000000000000000000000000000000000000000028152600401808273ffffffffffffffffffffffffffffffffffffffff1673ffffffffffffffffffffffffffffffffffffffff168152602001915050602060405180830381600087803b15156108b557600080fd5b5af115156108c257600080fd5b50505060405180519050145b156108dc5760069450610c5a565b6108e588611be7565b80945081955050508315156108fd5760039450610c5a565b61090687611be7565b809250819350505081151561091e5760049450610c5a565b600360008a73ffffffffffffffffffffffffffffffffffffffff1673ffffffffffffffffffffffffffffffffffffffff16815260200190815260200160002060000160039054906101000a900473ffffffffffffffffffffffffffffffffffffffff1673ffffffffffffffffffffffffffffffffffffffff168373ffffffffffffffffffffffffffffffffffffffff161480610a475750600360008a73ffffffffffffffffffffffffffffffffffffffff1673ffffffffffffffffffffffffffffffffffffffff16815260200190815260200160002060000160039054906101000a900473ffffffffffffffffffffffffffffffffffffffff1673ffffffffffffffffffffffffffffffffffffffff168173ffffffffffffffffffffffffffffffffffffffff16145b8015610a945750600360008a73ffffffffffffffffffffffffffffffffffffffff1673ffffffffffffffffffffffffffffffffffffffff1681526020019081526020016000206002015442105b8015610b2e5750600360008a73ffffffffffffffffffffffffffffffffffffffff1673ffffffffffffffffffffffffffffffffffffffff16815260200190815260200160002060010160009054906101000a900473ffffffffffffffffffffffffffffffffffffffff1673ffffffffffffffffffffffffffffffffffffffff168873ffffffffffffffffffffffffffffffffffffffff1614155b8015610bc85750600360008a73ffffffffffffffffffffffffffffffffffffffff1673ffffffffffffffffffffffffffffffffffffffff16815260200190815260200160002060010160009054906101000a900473ffffffffffffffffffffffffffffffffffffffff1673ffffffffffffffffffffffffffffffffffffffff168773ffffffffffffffffffffffffffffffffffffffff1614155b15610bd65760059450610c5a565b600360008a73ffffffffffffffffffffffffffffffffffffffff1673ffffffffffffffffffffffffffffffffffffffff16815260200190815260200160002060000160019054906101000a900460ff16158015610c4757506000610c398a611d51565b87811515610c4357fe5b0614155b15610c555760029450610c5a565b600094505b50505050949350505050565b6000809054906101000a900473ffffffffffffffffffffffffffffffffffffffff1673ffffffffffffffffffffffffffffffffffffffff163373ffffffffffffffffffffffffffffffffffffffff16141515610cc157600080fd5b80600360008473ffffffffffffffffffffffffffffffffffffffff1673ffffffffffffffffffffffffffffffffffffffff168152602001908152602001600020600201819055507f941b1c185c5f48d6cb72b7ba0923a874a589b30b3ea1cd84172093b7f8a93f588282604051808373ffffffffffffffffffffffffffffffffffffffff1673ffffffffffffffffffffffffffffffffffffffff1681526020018281526020019250505060405180910390a15050565b6000809054906101000a900473ffffffffffffffffffffffffffffffffffffffff1673ffffffffffffffffffffffffffffffffffffffff163373ffffffffffffffffffffffffffffffffffffffff16141515610dd257600080fd5b6000600360008373ffffffffffffffffffffffffffffffffffffffff1673ffffffffffffffffffffffffffffffffffffffff16815260200190815260200160002060010160006101000a81548173ffffffffffffffffffffffffffffffffffffffff021916908373ffffffffffffffffffffffffffffffffffffffff1602179055507faf66545c919a3be306ee446d8f42a9558b5b022620df880517bc9593ec0f2d5281604051808273ffffffffffffffffffffffffffffffffffffffff1673ffffffffffffffffffffffffffffffffffffffff16815260200191505060405180910390a150565b610ec261202b565b60018054600181600116156101000203166002900480601f016020809104026020016040519081016040528092919081815260200182805460018160011615610100020316600290048015610f585780601f10610f2d57610100808354040283529160200191610f58565b820191906000526020600020905b815481529060010190602001808311610f3b57829003601f168201915b5050505050905090565b60008060009054906101000a900473ffffffffffffffffffffffffffffffffffffffff1673ffffffffffffffffffffffffffffffffffffffff163373ffffffffffffffffffffffffffffffffffffffff16141515610fbf57600080fd5b600073ffffffffffffffffffffffffffffffffffffffff168273ffffffffffffffffffffffffffffffffffffffff1614151515610ffb57600080fd5b600090505b6002805490508110156110f9578173ffffffffffffffffffffffffffffffffffffffff1660028281548110151561103357fe5b906000526020600020900160009054906101000a900473ffffffffffffffffffffffffffffffffffffffff1673ffffffffffffffffffffffffffffffffffffffff1614156110ec5761108481611dda565b7fde8cf212af7ce38b2840785a2768d97ff2dbf3c21b516961cec0061e134c2a1e82604051808273ffffffffffffffffffffffffffffffffffffffff1673ffffffffffffffffffffffffffffffffffffffff16815260200191505060405180910390a16110fa565b8080600101915050611000565b5b5050565b6000809054906101000a900473ffffffffffffffffffffffffffffffffffffffff1673ffffffffffffffffffffffffffffffffffffffff163373ffffffffffffffffffffffffffffffffffffffff1614151561115957600080fd5b80600360008473ffffffffffffffffffffffffffffffffffffffff1673ffffffffffffffffffffffffffffffffffffffff16815260200190815260200160002060000160006101000a81548160ff0219169083151502179055508173ffffffffffffffffffffffffffffffffffffffff167f0a12157eaf7bc78c797f32f0756efb6a90d605759d6e535a278033ec487d176682604051808215151515815260200191505060405180910390a25050565b6000809054906101000a900473ffffffffffffffffffffffffffffffffffffffff1681565b6000809054906101000a900473ffffffffffffffffffffffffffffffffffffffff1673ffffffffffffffffffffffffffffffffffffffff163373ffffffffffffffffffffffffffffffffffffffff1614151561128957600080fd5b80600360008473ffffffffffffffffffffffffffffffffffffffff1673ffffffffffffffffffffffffffffffffffffffff16815260200190815260200160002060000160016101000a81548160ff0219169083151502179055508173ffffffffffffffffffffffffffffffffffffffff167f85d37ec694752aafe8ff3ea3fb045641ded9ae08224d069215d88722175a8db882604051808215151515815260200191505060405180910390a25050565b6000809054906101000a900473ffffffffffffffffffffffffffffffffffffffff1673ffffffffffffffffffffffffffffffffffffffff163373ffffffffffffffffffffffffffffffffffffffff1614151561139457600080fd5b600073ffffffffffffffffffffffffffffffffffffffff168173ffffffffffffffffffffffffffffffffffffffff16141515156113d057600080fd5b80600360008473ffffffffffffffffffffffffffffffffffffffff1673ffffffffffffffffffffffffffffffffffffffff16815260200190815260200160002060010160006101000a81548173ffffffffffffffffffffffffffffffffffffffff021916908373ffffffffffffffffffffffffffffffffffffffff1602179055507ff7189b85d7899f5a32d733e6584c4f1dcdff0274f09d969d186c1797673ede118282604051808373ffffffffffffffffffffffffffffffffffffffff1673ffffffffffffffffffffffffffffffffffffffff1681526020018273ffffffffffffffffffffffffffffffffffffffff1673ffffffffffffffffffffffffffffffffffffffff1681526020019250505060405180910390a15050565b6000600360008373ffffffffffffffffffffffffffffffffffffffff1673ffffffffffffffffffffffffffffffffffffffff16815260200190815260200160002060010160009054906101000a900473ffffffffffffffffffffffffffffffffffffffff169050919050565b61156061203f565b60028054806020026020016040519081016040528092919081815260200182805480156115e257602002820191906000526020600020905b8160009054906101000a900473ffffffffffffffffffffffffffffffffffffffff1673ffffffffffffffffffffffffffffffffffffffff1681526020019060010190808311611598575b5050505050905090565b6000809054906101000a900473ffffffffffffffffffffffffffffffffffffffff1673ffffffffffffffffffffffffffffffffffffffff163373ffffffffffffffffffffffffffffffffffffffff1614151561164757600080fd5b80600360008473ffffffffffffffffffffffffffffffffffffffff1673ffffffffffffffffffffffffffffffffffffffff16815260200190815260200160002060000160036101000a81548173ffffffffffffffffffffffffffffffffffffffff021916908373ffffffffffffffffffffffffffffffffffffffff1602179055507f535e6b36b73d0ed9b0f8015c59ee9f6ad4e9e9de61507eb99ac19aa44fd0c3d38282604051808373ffffffffffffffffffffffffffffffffffffffff1673ffffffffffffffffffffffffffffffffffffffff1681526020018273ffffffffffffffffffffffffffffffffffffffff1673ffffffffffffffffffffffffffffffffffffffff1681526020019250505060405180910390a15050565b6000809054906101000a900473ffffffffffffffffffffffffffffffffffffffff1673ffffffffffffffffffffffffffffffffffffffff163373ffffffffffffffffffffffffffffffffffffffff161415156117be57600080fd5b600073ffffffffffffffffffffffffffffffffffffffff168173ffffffffffffffffffffffffffffffffffffffff16141515156117fa57600080fd5b8073ffffffffffffffffffffffffffffffffffffffff166000809054906101000a900473ffffffffffffffffffffffffffffffffffffffff1673ffffffffffffffffffffffffffffffffffffffff167f8be0079c531659141344cd1fd0a4f28419497f9722a3daafe3b4186f6b6457e060405160405180910390a3806000806101000a81548173ffffffffffffffffffffffffffffffffffffffff021916908373ffffffffffffffffffffffffffffffffffffffff16021790555050565b6000809054906101000a900473ffffffffffffffffffffffffffffffffffffffff1673ffffffffffffffffffffffffffffffffffffffff163373ffffffffffffffffffffffffffffffffffffffff1614151561191357600080fd5b80600360008473ffffffffffffffffffffffffffffffffffffffff1673ffffffffffffffffffffffffffffffffffffffff16815260200190815260200160002060000160026101000a81548160ff0219169083151502179055507fb0e29bf1b06b74b27a18060c7142d370fcc47ca6a829fbbe248269d66868805a8282604051808373ffffffffffffffffffffffffffffffffffffffff1673ffffffffffffffffffffffffffffffffffffffff168152602001821515151581526020019250505060405180910390a15050565b6000806000809054906101000a900473ffffffffffffffffffffffffffffffffffffffff1673ffffffffffffffffffffffffffffffffffffffff163373ffffffffffffffffffffffffffffffffffffffff16141515611a3e57600080fd5b600073ffffffffffffffffffffffffffffffffffffffff168373ffffffffffffffffffffffffffffffffffffffff1614151515611a7a57600080fd5b60009150600090505b600280549050811015611b14578273ffffffffffffffffffffffffffffffffffffffff16600282815481101515611ab657fe5b906000526020600020900160009054906101000a900473ffffffffffffffffffffffffffffffffffffffff1673ffffffffffffffffffffffffffffffffffffffff161415611b075760019150611b14565b8080600101915050611a83565b811515611be25760028054806001018281611b2f9190612053565b9160005260206000209001600085909190916101000a81548173ffffffffffffffffffffffffffffffffffffffff021916908373ffffffffffffffffffffffffffffffffffffffff160217905550507f4790a4adb426ca2345bb5108f6e454eae852a7bf687544cd66a7270dff3a41d683604051808273ffffffffffffffffffffffffffffffffffffffff1673ffffffffffffffffffffffffffffffffffffffff16815260200191505060405180910390a15b505050565b60008060008090505b600280549050811015611d4357600281815481101515611c0c57fe5b906000526020600020900160009054906101000a900473ffffffffffffffffffffffffffffffffffffffff1673ffffffffffffffffffffffffffffffffffffffff166363a9c3d7856040518263ffffffff167c0100000000000000000000000000000000000000000000000000000000028152600401808273ffffffffffffffffffffffffffffffffffffffff1673ffffffffffffffffffffffffffffffffffffffff168152602001915050602060405180830381600087803b1515611cd157600080fd5b5af11515611cde57600080fd5b5050506040518051905015611d36576001600282815481101515611cfe57fe5b906000526020600020900160009054906101000a900473ffffffffffffffffffffffffffffffffffffffff1680905092509250611d4b565b8080600101915050611bf0565b600080925092505b50915091565b60008173ffffffffffffffffffffffffffffffffffffffff1663313ce5676040518163ffffffff167c0100000000000000000000000000000000000000000000000000000000028152600401602060405180830381600087803b1515611db657600080fd5b5af11515611dc357600080fd5b5050506040518051905060ff16600a0a9050919050565b600060028054905082101515611def57611fa7565b8190505b600160028054905003811015611ea657600260018201815481101515611e1557fe5b906000526020600020900160009054906101000a900473ffffffffffffffffffffffffffffffffffffffff16600282815481101515611e5057fe5b906000526020600020900160006101000a81548173ffffffffffffffffffffffffffffffffffffffff021916908373ffffffffffffffffffffffffffffffffffffffff1602179055508080600101915050611df3565b7fde8cf212af7ce38b2840785a2768d97ff2dbf3c21b516961cec0061e134c2a1e6002600160028054905003815481101515611ede57fe5b906000526020600020900160009054906101000a900473ffffffffffffffffffffffffffffffffffffffff16604051808273ffffffffffffffffffffffffffffffffffffffff1673ffffffffffffffffffffffffffffffffffffffff16815260200191505060405180910390a16002600160028054905003815481101515611f6257fe5b906000526020600020900160006101000a81549073ffffffffffffffffffffffffffffffffffffffff02191690556002805480919060019003611fa5919061207f565b505b5050565b828054600181600116156101000203166002900490600052602060002090601f016020900481019282601f10611fec57805160ff191683800117855561201a565b8280016001018555821561201a579182015b82811115612019578251825591602001919060010190611ffe565b5b50905061202791906120ab565b5090565b602060405190810160405280600081525090565b602060405190810160405280600081525090565b81548183558181151161207a5781836000526020600020918201910161207991906120ab565b5b505050565b8154818355818115116120a6578183600052602060002091820191016120a591906120ab565b5b505050565b6120cd91905b808211156120c95760008160009055506001016120b1565b5090565b905600a165627a7a723058206a7004d1a12c8def2138dcf003d8f9a5c579843ec91e17ea9b22eab80c565c2b0029",
  "source": "pragma solidity ^0.4.18;\n\nimport \"./zeppelin-solidity/contracts/ownership/Ownable.sol\";\nimport \"./zeppelin-solidity/contracts/token/ERC20/DetailedERC20.sol\";\nimport \"./zeppelin-solidity/contracts/token/ERC20/BasicToken.sol\";\nimport \"./interfaces/WhiteList.sol\";\nimport \"./interfaces/IRegulatorService.sol\";\n\n/// @notice Standard interface for `RegulatorService`s\ncontract AboveboardRegDSWhitelistRegulatorService is IRegulatorService, Ownable {\n\n  struct Settings {\n\n    /**\n     * @dev Toggle for locking/unlocking trades at a token level.\n     *      The default behavior of the zero memory state for locking will be unlocked.\n     */\n    bool locked;\n\n    /**\n     * @dev Toggle for allowing/disallowing fractional token trades at a token level.\n     *      The default state when this contract is created `false` (or no partial\n     *      transfers allowed).\n     */\n    bool partialTransfers;\n\n    /// @dev Toggle for allowing/disallowing new shareholders\n    bool newShareholdersAllowed;\n\n    /// @dev Address of Regulation D Whitelist\n    address regDWhitelist;\n\n    /// @dev Issuer of the token\n    address issuer;\n\n    /// @dev Initial offering end date\n    uint256 initialOfferEndDate;\n  }\n\n  /// @dev Messaging address\n  string private messagingAddress;\n\n  /// @dev Array of whitelists\n  WhiteList[] whitelists;\n\n  /// @notice Permissions that allow/disallow token trades on a per token level\n  mapping(address => Settings) private settings;\n\n  // @dev Check success code\n  uint8 constant private CHECK_SUCCESS = 0;\n\n  // @dev Check error reason: Token is locked\n  uint8 constant private CHECK_ELOCKED = 1;\n\n  // @dev Check error reason: Token can not trade partial amounts\n  uint8 constant private CHECK_EDIVIS = 2;\n\n  // @dev Check error reason: Sender is not allowed to send the token\n  uint8 constant private CHECK_ESEND = 3;\n\n  // @dev Check error reason: Receiver is not allowed to receive the token\n  uint8 constant private CHECK_ERECV = 4;\n\n  // @dev Check error reason: Transfer before initial offering end date\n  uint8 constant private CHECK_ERREGD = 5;\n\n  // @dev Check error reason: New shareholders are not allowed\n  uint8 constant private CHECK_ERALLOW = 6;\n\n  function addWhitelist(WhiteList _whitelist) onlyOwner public {\n\n    //check that we don't pass an empty list\n    require(_whitelist != address(0));\n    bool contains = false;\n\n    //Loop through array to see if the whitelist is present\n    for (uint256 i = 0; i < whitelists.length; i++) {\n      if (whitelists[i] == _whitelist) {\n\n        //if it is, change the value of contains and stop\n        contains = true;\n        break;\n      }\n    }\n\n    //if not, push it into the array\n    if (!contains) {\n      whitelists.push(_whitelist);\n      WhitelistAdded(_whitelist);\n    }\n  }\n\n  /**\n   * @notice Set Regulation D whitelist\n   *\n   * @param  _token Address of the token\n   * @param  _whitelist Regulation D whitelist address\n   */\n  function setRegDWhitelist(address _token, address _whitelist) onlyOwner public {\n    settings[_token].regDWhitelist = _whitelist;\n    RegulationDWhitelistSet(_token, _whitelist);\n  }\n\n  function removeWhitelist(WhiteList _whitelist) onlyOwner public {\n\n    //check that we don't pass an empty list\n    require(_whitelist != address(0));\n\n    //Loop through array to see if the whitelist is present\n    for (uint256 i = 0; i < whitelists.length; i++) {\n\n      //if we find it, we remove it from the list\n      if (whitelists[i] == _whitelist) {\n        remove(i);\n        WhitelistRemoved(_whitelist);\n        return;\n\n      }\n    }\n  }\n\n  /**\n   * @notice Get whitelists\n   *\n   * @return WhiteList[] Array of whitelists\n   */\n  function getWhitelists() constant public returns (WhiteList[]) {\n    return whitelists;\n  }\n\n  function remove(uint256 index) private {\n    \n    //check that the index doesn't exceed the list length\n    if (index >= whitelists.length)\n      return;\n\n    //move each list with one position on the left\n    for (uint256 i = index; i < whitelists.length-1; i++) {\n        whitelists[i] = whitelists[i+1];\n    }\n\n    //delete the last whitelist and decrease the array length\n    WhitelistRemoved(whitelists[whitelists.length-1]);\n\n    delete whitelists[whitelists.length-1];\n\n    whitelists.length--;\n  }\n\n  /**\n   * @notice Locks the ability to trade a token\n   *\n   * @dev    This method can only be called by this contract's owner\n   *\n   * @param  _token The address of the token to lock\n   */\n  function setLocked(address _token, bool _locked) onlyOwner public {\n    settings[_token].locked = _locked;\n    LogLockSet(_token, _locked);\n  }\n\n  /**\n   * @notice Allows the ability to trade a fraction of a token\n   *\n   * @dev    This method can only be called by this contract's owner\n   *\n   * @param  _token The address of the token to allow partial transfers\n   */\n  function setPartialTransfers(address _token, bool _enabled) onlyOwner public {\n   settings[_token].partialTransfers = _enabled;\n\n   LogPartialTransferSet(_token, _enabled);\n  }\n\n  /*\n   * @notice This method *MUST* be called by `RegulatedToken`s during `transfer()` and `transferFrom()`.\n   *         The implementation *SHOULD* check whether or not a transfer can be approved.\n   *\n   * @dev    This method *MAY* call back to the token contract specified by `_token` for\n   *         more information needed to enforce trade approval.\n   *\n   * @param  _token The address of the token to be transfered\n   * @param  _from The address of the sender account\n   * @param  _to The address of the receiver account\n   * @param  _amount The quantity of the token to trade\n   *\n   * @return uint8 The reason code: 0 means success.  Non-zero values are left to the implementation\n   *               to assign meaning.\n   */\n  function check(address _token, address _from, address _to, uint256 _amount) public returns (uint8) {\n    if (settings[_token].locked) {\n      return CHECK_ELOCKED;\n    }\n\n    // if newShareholdersAllowed is not enabled, the transfer will only succeed if the buyer already has tokens\n    if (!settings[_token].newShareholdersAllowed && BasicToken(_token).balanceOf(_to) == 0) {\n      return CHECK_ERALLOW;\n    }\n\n    bool f;\n    address wlFrom;\n    (f, wlFrom) = isWhiteListed(_from);\n    if (!f) {\n      return CHECK_ESEND;\n    }\n\n    bool t;\n    address wlTo;\n    (t,wlTo) = isWhiteListed(_to);\n    if (!t) {\n      return CHECK_ERECV;\n    }\n\n    // sender or receiver is under Regulation D, Non-US investors can trade at any time\n    if ((wlFrom == settings[_token].regDWhitelist || wlTo == settings[_token].regDWhitelist)\n      && now < settings[_token].initialOfferEndDate\n      && _from != settings[_token].issuer            // only issuer can send to US investors first year\n      && _to != settings[_token].issuer) {           // US investors cannot sell these shares in the first year, except to the issuer\n      return CHECK_ERREGD;\n    }\n\n    if (!settings[_token].partialTransfers && _amount % _wholeToken(_token) != 0) {\n      return CHECK_EDIVIS;\n    }\n\n    return CHECK_SUCCESS;\n  }\n\n  /**\n   * @notice Retrieves the whole token value from a token that this `RegulatorService` manages\n   *\n   * @param  _token The token address of the managed token\n   *\n   * @return The uint256 value that represents a single whole token\n   */\n  function _wholeToken(address _token) view private returns (uint256) {\n    return uint256(10)**DetailedERC20(_token).decimals();\n  }\n\n  /**\n   * @notice Check if address is indeed in one of the whitelists\n   *\n   * @param _address Buyer to be added to whitelist\n   *\n   * @return True if buyer is added to whitelist, otherwise false\n   */\n  function isWhiteListed(address _address) private returns (bool, address) {\n    for (uint256 i = 0; i < whitelists.length; i++) {\n      if (whitelists[i].verify(_address))\n        return (true, whitelists[i]);\n    }\n    return (false, address(0));\n  }\n\n  /**\n   * @notice Set initial offering end date\n   *\n   * @param  _token The address of the token\n   * @param  _date Initial offering end date\n   */\n  function setInititalOfferEndDate(address _token, uint256 _date) onlyOwner public {\n    settings[_token].initialOfferEndDate = _date;\n    InititalOfferEndDateSet(_token, _date);\n  }\n\n  /**\n   * @notice Set issuer of token\n   *\n   * @param  _token The address of the token\n   * @param  _issuer Issuer to be set\n   */\n  function setIssuer(address _token, address _issuer) onlyOwner public {\n    require(_issuer != address(0));\n    settings[_token].issuer = _issuer;\n    IssuerSet(_token, _issuer);\n  }\n\n  /**\n   * @notice Remove issuer of token\n   *\n   * @param  _token The address of the token\n   */\n  function removeIssuer(address _token) onlyOwner public {\n    settings[_token].issuer = address(0);\n    IssuerRemoved(_token);\n  }\n\n  /**\n   * @notice Get issuer's address\n   *\n   * @param  _token The address of the token\n   */\n  function getIssuerAddress(address _token) constant public returns (address) {\n    return settings[_token].issuer;\n  }\n\n  /**\n   * @notice Get messaging address\n   */\n  function getMessagingAddress() constant public returns (string) {\n    return messagingAddress;\n  }\n\n  /**\n   * @notice Set messaging address\n   *\n   * @param  _address Messaging address to be set\n   */\n  function setMessagingAddress(string _address) onlyOwner public {\n    messagingAddress = _address;\n    MessagingAddressSet(_address);\n  }\n\n  /**\n   * @notice Allow/disallow new shareholders\n   *\n   * @param  _token The address of the token\n   * @param  allow Allow/disallow new shareholders\n   */\n  function allowNewShareholders(address _token, bool allow) onlyOwner public {\n    settings[_token].newShareholdersAllowed = allow;\n    NewShareholdersAllowance(_token, allow);\n  }\n}\n",
  "sourcePath": "/opt/app/contracts/AboveboardRegDSWhitelistRegulatorService.sol",
  "compiler": {
    "name": "solc",
    "version": "0.4.21+commit.dfe3193c.Emscripten.clang"
  },
  "schemaVersion": "2.0.0",
  "updatedAt": "2018-04-18T17:22:35.997Z"
}