{
  "contractName": "AboveboardRegDSWhitelistRegulatorService",
  "abi": [
    {
      "constant": true,
      "inputs": [],
      "name": "owner",
      "outputs": [
        {
          "name": "",
          "type": "address"
        }
      ],
      "payable": false,
      "stateMutability": "view",
      "type": "function"
    },
    {
      "constant": false,
      "inputs": [
        {
          "name": "newOwner",
          "type": "address"
        }
      ],
      "name": "transferOwnership",
      "outputs": [],
      "payable": false,
      "stateMutability": "nonpayable",
      "type": "function"
    },
    {
      "inputs": [
        {
          "name": "_storage",
          "type": "address"
        }
      ],
      "payable": false,
      "stateMutability": "nonpayable",
      "type": "constructor"
    },
    {
      "anonymous": false,
      "inputs": [
        {
          "indexed": true,
          "name": "previousOwner",
          "type": "address"
        },
        {
          "indexed": true,
          "name": "newOwner",
          "type": "address"
        }
      ],
      "name": "OwnershipTransferred",
      "type": "event"
    },
    {
      "anonymous": false,
      "inputs": [
        {
          "indexed": false,
          "name": "oldStorage",
          "type": "address"
        },
        {
          "indexed": false,
          "name": "newStorage",
          "type": "address"
        }
      ],
      "name": "ReplaceStorage",
      "type": "event"
    },
    {
      "constant": false,
      "inputs": [
        {
          "name": "_token",
          "type": "address"
        },
        {
          "name": "_from",
          "type": "address"
        },
        {
          "name": "_to",
          "type": "address"
        },
        {
          "name": "_amount",
          "type": "uint256"
        }
      ],
      "name": "check",
      "outputs": [
        {
          "name": "",
          "type": "uint8"
        }
      ],
      "payable": false,
      "stateMutability": "nonpayable",
      "type": "function"
    },
    {
      "constant": true,
      "inputs": [],
      "name": "getStorageAddress",
      "outputs": [
        {
          "name": "",
          "type": "address"
        }
      ],
      "payable": false,
      "stateMutability": "view",
      "type": "function"
    },
    {
      "constant": false,
      "inputs": [
        {
          "name": "_storage",
          "type": "address"
        }
      ],
      "name": "replaceStorage",
      "outputs": [],
      "payable": false,
      "stateMutability": "nonpayable",
      "type": "function"
    }
  ],
  "bytecode": "0x608060405234801561001057600080fd5b5060405160208061128883398101806040528101908080519060200190929190505050336000806101000a81548173ffffffffffffffffffffffffffffffffffffffff021916908373ffffffffffffffffffffffffffffffffffffffff160217905550600073ffffffffffffffffffffffffffffffffffffffff168173ffffffffffffffffffffffffffffffffffffffff16141515156100af57600080fd5b80600160006101000a81548173ffffffffffffffffffffffffffffffffffffffff021916908373ffffffffffffffffffffffffffffffffffffffff16021790555050611188806101006000396000f30060806040526004361061006d576000357c0100000000000000000000000000000000000000000000000000000000900463ffffffff168063393a4d34146100725780634277b5b1146100c95780635332a857146101705780638da5cb5b146101b3578063f2fde38b1461020a575b600080fd5b34801561007e57600080fd5b5061008761024d565b604051808273ffffffffffffffffffffffffffffffffffffffff1673ffffffffffffffffffffffffffffffffffffffff16815260200191505060405180910390f35b3480156100d557600080fd5b50610154600480360381019080803573ffffffffffffffffffffffffffffffffffffffff169060200190929190803573ffffffffffffffffffffffffffffffffffffffff169060200190929190803573ffffffffffffffffffffffffffffffffffffffff16906020019092919080359060200190929190505050610277565b604051808260ff1660ff16815260200191505060405180910390f35b34801561017c57600080fd5b506101b1600480360381019080803573ffffffffffffffffffffffffffffffffffffffff169060200190929190505050610dbe565b005b3480156101bf57600080fd5b506101c8610f34565b604051808273ffffffffffffffffffffffffffffffffffffffff1673ffffffffffffffffffffffffffffffffffffffff16815260200191505060405180910390f35b34801561021657600080fd5b5061024b600480360381019080803573ffffffffffffffffffffffffffffffffffffffff169060200190929190505050610f59565b005b6000600160009054906101000a900473ffffffffffffffffffffffffffffffffffffffff16905090565b6000806000806000806000600160009054906101000a900473ffffffffffffffffffffffffffffffffffffffff1673ffffffffffffffffffffffffffffffffffffffff1663b6053aa58c6040518263ffffffff167c0100000000000000000000000000000000000000000000000000000000028152600401808273ffffffffffffffffffffffffffffffffffffffff1673ffffffffffffffffffffffffffffffffffffffff168152602001915050602060405180830381600087803b15801561033f57600080fd5b505af1158015610353573d6000803e3d6000fd5b505050506040513d602081101561036957600080fd5b810190808051906020019092919050505095508573ffffffffffffffffffffffffffffffffffffffff168a73ffffffffffffffffffffffffffffffffffffffff1614806103e157508573ffffffffffffffffffffffffffffffffffffffff168973ffffffffffffffffffffffffffffffffffffffff16145b9450600160009054906101000a900473ffffffffffffffffffffffffffffffffffffffff1673ffffffffffffffffffffffffffffffffffffffff1663bc22fd1b8c6040518263ffffffff167c0100000000000000000000000000000000000000000000000000000000028152600401808273ffffffffffffffffffffffffffffffffffffffff1673ffffffffffffffffffffffffffffffffffffffff168152602001915050602060405180830381600087803b1580156104a057600080fd5b505af11580156104b4573d6000803e3d6000fd5b505050506040513d60208110156104ca57600080fd5b810190808051906020019092919050505080156104e5575084155b156104f35760019650610db0565b600160009054906101000a900473ffffffffffffffffffffffffffffffffffffffff1673ffffffffffffffffffffffffffffffffffffffff1663653008f98c6040518263ffffffff167c0100000000000000000000000000000000000000000000000000000000028152600401808273ffffffffffffffffffffffffffffffffffffffff1673ffffffffffffffffffffffffffffffffffffffff168152602001915050602060405180830381600087803b1580156105b057600080fd5b505af11580156105c4573d6000803e3d6000fd5b505050506040513d60208110156105da57600080fd5b81019080805190602001909291905050501580156106cd575060008b73ffffffffffffffffffffffffffffffffffffffff166370a082318b6040518263ffffffff167c0100000000000000000000000000000000000000000000000000000000028152600401808273ffffffffffffffffffffffffffffffffffffffff1673ffffffffffffffffffffffffffffffffffffffff168152602001915050602060405180830381600087803b15801561069057600080fd5b505af11580156106a4573d6000803e3d6000fd5b505050506040513d60208110156106ba57600080fd5b8101908080519060200190929190505050145b80156106d7575084155b156106e55760069650610db0565b600160009054906101000a900473ffffffffffffffffffffffffffffffffffffffff1673ffffffffffffffffffffffffffffffffffffffff16636f9170f68b6040518263ffffffff167c0100000000000000000000000000000000000000000000000000000000028152600401808273ffffffffffffffffffffffffffffffffffffffff1673ffffffffffffffffffffffffffffffffffffffff1681526020019150506040805180830381600087803b1580156107a157600080fd5b505af11580156107b5573d6000803e3d6000fd5b505050506040513d60408110156107cb57600080fd5b81019080805190602001909291908051906020019092919050505080945081955050508315156107fe5760039650610db0565b600160009054906101000a900473ffffffffffffffffffffffffffffffffffffffff1673ffffffffffffffffffffffffffffffffffffffff16636f9170f68a6040518263ffffffff167c0100000000000000000000000000000000000000000000000000000000028152600401808273ffffffffffffffffffffffffffffffffffffffff1673ffffffffffffffffffffffffffffffffffffffff1681526020019150506040805180830381600087803b1580156108ba57600080fd5b505af11580156108ce573d6000803e3d6000fd5b505050506040513d60408110156108e457600080fd5b81019080805190602001909291908051906020019092919050505080925081935050508115156109175760049650610db0565b600160009054906101000a900473ffffffffffffffffffffffffffffffffffffffff1673ffffffffffffffffffffffffffffffffffffffff1663e6870b528c6040518263ffffffff167c0100000000000000000000000000000000000000000000000000000000028152600401808273ffffffffffffffffffffffffffffffffffffffff1673ffffffffffffffffffffffffffffffffffffffff168152602001915050602060405180830381600087803b1580156109d457600080fd5b505af11580156109e8573d6000803e3d6000fd5b505050506040513d60208110156109fe57600080fd5b810190808051906020019092919050505073ffffffffffffffffffffffffffffffffffffffff168373ffffffffffffffffffffffffffffffffffffffff161480610b6a5750600160009054906101000a900473ffffffffffffffffffffffffffffffffffffffff1673ffffffffffffffffffffffffffffffffffffffff1663e6870b528c6040518263ffffffff167c0100000000000000000000000000000000000000000000000000000000028152600401808273ffffffffffffffffffffffffffffffffffffffff1673ffffffffffffffffffffffffffffffffffffffff168152602001915050602060405180830381600087803b158015610b0057600080fd5b505af1158015610b14573d6000803e3d6000fd5b505050506040513d6020811015610b2a57600080fd5b810190808051906020019092919050505073ffffffffffffffffffffffffffffffffffffffff168173ffffffffffffffffffffffffffffffffffffffff16145b8015610c6c5750600160009054906101000a900473ffffffffffffffffffffffffffffffffffffffff1673ffffffffffffffffffffffffffffffffffffffff16634b21f0448c6040518263ffffffff167c0100000000000000000000000000000000000000000000000000000000028152600401808273ffffffffffffffffffffffffffffffffffffffff1673ffffffffffffffffffffffffffffffffffffffff168152602001915050602060405180830381600087803b158015610c2e57600080fd5b505af1158015610c42573d6000803e3d6000fd5b505050506040513d6020811015610c5857600080fd5b810190808051906020019092919050505042105b8015610c76575084155b15610c845760059650610db0565b600160009054906101000a900473ffffffffffffffffffffffffffffffffffffffff1673ffffffffffffffffffffffffffffffffffffffff16634b0d68ea8c6040518263ffffffff167c0100000000000000000000000000000000000000000000000000000000028152600401808273ffffffffffffffffffffffffffffffffffffffff1673ffffffffffffffffffffffffffffffffffffffff168152602001915050602060405180830381600087803b158015610d4157600080fd5b505af1158015610d55573d6000803e3d6000fd5b505050506040513d6020811015610d6b57600080fd5b8101908080519060200190929190505050158015610d9d57506000610d8f8c6110ae565b89811515610d9957fe5b0614155b15610dab5760029650610db0565b600096505b505050505050949350505050565b60008060009054906101000a900473ffffffffffffffffffffffffffffffffffffffff1673ffffffffffffffffffffffffffffffffffffffff163373ffffffffffffffffffffffffffffffffffffffff16141515610e1b57600080fd5b816000813b9050600081111515610e3157600080fd5b600160009054906101000a900473ffffffffffffffffffffffffffffffffffffffff16925083600160006101000a81548173ffffffffffffffffffffffffffffffffffffffff021916908373ffffffffffffffffffffffffffffffffffffffff1602179055507fd837af80c7c7256ef44a7c5febba0827c80ece6c6ba3cb50fb007937aef599988385604051808373ffffffffffffffffffffffffffffffffffffffff1673ffffffffffffffffffffffffffffffffffffffff1681526020018273ffffffffffffffffffffffffffffffffffffffff1673ffffffffffffffffffffffffffffffffffffffff1681526020019250505060405180910390a150505050565b6000809054906101000a900473ffffffffffffffffffffffffffffffffffffffff1681565b6000809054906101000a900473ffffffffffffffffffffffffffffffffffffffff1673ffffffffffffffffffffffffffffffffffffffff163373ffffffffffffffffffffffffffffffffffffffff16141515610fb457600080fd5b600073ffffffffffffffffffffffffffffffffffffffff168173ffffffffffffffffffffffffffffffffffffffff1614151515610ff057600080fd5b8073ffffffffffffffffffffffffffffffffffffffff166000809054906101000a900473ffffffffffffffffffffffffffffffffffffffff1673ffffffffffffffffffffffffffffffffffffffff167f8be0079c531659141344cd1fd0a4f28419497f9722a3daafe3b4186f6b6457e060405160405180910390a3806000806101000a81548173ffffffffffffffffffffffffffffffffffffffff021916908373ffffffffffffffffffffffffffffffffffffffff16021790555050565b60008173ffffffffffffffffffffffffffffffffffffffff1663313ce5676040518163ffffffff167c0100000000000000000000000000000000000000000000000000000000028152600401602060405180830381600087803b15801561111457600080fd5b505af1158015611128573d6000803e3d6000fd5b505050506040513d602081101561113e57600080fd5b810190808051906020019092919050505060ff16600a0a90509190505600a165627a7a723058209699c6800ac048a2d8f157dd506b02d737a8ef0e156a3461305987487673100d0029",
  "source": "pragma solidity ^0.4.18;\n\nimport \"./zeppelin-solidity/contracts/ownership/Ownable.sol\";\nimport \"./zeppelin-solidity/contracts/token/ERC20/DetailedERC20.sol\";\nimport \"./zeppelin-solidity/contracts/token/ERC20/BasicToken.sol\";\nimport \"./interfaces/WhiteList.sol\";\nimport \"./interfaces/IRegulatorService.sol\";\nimport \"./SettingsStorage.sol\";\n\n/// @notice Standard interface for `RegulatorService`s\ncontract AboveboardRegDSWhitelistRegulatorService is IRegulatorService, Ownable {\n\n  SettingsStorage settingsStorage;\n\n  // @dev Check success code\n  uint8 constant private CHECK_SUCCESS = 0;\n\n  // @dev Check error reason: Token is locked\n  uint8 constant private CHECK_ELOCKED = 1;\n\n  // @dev Check error reason: Token can not trade partial amounts\n  uint8 constant private CHECK_EDIVIS = 2;\n\n  // @dev Check error reason: Sender is not allowed to send the token\n  uint8 constant private CHECK_ESEND = 3;\n\n  // @dev Check error reason: Receiver is not allowed to receive the token\n  uint8 constant private CHECK_ERECV = 4;\n\n  // @dev Check error reason: Transfer before initial offering end date\n  uint8 constant private CHECK_ERREGD = 5;\n\n  // @dev Check error reason: New shareholders are not allowed\n  uint8 constant private CHECK_ERALLOW = 6;\n\n  /**\n   * @dev Validate contract address\n   * Credit: https://github.com/Dexaran/ERC223-token-standard/blob/Recommended/ERC223_Token.sol#L107-L114\n   *\n   * @param _addr The address of a smart contract\n   */\n  modifier withContract(address _addr) {\n    uint length;\n    assembly { length := extcodesize(_addr) }\n    require(length > 0);\n    _;\n  }\n\n  /**\n   * @notice Constructor\n   *\n   * @param _storage The address of the `SettingsStorage`\n   *\n   */\n  constructor (address _storage) public {\n    require(_storage != address(0));\n    settingsStorage = SettingsStorage(_storage);\n  }\n\n  /*\n   * @notice This method *MUST* be called by `RegulatedToken`s during `transfer()` and `transferFrom()`.\n   *         The implementation *SHOULD* check whether or not a transfer can be approved.\n   *\n   * @dev    This method *MAY* call back to the token contract specified by `_token` for\n   *         more information needed to enforce trade approval.\n   *\n   * @param  _token The address of the token to be transfered\n   * @param  _from The address of the sender account\n   * @param  _to The address of the receiver account\n   * @param  _amount The quantity of the token to trade\n   *\n   * @return uint8 The reason code: 0 means success.  Non-zero values are left to the implementation\n   *               to assign meaning.\n   */\n  function check(address _token, address _from, address _to, uint256 _amount) public returns (uint8) {\n\n    address issuer = settingsStorage.getIssuerAddress(_token);\n    bool isIssuer = _from == issuer || _to == issuer;\n\n    // trading is locked, can transfer to or from issuer\n    if (settingsStorage.getLocked(_token) && !isIssuer) {\n      return CHECK_ELOCKED;\n    }\n\n    // if newShareholdersAllowed is not enabled, the transfer will only succeed if the buyer already has tokens or tranfers to or from issuer\n    if (!settingsStorage.newShareholdersAllowed(_token) && BasicToken(_token).balanceOf(_to) == 0 && !isIssuer) {\n      return CHECK_ERALLOW;\n    }\n\n    bool f;\n    address wlFrom;\n    (f, wlFrom) = settingsStorage.isWhiteListed(_from);\n    if (!f) {\n      return CHECK_ESEND;\n    }\n\n    bool t;\n    address wlTo;\n    (t,wlTo) = settingsStorage.isWhiteListed(_to);\n    if (!t) {\n      return CHECK_ERECV;\n    }\n\n    // sender or receiver is under Regulation D, Non-US investors can trade at any time\n    // only issuer can send to US investors first year, US investors cannot sell these shares in the first year, except to the issuer\n    if ((wlFrom == settingsStorage.getRegDWhitelist(_token) || wlTo == settingsStorage.getRegDWhitelist(_token))\n      && block.timestamp < settingsStorage.getInititalOfferEndDate(_token)\n      && !isIssuer) {\n      return CHECK_ERREGD;\n    }\n\n    if (!settingsStorage.getPartialTransfers(_token) && _amount % _wholeToken(_token) != 0) {\n      return CHECK_EDIVIS;\n    }\n\n    return CHECK_SUCCESS;\n  }\n\n  /**\n   * @notice Retrieves the whole token value from a token that this `RegulatorService` manages\n   *\n   * @param  _token The token address of the managed token\n   *\n   * @return The uint256 value that represents a single whole token\n   */\n  function _wholeToken(address _token) view private returns (uint256) {\n    return uint256(10)**DetailedERC20(_token).decimals();\n  }\n\n  /**\n   * @notice Get Settings Storage address\n   *\n   * @return Settings Storage address\n   */\n  function getStorageAddress() view public returns (address) {\n    return settingsStorage;\n  }\n\n  /**\n   * @dev Replace the current SettingsStorage\n   *\n   * @param _storage The address of the `SettingsStorage`\n   *\n   */\n  function replaceStorage(address _storage) onlyOwner withContract(_storage) public {\n    address oldStorage = settingsStorage;\n    settingsStorage = SettingsStorage(_storage);\n    ReplaceStorage(oldStorage, _storage);\n  }\n}\n",
  "sourcePath": "/opt/app/contracts/AboveboardRegDSWhitelistRegulatorService.sol",
  "compiler": {
    "name": "solc",
    "version": "0.4.24+commit.e67f0147.Emscripten.clang"
  },
  "schemaVersion": "2.0.0",
  "updatedAt": "2018-05-31T15:02:54.444Z"
}