{
  "contractName": "IssuanceWhiteList",
  "abi": [
    {
      "constant": true,
      "inputs": [],
      "name": "owner",
      "outputs": [
        {
          "name": "",
          "type": "address"
        }
      ],
      "payable": false,
      "stateMutability": "view",
      "type": "function"
    },
    {
      "constant": true,
      "inputs": [],
      "name": "whitelistType",
      "outputs": [
        {
          "name": "",
          "type": "string"
        }
      ],
      "payable": false,
      "stateMutability": "view",
      "type": "function"
    },
    {
      "constant": false,
      "inputs": [
        {
          "name": "newOwner",
          "type": "address"
        }
      ],
      "name": "transferOwnership",
      "outputs": [],
      "payable": false,
      "stateMutability": "nonpayable",
      "type": "function"
    },
    {
      "anonymous": false,
      "inputs": [
        {
          "indexed": true,
          "name": "previousOwner",
          "type": "address"
        },
        {
          "indexed": true,
          "name": "newOwner",
          "type": "address"
        }
      ],
      "name": "OwnershipTransferred",
      "type": "event"
    },
    {
      "anonymous": false,
      "inputs": [
        {
          "indexed": false,
          "name": "newAgent",
          "type": "address"
        }
      ],
      "name": "NewAgentAssigned",
      "type": "event"
    },
    {
      "anonymous": false,
      "inputs": [
        {
          "indexed": false,
          "name": "qualifier",
          "type": "address"
        }
      ],
      "name": "QualifierAdded",
      "type": "event"
    },
    {
      "anonymous": false,
      "inputs": [
        {
          "indexed": false,
          "name": "qualifier",
          "type": "address"
        }
      ],
      "name": "QualifierRemoved",
      "type": "event"
    },
    {
      "anonymous": false,
      "inputs": [
        {
          "indexed": false,
          "name": "_whitelistType",
          "type": "string"
        }
      ],
      "name": "WhitelistTypeSet",
      "type": "event"
    },
    {
      "anonymous": false,
      "inputs": [
        {
          "indexed": false,
          "name": "member",
          "type": "address"
        }
      ],
      "name": "MemberAdded",
      "type": "event"
    },
    {
      "anonymous": false,
      "inputs": [
        {
          "indexed": false,
          "name": "member",
          "type": "address"
        }
      ],
      "name": "MemberRemoved",
      "type": "event"
    },
    {
      "constant": false,
      "inputs": [
        {
          "name": "_agent",
          "type": "address"
        }
      ],
      "name": "setAgent",
      "outputs": [],
      "payable": false,
      "stateMutability": "nonpayable",
      "type": "function"
    },
    {
      "constant": false,
      "inputs": [
        {
          "name": "_whitelistType",
          "type": "string"
        }
      ],
      "name": "setWhitelistType",
      "outputs": [],
      "payable": false,
      "stateMutability": "nonpayable",
      "type": "function"
    },
    {
      "constant": false,
      "inputs": [
        {
          "name": "_qualifier",
          "type": "address"
        }
      ],
      "name": "addQualifier",
      "outputs": [],
      "payable": false,
      "stateMutability": "nonpayable",
      "type": "function"
    },
    {
      "constant": false,
      "inputs": [
        {
          "name": "_qualifier",
          "type": "address"
        }
      ],
      "name": "removeQualifier",
      "outputs": [],
      "payable": false,
      "stateMutability": "nonpayable",
      "type": "function"
    },
    {
      "constant": false,
      "inputs": [
        {
          "name": "_buyer",
          "type": "address"
        }
      ],
      "name": "add",
      "outputs": [
        {
          "name": "",
          "type": "bool"
        }
      ],
      "payable": false,
      "stateMutability": "nonpayable",
      "type": "function"
    },
    {
      "constant": false,
      "inputs": [
        {
          "name": "_buyers",
          "type": "address[]"
        }
      ],
      "name": "addBuyers",
      "outputs": [
        {
          "name": "",
          "type": "bool"
        }
      ],
      "payable": false,
      "stateMutability": "nonpayable",
      "type": "function"
    },
    {
      "constant": false,
      "inputs": [
        {
          "name": "_buyer",
          "type": "address"
        }
      ],
      "name": "remove",
      "outputs": [
        {
          "name": "",
          "type": "bool"
        }
      ],
      "payable": false,
      "stateMutability": "nonpayable",
      "type": "function"
    },
    {
      "constant": true,
      "inputs": [
        {
          "name": "_buyer",
          "type": "address"
        }
      ],
      "name": "verify",
      "outputs": [
        {
          "name": "",
          "type": "bool"
        }
      ],
      "payable": false,
      "stateMutability": "view",
      "type": "function"
    },
    {
      "constant": true,
      "inputs": [],
      "name": "getBuyers",
      "outputs": [
        {
          "name": "",
          "type": "address[]"
        }
      ],
      "payable": false,
      "stateMutability": "view",
      "type": "function"
    },
    {
      "constant": true,
      "inputs": [],
      "name": "getQualifiers",
      "outputs": [
        {
          "name": "",
          "type": "address[]"
        }
      ],
      "payable": false,
      "stateMutability": "view",
      "type": "function"
    }
  ],
  "bytecode": "0x6080604052336000806101000a81548173ffffffffffffffffffffffffffffffffffffffff021916908373ffffffffffffffffffffffffffffffffffffffff160217905550611a60806100536000396000f3006080604052600436106100c5576000357c0100000000000000000000000000000000000000000000000000000000900463ffffffff1680630a3b0a4f146100ca57806329092d0e1461012557806332b1c48f1461018057806333a71094146101c3578063425c4e6f1461020657806363a9c3d71461028457806386485797146102df5780638da5cb5b1461034b578063a4d0d5a9146103a2578063bcf685ed14610432578063dfc23a0a14610475578063f2fde38b146104de578063f64bfaba14610521575b600080fd5b3480156100d657600080fd5b5061010b600480360381019080803573ffffffffffffffffffffffffffffffffffffffff16906020019092919050505061058d565b604051808215151515815260200191505060405180910390f35b34801561013157600080fd5b50610166600480360381019080803573ffffffffffffffffffffffffffffffffffffffff169060200190929190505050610864565b604051808215151515815260200191505060405180910390f35b34801561018c57600080fd5b506101c1600480360381019080803573ffffffffffffffffffffffffffffffffffffffff169060200190929190505050610b06565b005b3480156101cf57600080fd5b50610204600480360381019080803573ffffffffffffffffffffffffffffffffffffffff169060200190929190505050610cf8565b005b34801561021257600080fd5b5061026a60048036038101908080359060200190820180359060200190808060200260200160405190810160405280939291908181526020018383602002808284378201915050505050509192919290505050610f1e565b604051808215151515815260200191505060405180910390f35b34801561029057600080fd5b506102c5600480360381019080803573ffffffffffffffffffffffffffffffffffffffff169060200190929190505050611285565b604051808215151515815260200191505060405180910390f35b3480156102eb57600080fd5b506102f46112e2565b6040518080602001828103825283818151815260200191508051906020019060200280838360005b8381101561033757808201518184015260208101905061031c565b505050509050019250505060405180910390f35b34801561035757600080fd5b50610360611423565b604051808273ffffffffffffffffffffffffffffffffffffffff1673ffffffffffffffffffffffffffffffffffffffff16815260200191505060405180910390f35b3480156103ae57600080fd5b506103b7611448565b6040518080602001828103825283818151815260200191508051906020019080838360005b838110156103f75780820151818401526020810190506103dc565b50505050905090810190601f1680156104245780820380516001836020036101000a031916815260200191505b509250505060405180910390f35b34801561043e57600080fd5b50610473600480360381019080803573ffffffffffffffffffffffffffffffffffffffff1690602001909291905050506114e6565b005b34801561048157600080fd5b506104dc600480360381019080803590602001908201803590602001908080601f01602080910402602001604051908101604052809392919081815260200183838082843782019150505050505091929192905050506115e8565b005b3480156104ea57600080fd5b5061051f600480360381019080803573ffffffffffffffffffffffffffffffffffffffff1690602001909291905050506116f9565b005b34801561052d57600080fd5b5061053661184e565b6040518080602001828103825283818151815260200191508051906020019060200280838360005b8381101561057957808201518184015260208101905061055e565b505050509050019250505060405180910390f35b6000806000600360003373ffffffffffffffffffffffffffffffffffffffff1673ffffffffffffffffffffffffffffffffffffffff16815260200190815260200160002060009054906101000a900460ff1691506000809054906101000a900473ffffffffffffffffffffffffffffffffffffffff1673ffffffffffffffffffffffffffffffffffffffff163373ffffffffffffffffffffffffffffffffffffffff1614806106895750600160009054906101000a900473ffffffffffffffffffffffffffffffffffffffff1673ffffffffffffffffffffffffffffffffffffffff163373ffffffffffffffffffffffffffffffffffffffff16145b806106915750815b151561069c57600080fd5b600260008573ffffffffffffffffffffffffffffffffffffffff1673ffffffffffffffffffffffffffffffffffffffff16815260200190815260200160002060009054906101000a900460ff1615156107a257600480549050905080600760008673ffffffffffffffffffffffffffffffffffffffff1673ffffffffffffffffffffffffffffffffffffffff1681526020019081526020016000208190555060048490806001815401808255809150509060018203906000526020600020016000909192909190916101000a81548173ffffffffffffffffffffffffffffffffffffffff021916908373ffffffffffffffffffffffffffffffffffffffff160217905550505b6001600260008673ffffffffffffffffffffffffffffffffffffffff1673ffffffffffffffffffffffffffffffffffffffff16815260200190815260200160002060006101000a81548160ff0219169083151502179055507fb251eb052afc73ffd02ffe85ad79990a8b3fed60d76dbc2fa2fdd7123dffd91484604051808273ffffffffffffffffffffffffffffffffffffffff1673ffffffffffffffffffffffffffffffffffffffff16815260200191505060405180910390a15050919050565b6000806000600360003373ffffffffffffffffffffffffffffffffffffffff1673ffffffffffffffffffffffffffffffffffffffff16815260200190815260200160002060009054906101000a900460ff1691506000809054906101000a900473ffffffffffffffffffffffffffffffffffffffff1673ffffffffffffffffffffffffffffffffffffffff163373ffffffffffffffffffffffffffffffffffffffff1614806109605750600160009054906101000a900473ffffffffffffffffffffffffffffffffffffffff1673ffffffffffffffffffffffffffffffffffffffff163373ffffffffffffffffffffffffffffffffffffffff16145b806109685750815b151561097357600080fd5b600260008573ffffffffffffffffffffffffffffffffffffffff1673ffffffffffffffffffffffffffffffffffffffff16815260200190815260200160002060009054906101000a900460ff1615610a4457600760008573ffffffffffffffffffffffffffffffffffffffff1673ffffffffffffffffffffffffffffffffffffffff168152602001908152602001600020549050600481815481101515610a1657fe5b9060005260206000200160006101000a81549073ffffffffffffffffffffffffffffffffffffffff02191690555b6000600260008673ffffffffffffffffffffffffffffffffffffffff1673ffffffffffffffffffffffffffffffffffffffff16815260200190815260200160002060006101000a81548160ff0219169083151502179055507f6e76fb4c77256006d9c38ec7d82b45a8c8f3c27b1d6766fffc42dfb8de68449284604051808273ffffffffffffffffffffffffffffffffffffffff1673ffffffffffffffffffffffffffffffffffffffff16815260200191505060405180910390a15050919050565b60008060009054906101000a900473ffffffffffffffffffffffffffffffffffffffff1673ffffffffffffffffffffffffffffffffffffffff163373ffffffffffffffffffffffffffffffffffffffff161480610bb05750600160009054906101000a900473ffffffffffffffffffffffffffffffffffffffff1673ffffffffffffffffffffffffffffffffffffffff163373ffffffffffffffffffffffffffffffffffffffff16145b1515610bbb57600080fd5b6000600360008473ffffffffffffffffffffffffffffffffffffffff1673ffffffffffffffffffffffffffffffffffffffff16815260200190815260200160002060006101000a81548160ff021916908315150217905550600660008373ffffffffffffffffffffffffffffffffffffffff1673ffffffffffffffffffffffffffffffffffffffff168152602001908152602001600020549050600581815481101515610c6457fe5b9060005260206000200160006101000a81549073ffffffffffffffffffffffffffffffffffffffff02191690557fd1740ddb28df431ba87af2f9209f73f5831e314c2eecc02a3af0d40f2631c6d782604051808273ffffffffffffffffffffffffffffffffffffffff1673ffffffffffffffffffffffffffffffffffffffff16815260200191505060405180910390a15050565b60008060009054906101000a900473ffffffffffffffffffffffffffffffffffffffff1673ffffffffffffffffffffffffffffffffffffffff163373ffffffffffffffffffffffffffffffffffffffff161480610da25750600160009054906101000a900473ffffffffffffffffffffffffffffffffffffffff1673ffffffffffffffffffffffffffffffffffffffff163373ffffffffffffffffffffffffffffffffffffffff16145b1515610dad57600080fd5b6001600360008473ffffffffffffffffffffffffffffffffffffffff1673ffffffffffffffffffffffffffffffffffffffff16815260200190815260200160002060006101000a81548160ff021916908315150217905550600580549050905080600660008473ffffffffffffffffffffffffffffffffffffffff1673ffffffffffffffffffffffffffffffffffffffff1681526020019081526020016000208190555060058290806001815401808255809150509060018203906000526020600020016000909192909190916101000a81548173ffffffffffffffffffffffffffffffffffffffff021916908373ffffffffffffffffffffffffffffffffffffffff160217905550507f8b36f5f3daba47b07e1cd0f071e18ca9e5dbe4e2bfa609f037a5a603bde871f582604051808273ffffffffffffffffffffffffffffffffffffffff1673ffffffffffffffffffffffffffffffffffffffff16815260200191505060405180910390a15050565b600080600080600360003373ffffffffffffffffffffffffffffffffffffffff1673ffffffffffffffffffffffffffffffffffffffff16815260200190815260200160002060009054906101000a900460ff1692506000809054906101000a900473ffffffffffffffffffffffffffffffffffffffff1673ffffffffffffffffffffffffffffffffffffffff163373ffffffffffffffffffffffffffffffffffffffff16148061101b5750600160009054906101000a900473ffffffffffffffffffffffffffffffffffffffff1673ffffffffffffffffffffffffffffffffffffffff163373ffffffffffffffffffffffffffffffffffffffff16145b806110235750825b151561102e57600080fd5b600091505b845182101561127d5760026000868481518110151561104e57fe5b9060200190602002015173ffffffffffffffffffffffffffffffffffffffff1673ffffffffffffffffffffffffffffffffffffffff16815260200190815260200160002060009054906101000a900460ff161515611187576004805490509050806007600087858151811015156110c157fe5b9060200190602002015173ffffffffffffffffffffffffffffffffffffffff1673ffffffffffffffffffffffffffffffffffffffff168152602001908152602001600020819055506004858381518110151561111957fe5b9060200190602002015190806001815401808255809150509060018203906000526020600020016000909192909190916101000a81548173ffffffffffffffffffffffffffffffffffffffff021916908373ffffffffffffffffffffffffffffffffffffffff160217905550505b600160026000878581518110151561119b57fe5b9060200190602002015173ffffffffffffffffffffffffffffffffffffffff1673ffffffffffffffffffffffffffffffffffffffff16815260200190815260200160002060006101000a81548160ff0219169083151502179055507fb251eb052afc73ffd02ffe85ad79990a8b3fed60d76dbc2fa2fdd7123dffd914858381518110151561122557fe5b90602001906020020151604051808273ffffffffffffffffffffffffffffffffffffffff1673ffffffffffffffffffffffffffffffffffffffff16815260200191505060405180910390a18180600101925050611033565b505050919050565b600060011515600260008473ffffffffffffffffffffffffffffffffffffffff1673ffffffffffffffffffffffffffffffffffffffff16815260200190815260200160002060009054906101000a900460ff161515149050919050565b60606000809054906101000a900473ffffffffffffffffffffffffffffffffffffffff1673ffffffffffffffffffffffffffffffffffffffff163373ffffffffffffffffffffffffffffffffffffffff16148061138c5750600160009054906101000a900473ffffffffffffffffffffffffffffffffffffffff1673ffffffffffffffffffffffffffffffffffffffff163373ffffffffffffffffffffffffffffffffffffffff16145b151561139757600080fd5b600580548060200260200160405190810160405280929190818152602001828054801561141957602002820191906000526020600020905b8160009054906101000a900473ffffffffffffffffffffffffffffffffffffffff1673ffffffffffffffffffffffffffffffffffffffff16815260200190600101908083116113cf575b5050505050905090565b6000809054906101000a900473ffffffffffffffffffffffffffffffffffffffff1681565b60088054600181600116156101000203166002900480601f0160208091040260200160405190810160405280929190818152602001828054600181600116156101000203166002900480156114de5780601f106114b3576101008083540402835291602001916114de565b820191906000526020600020905b8154815290600101906020018083116114c157829003601f168201915b505050505081565b6000809054906101000a900473ffffffffffffffffffffffffffffffffffffffff1673ffffffffffffffffffffffffffffffffffffffff163373ffffffffffffffffffffffffffffffffffffffff1614151561154157600080fd5b80600160006101000a81548173ffffffffffffffffffffffffffffffffffffffff021916908373ffffffffffffffffffffffffffffffffffffffff1602179055507f61a3bd1558245678bc7f935690f02a8b81f0f13ac925fbb0282af1e45fd6470b81604051808273ffffffffffffffffffffffffffffffffffffffff1673ffffffffffffffffffffffffffffffffffffffff16815260200191505060405180910390a150565b6000809054906101000a900473ffffffffffffffffffffffffffffffffffffffff1673ffffffffffffffffffffffffffffffffffffffff163373ffffffffffffffffffffffffffffffffffffffff1614151561164357600080fd5b806008908051906020019061165992919061198f565b507f72535d8e317ac75a503334a037fffe100ce7af88d8b59bd07d7bb85353939dce816040518080602001828103825283818151815260200191508051906020019080838360005b838110156116bc5780820151818401526020810190506116a1565b50505050905090810190601f1680156116e95780820380516001836020036101000a031916815260200191505b509250505060405180910390a150565b6000809054906101000a900473ffffffffffffffffffffffffffffffffffffffff1673ffffffffffffffffffffffffffffffffffffffff163373ffffffffffffffffffffffffffffffffffffffff1614151561175457600080fd5b600073ffffffffffffffffffffffffffffffffffffffff168173ffffffffffffffffffffffffffffffffffffffff161415151561179057600080fd5b8073ffffffffffffffffffffffffffffffffffffffff166000809054906101000a900473ffffffffffffffffffffffffffffffffffffffff1673ffffffffffffffffffffffffffffffffffffffff167f8be0079c531659141344cd1fd0a4f28419497f9722a3daafe3b4186f6b6457e060405160405180910390a3806000806101000a81548173ffffffffffffffffffffffffffffffffffffffff021916908373ffffffffffffffffffffffffffffffffffffffff16021790555050565b60606000809054906101000a900473ffffffffffffffffffffffffffffffffffffffff1673ffffffffffffffffffffffffffffffffffffffff163373ffffffffffffffffffffffffffffffffffffffff1614806118f85750600160009054906101000a900473ffffffffffffffffffffffffffffffffffffffff1673ffffffffffffffffffffffffffffffffffffffff163373ffffffffffffffffffffffffffffffffffffffff16145b151561190357600080fd5b600480548060200260200160405190810160405280929190818152602001828054801561198557602002820191906000526020600020905b8160009054906101000a900473ffffffffffffffffffffffffffffffffffffffff1673ffffffffffffffffffffffffffffffffffffffff168152602001906001019080831161193b575b5050505050905090565b828054600181600116156101000203166002900490600052602060002090601f016020900481019282601f106119d057805160ff19168380011785556119fe565b828001600101855582156119fe579182015b828111156119fd5782518255916020019190600101906119e2565b5b509050611a0b9190611a0f565b5090565b611a3191905b80821115611a2d576000816000905550600101611a15565b5090565b905600a165627a7a72305820a456f1d344cffd3788dbe2183cff4a662735806f2dad5929fbdb0aafdf4e867d0029",
  "source": "pragma solidity ^0.4.18;\n\nimport \"./interfaces/IIssuanceWhiteList.sol\";\nimport \"./zeppelin-solidity/contracts/ownership/Ownable.sol\";\n\n/**\n * @title IssuanceWhiteList\n * @dev WhiteList for an AboveBoard issued token. Owner is the issuer.\n */\ncontract IssuanceWhiteList is IIssuanceWhiteList, Ownable {\n\n  address agent;\n  mapping(address => bool) members;\n  mapping(address => bool) qualifiers;\n  address[] membersAddress;\n  address[] qualifiersAddress;\n  mapping(address => uint256) qualifiersIndex;\n  mapping(address => uint256) membersIndex;\n\n  string public whitelistType;\n\n  modifier onlyAgentOrOwner() {\n    require(msg.sender == owner || msg.sender == agent);\n    _;\n  }\n\n  function setAgent(address _agent) onlyOwner public {\n\n    agent = _agent;\n    NewAgentAssigned(_agent);\n    \n  }\n\n  function setWhitelistType(string _whitelistType) onlyOwner public {\n\n    whitelistType = _whitelistType;\n    WhitelistTypeSet(_whitelistType);\n\n  }\n\n  function addQualifier(address _qualifier) onlyAgentOrOwner public {\n\n    qualifiers[_qualifier] = true;\n    uint256 id = qualifiersAddress.length;\n    qualifiersIndex[_qualifier] = id;\n    qualifiersAddress.push(_qualifier);\n    QualifierAdded(_qualifier);\n\n  }\n\n  function removeQualifier(address _qualifier) onlyAgentOrOwner public {\n\n    qualifiers[_qualifier] = false;\n    uint256 id = qualifiersIndex[_qualifier];\n    delete qualifiersAddress[id];\n    QualifierRemoved(_qualifier);\n\n  }\n\n  function add(address _buyer) public returns (bool) {\n\n    // make only executable by owner, agent, and qualifiers\n    bool isQualifier = qualifiers[msg.sender];\n\n    // require that the caller is the owner of the contract, the agent or one of the qualifiers\n    require(msg.sender == owner || msg.sender == agent || isQualifier);\n\n    if (!members[_buyer]) {\n      uint256 id = membersAddress.length;\n      membersIndex[_buyer] = id;\n      membersAddress.push(_buyer);\n    }\n\n    members[_buyer] = true;\n\n    MemberAdded(_buyer);\n  }\n\n  function addBuyers(address[] _buyers) public returns (bool) {\n\n    // make only executable by owner, agent, and qualifiers\n    bool isQualifier = qualifiers[msg.sender];\n\n    // require that the caller is the owner of the contract, the agent or one of the qualifiers\n    require(msg.sender == owner || msg.sender == agent || isQualifier);\n\n    for (uint256 i = 0; i < _buyers.length; i++) {\n\n      if (!members[_buyers[i]]) {\n        uint256 id = membersAddress.length;\n        membersIndex[_buyers[i]] = id;\n        membersAddress.push(_buyers[i]);\n      }\n\n      members[_buyers[i]] = true;\n\n      MemberAdded(_buyers[i]);\n    }\n  }\n\n  function remove(address _buyer) public returns (bool) {\n\n    // make only executable by owner, agent, and qualifiers\n    bool isQualifier = qualifiers[msg.sender];\n\n    // require that the caller is the owner of the contract, the agent or one of the qualifiers\n    require(msg.sender == owner || msg.sender == agent || isQualifier);\n\n    if (members[_buyer]) {\n      uint256 id = membersIndex[_buyer];\n      delete membersAddress[id];\n    }\n\n    members[_buyer] = false;\n\n    MemberRemoved(_buyer);\n\n  }\n\n  function verify(address _buyer) view public returns (bool) {\n\n    return members[_buyer] == true;\n\n  }\n\n  function getBuyers() onlyAgentOrOwner view public returns (address[]) {\n    return membersAddress;\n  }\n\n  function getQualifiers() onlyAgentOrOwner view public returns (address[]) {\n    return qualifiersAddress;\n  }\n}\n",
  "sourcePath": "/opt/app/contracts/IssuanceWhiteList.sol",
  "compiler": {
    "name": "solc",
    "version": "0.4.24+commit.e67f0147.Emscripten.clang"
  },
  "schemaVersion": "2.0.0",
  "updatedAt": "2018-06-12T15:39:18.488Z"
}