{
  "contractName": "SettingsStorage",
  "abi": [
    {
      "constant": true,
      "inputs": [],
      "name": "issuer",
      "outputs": [
        {
          "name": "",
          "type": "address"
        }
      ],
      "payable": false,
      "stateMutability": "view",
      "type": "function"
    },
    {
      "constant": true,
      "inputs": [],
      "name": "newShareholdersAllowed",
      "outputs": [
        {
          "name": "",
          "type": "bool"
        }
      ],
      "payable": false,
      "stateMutability": "view",
      "type": "function"
    },
    {
      "constant": true,
      "inputs": [],
      "name": "initialOfferEndDate",
      "outputs": [
        {
          "name": "",
          "type": "uint256"
        }
      ],
      "payable": false,
      "stateMutability": "view",
      "type": "function"
    },
    {
      "constant": true,
      "inputs": [],
      "name": "messagingAddress",
      "outputs": [
        {
          "name": "",
          "type": "string"
        }
      ],
      "payable": false,
      "stateMutability": "view",
      "type": "function"
    },
    {
      "constant": true,
      "inputs": [],
      "name": "owner",
      "outputs": [
        {
          "name": "",
          "type": "address"
        }
      ],
      "payable": false,
      "stateMutability": "view",
      "type": "function"
    },
    {
      "constant": true,
      "inputs": [],
      "name": "locked",
      "outputs": [
        {
          "name": "",
          "type": "bool"
        }
      ],
      "payable": false,
      "stateMutability": "view",
      "type": "function"
    },
    {
      "constant": false,
      "inputs": [
        {
          "name": "newOwner",
          "type": "address"
        }
      ],
      "name": "transferOwnership",
      "outputs": [],
      "payable": false,
      "stateMutability": "nonpayable",
      "type": "function"
    },
    {
      "anonymous": false,
      "inputs": [
        {
          "indexed": true,
          "name": "previousOwner",
          "type": "address"
        },
        {
          "indexed": true,
          "name": "newOwner",
          "type": "address"
        }
      ],
      "name": "OwnershipTransferred",
      "type": "event"
    },
    {
      "anonymous": false,
      "inputs": [
        {
          "indexed": false,
          "name": "locked",
          "type": "bool"
        }
      ],
      "name": "LogLockSet",
      "type": "event"
    },
    {
      "anonymous": false,
      "inputs": [
        {
          "indexed": false,
          "name": "enabled",
          "type": "bool"
        }
      ],
      "name": "LogPartialTransferSet",
      "type": "event"
    },
    {
      "anonymous": false,
      "inputs": [
        {
          "indexed": false,
          "name": "_date",
          "type": "uint256"
        }
      ],
      "name": "InititalOfferEndDateSet",
      "type": "event"
    },
    {
      "anonymous": false,
      "inputs": [
        {
          "indexed": false,
          "name": "whitelist",
          "type": "address"
        }
      ],
      "name": "WhitelistAdded",
      "type": "event"
    },
    {
      "anonymous": false,
      "inputs": [
        {
          "indexed": false,
          "name": "whitelist",
          "type": "address"
        }
      ],
      "name": "WhitelistRemoved",
      "type": "event"
    },
    {
      "anonymous": false,
      "inputs": [
        {
          "indexed": false,
          "name": "whitelist",
          "type": "address"
        }
      ],
      "name": "RegulationDWhitelistSet",
      "type": "event"
    },
    {
      "anonymous": false,
      "inputs": [
        {
          "indexed": false,
          "name": "_issuer",
          "type": "address"
        }
      ],
      "name": "IssuerSet",
      "type": "event"
    },
    {
      "anonymous": false,
      "inputs": [
        {
          "indexed": false,
          "name": "_address",
          "type": "string"
        }
      ],
      "name": "MessagingAddressSet",
      "type": "event"
    },
    {
      "anonymous": false,
      "inputs": [
        {
          "indexed": false,
          "name": "allow",
          "type": "bool"
        }
      ],
      "name": "NewShareholdersAllowance",
      "type": "event"
    },
    {
      "constant": false,
      "inputs": [
        {
          "name": "_locked",
          "type": "bool"
        }
      ],
      "name": "setLocked",
      "outputs": [],
      "payable": false,
      "stateMutability": "nonpayable",
      "type": "function"
    },
    {
      "constant": true,
      "inputs": [],
      "name": "getWhitelists",
      "outputs": [
        {
          "name": "",
          "type": "address[]"
        }
      ],
      "payable": false,
      "stateMutability": "view",
      "type": "function"
    },
    {
      "constant": false,
      "inputs": [
        {
          "name": "_whitelist",
          "type": "address"
        }
      ],
      "name": "addWhitelist",
      "outputs": [],
      "payable": false,
      "stateMutability": "nonpayable",
      "type": "function"
    },
    {
      "constant": false,
      "inputs": [
        {
          "name": "_whitelist",
          "type": "address"
        }
      ],
      "name": "removeWhitelist",
      "outputs": [],
      "payable": false,
      "stateMutability": "nonpayable",
      "type": "function"
    },
    {
      "constant": true,
      "inputs": [
        {
          "name": "_address",
          "type": "address"
        }
      ],
      "name": "isWhiteListed",
      "outputs": [
        {
          "name": "",
          "type": "bool"
        },
        {
          "name": "",
          "type": "string"
        }
      ],
      "payable": false,
      "stateMutability": "view",
      "type": "function"
    },
    {
      "constant": false,
      "inputs": [
        {
          "name": "_date",
          "type": "uint256"
        }
      ],
      "name": "setInititalOfferEndDate",
      "outputs": [],
      "payable": false,
      "stateMutability": "nonpayable",
      "type": "function"
    },
    {
      "constant": false,
      "inputs": [
        {
          "name": "_issuer",
          "type": "address"
        }
      ],
      "name": "setIssuer",
      "outputs": [],
      "payable": false,
      "stateMutability": "nonpayable",
      "type": "function"
    },
    {
      "constant": false,
      "inputs": [
        {
          "name": "_address",
          "type": "string"
        }
      ],
      "name": "setMessagingAddress",
      "outputs": [],
      "payable": false,
      "stateMutability": "nonpayable",
      "type": "function"
    },
    {
      "constant": false,
      "inputs": [
        {
          "name": "allow",
          "type": "bool"
        }
      ],
      "name": "allowNewShareholders",
      "outputs": [],
      "payable": false,
      "stateMutability": "nonpayable",
      "type": "function"
    }
  ],
  "bytecode": "0x6080604052336000806101000a81548173ffffffffffffffffffffffffffffffffffffffff021916908373ffffffffffffffffffffffffffffffffffffffff1602179055506116b6806100536000396000f3006080604052600436106100e6576000357c0100000000000000000000000000000000000000000000000000000000900463ffffffff1680630eed3f9f146100eb5780631d14384814610154578063211e28b6146101ab5780632500cbfd146101da57806355cc4e571461020957806369c385df1461024c5780636f9170f61461027757806378c8cda71461033e578063807071d014610381578063865ed63e146104115780638da5cb5b14610440578063c35dcf9014610497578063cf30901214610503578063f2fde38b14610532578063f3065dac14610575578063f80f5dd5146105a2575b600080fd5b3480156100f757600080fd5b50610152600480360381019080803590602001908201803590602001908080601f01602080910402602001604051908101604052809392919081815260200183838082843782019150505050505091929192905050506105e5565b005b34801561016057600080fd5b5061016961074e565b604051808273ffffffffffffffffffffffffffffffffffffffff1673ffffffffffffffffffffffffffffffffffffffff16815260200191505060405180910390f35b3480156101b757600080fd5b506101d8600480360381019080803515159060200190929190505050610774565b005b3480156101e657600080fd5b506101ef610828565b604051808215151515815260200191505060405180910390f35b34801561021557600080fd5b5061024a600480360381019080803573ffffffffffffffffffffffffffffffffffffffff16906020019092919050505061083b565b005b34801561025857600080fd5b50610261610a4a565b6040518082815260200191505060405180910390f35b34801561028357600080fd5b506102b8600480360381019080803573ffffffffffffffffffffffffffffffffffffffff169060200190929190505050610a50565b604051808315151515815260200180602001828103825283818151815260200191508051906020019080838360005b838110156103025780820151818401526020810190506102e7565b50505050905090810190601f16801561032f5780820380516001836020036101000a031916815260200191505b50935050505060405180910390f35b34801561034a57600080fd5b5061037f600480360381019080803573ffffffffffffffffffffffffffffffffffffffff169060200190929190505050610ce2565b005b34801561038d57600080fd5b50610396610e7d565b6040518080602001828103825283818151815260200191508051906020019080838360005b838110156103d65780820151818401526020810190506103bb565b50505050905090810190601f1680156104035780820380516001836020036101000a031916815260200191505b509250505060405180910390f35b34801561041d57600080fd5b5061043e600480360381019080803515159060200190929190505050610f1b565b005b34801561044c57600080fd5b50610455610fcf565b604051808273ffffffffffffffffffffffffffffffffffffffff1673ffffffffffffffffffffffffffffffffffffffff16815260200191505060405180910390f35b3480156104a357600080fd5b506104ac610ff4565b6040518080602001828103825283818151815260200191508051906020019060200280838360005b838110156104ef5780820151818401526020810190506104d4565b505050509050019250505060405180910390f35b34801561050f57600080fd5b50610518611082565b604051808215151515815260200191505060405180910390f35b34801561053e57600080fd5b50610573600480360381019080803573ffffffffffffffffffffffffffffffffffffffff169060200190929190505050611095565b005b34801561058157600080fd5b506105a0600480360381019080803590602001909291905050506111ea565b005b3480156105ae57600080fd5b506105e3600480360381019080803573ffffffffffffffffffffffffffffffffffffffff169060200190929190505050611287565b005b6000809054906101000a900473ffffffffffffffffffffffffffffffffffffffff1673ffffffffffffffffffffffffffffffffffffffff163373ffffffffffffffffffffffffffffffffffffffff16148061068d5750600160009054906101000a900473ffffffffffffffffffffffffffffffffffffffff1673ffffffffffffffffffffffffffffffffffffffff163373ffffffffffffffffffffffffffffffffffffffff16145b151561069857600080fd5b80600390805190602001906106ae9291906115b9565b507f827f513c0402b7e2c74297f5ab29c1608819df765bacf6bbe760706642f0bcf4816040518080602001828103825283818151815260200191508051906020019080838360005b838110156107115780820151818401526020810190506106f6565b50505050905090810190601f16801561073e5780820380516001836020036101000a031916815260200191505b509250505060405180910390a150565b600160009054906101000a900473ffffffffffffffffffffffffffffffffffffffff1681565b600160009054906101000a900473ffffffffffffffffffffffffffffffffffffffff1673ffffffffffffffffffffffffffffffffffffffff163373ffffffffffffffffffffffffffffffffffffffff161415156107d057600080fd5b80600060146101000a81548160ff0219169083151502179055507f05bf206e40ba001f44679b0460da2d1e1b62f43d9326c71badd4823e2220b47d81604051808215151515815260200191505060405180910390a150565b600060159054906101000a900460ff1681565b600160009054906101000a900473ffffffffffffffffffffffffffffffffffffffff1673ffffffffffffffffffffffffffffffffffffffff163373ffffffffffffffffffffffffffffffffffffffff161480156108e75750600073ffffffffffffffffffffffffffffffffffffffff16600160009054906101000a900473ffffffffffffffffffffffffffffffffffffffff1673ffffffffffffffffffffffffffffffffffffffff1614155b8061099857506000809054906101000a900473ffffffffffffffffffffffffffffffffffffffff1673ffffffffffffffffffffffffffffffffffffffff163373ffffffffffffffffffffffffffffffffffffffff161480156109975750600073ffffffffffffffffffffffffffffffffffffffff16600160009054906101000a900473ffffffffffffffffffffffffffffffffffffffff1673ffffffffffffffffffffffffffffffffffffffff16145b5b15156109a357600080fd5b80600160006101000a81548173ffffffffffffffffffffffffffffffffffffffff021916908373ffffffffffffffffffffffffffffffffffffffff1602179055507f141c634522c8bfcf25beba4c524ac0c87de0db74ebe83168cf5f3bf4d45fd89881604051808273ffffffffffffffffffffffffffffffffffffffff1673ffffffffffffffffffffffffffffffffffffffff16815260200191505060405180910390a150565b60025481565b6000606060008090505b600480549050811015610cc457600481815481101515610a7657fe5b9060005260206000200160009054906101000a900473ffffffffffffffffffffffffffffffffffffffff1673ffffffffffffffffffffffffffffffffffffffff166363a9c3d7856040518263ffffffff167c0100000000000000000000000000000000000000000000000000000000028152600401808273ffffffffffffffffffffffffffffffffffffffff1673ffffffffffffffffffffffffffffffffffffffff168152602001915050602060405180830381600087803b158015610b3b57600080fd5b505af1158015610b4f573d6000803e3d6000fd5b505050506040513d6020811015610b6557600080fd5b810190808051906020019092919050505015610cb7576001600482815481101515610b8c57fe5b9060005260206000200160009054906101000a900473ffffffffffffffffffffffffffffffffffffffff1673ffffffffffffffffffffffffffffffffffffffff1663a4d0d5a96040518163ffffffff167c0100000000000000000000000000000000000000000000000000000000028152600401600060405180830381600087803b158015610c1a57600080fd5b505af1158015610c2e573d6000803e3d6000fd5b505050506040513d6000823e3d601f19601f820116820180604052506020811015610c5857600080fd5b810190808051640100000000811115610c7057600080fd5b82810190506020810184811115610c8657600080fd5b8151856001820283011164010000000082111715610ca357600080fd5b505092919050505080905092509250610cdc565b8080600101915050610a5a565b60006020604051908101604052806000815250925092505b50915091565b60008060009054906101000a900473ffffffffffffffffffffffffffffffffffffffff1673ffffffffffffffffffffffffffffffffffffffff163373ffffffffffffffffffffffffffffffffffffffff16141515610d3f57600080fd5b600073ffffffffffffffffffffffffffffffffffffffff168273ffffffffffffffffffffffffffffffffffffffff1614151515610d7b57600080fd5b600090505b600480549050811015610e78578173ffffffffffffffffffffffffffffffffffffffff16600482815481101515610db357fe5b9060005260206000200160009054906101000a900473ffffffffffffffffffffffffffffffffffffffff1673ffffffffffffffffffffffffffffffffffffffff161415610e6b57610e0381611490565b7fde8cf212af7ce38b2840785a2768d97ff2dbf3c21b516961cec0061e134c2a1e82604051808273ffffffffffffffffffffffffffffffffffffffff1673ffffffffffffffffffffffffffffffffffffffff16815260200191505060405180910390a1610e79565b8080600101915050610d80565b5b5050565b60038054600181600116156101000203166002900480601f016020809104026020016040519081016040528092919081815260200182805460018160011615610100020316600290048015610f135780601f10610ee857610100808354040283529160200191610f13565b820191906000526020600020905b815481529060010190602001808311610ef657829003601f168201915b505050505081565b600160009054906101000a900473ffffffffffffffffffffffffffffffffffffffff1673ffffffffffffffffffffffffffffffffffffffff163373ffffffffffffffffffffffffffffffffffffffff16141515610f7757600080fd5b80600060156101000a81548160ff0219169083151502179055507f72ac31df7bbe575a23cb17b22ddf6b96ae0b018687ae58247202e94b7842ebad81604051808215151515815260200191505060405180910390a150565b6000809054906101000a900473ffffffffffffffffffffffffffffffffffffffff1681565b6060600480548060200260200160405190810160405280929190818152602001828054801561107857602002820191906000526020600020905b8160009054906101000a900473ffffffffffffffffffffffffffffffffffffffff1673ffffffffffffffffffffffffffffffffffffffff168152602001906001019080831161102e575b5050505050905090565b600060149054906101000a900460ff1681565b6000809054906101000a900473ffffffffffffffffffffffffffffffffffffffff1673ffffffffffffffffffffffffffffffffffffffff163373ffffffffffffffffffffffffffffffffffffffff161415156110f057600080fd5b600073ffffffffffffffffffffffffffffffffffffffff168173ffffffffffffffffffffffffffffffffffffffff161415151561112c57600080fd5b8073ffffffffffffffffffffffffffffffffffffffff166000809054906101000a900473ffffffffffffffffffffffffffffffffffffffff1673ffffffffffffffffffffffffffffffffffffffff167f8be0079c531659141344cd1fd0a4f28419497f9722a3daafe3b4186f6b6457e060405160405180910390a3806000806101000a81548173ffffffffffffffffffffffffffffffffffffffff021916908373ffffffffffffffffffffffffffffffffffffffff16021790555050565b600160009054906101000a900473ffffffffffffffffffffffffffffffffffffffff1673ffffffffffffffffffffffffffffffffffffffff163373ffffffffffffffffffffffffffffffffffffffff1614151561124657600080fd5b806002819055507fc2e7181d064be2909b07bcba7a1f8bb1dc0ce1261d5fdbbce2358b8bf6f7d5a8816040518082815260200191505060405180910390a150565b6000806000809054906101000a900473ffffffffffffffffffffffffffffffffffffffff1673ffffffffffffffffffffffffffffffffffffffff163373ffffffffffffffffffffffffffffffffffffffff161415156112e557600080fd5b600073ffffffffffffffffffffffffffffffffffffffff168373ffffffffffffffffffffffffffffffffffffffff161415151561132157600080fd5b60009150600090505b6004805490508110156113ba578273ffffffffffffffffffffffffffffffffffffffff1660048281548110151561135d57fe5b9060005260206000200160009054906101000a900473ffffffffffffffffffffffffffffffffffffffff1673ffffffffffffffffffffffffffffffffffffffff1614156113ad57600191506113ba565b808060010191505061132a565b81151561148b5760048390806001815401808255809150509060018203906000526020600020016000909192909190916101000a81548173ffffffffffffffffffffffffffffffffffffffff021916908373ffffffffffffffffffffffffffffffffffffffff160217905550507f4790a4adb426ca2345bb5108f6e454eae852a7bf687544cd66a7270dff3a41d683604051808273ffffffffffffffffffffffffffffffffffffffff1673ffffffffffffffffffffffffffffffffffffffff16815260200191505060405180910390a15b505050565b6000600480549050821015156114a5576115b5565b8190505b60016004805490500381101561155a576004600182018154811015156114cb57fe5b9060005260206000200160009054906101000a900473ffffffffffffffffffffffffffffffffffffffff1660048281548110151561150557fe5b9060005260206000200160006101000a81548173ffffffffffffffffffffffffffffffffffffffff021916908373ffffffffffffffffffffffffffffffffffffffff16021790555080806001019150506114a9565b600460016004805490500381548110151561157157fe5b9060005260206000200160006101000a81549073ffffffffffffffffffffffffffffffffffffffff021916905560048054809190600190036115b39190611639565b505b5050565b828054600181600116156101000203166002900490600052602060002090601f016020900481019282601f106115fa57805160ff1916838001178555611628565b82800160010185558215611628579182015b8281111561162757825182559160200191906001019061160c565b5b5090506116359190611665565b5090565b8154818355818111156116605781836000526020600020918201910161165f9190611665565b5b505050565b61168791905b8082111561168357600081600090555060010161166b565b5090565b905600a165627a7a7230582000674ff47a43d77bed99294260d651be5b73b106d1bd86ad1769df9eb694930f0029",
  "source": "pragma solidity ^0.4.18;\n\nimport \"./zeppelin-solidity/contracts/ownership/Ownable.sol\";\nimport \"./IssuanceWhiteList.sol\";\nimport \"./interfaces/ISettingsStorage.sol\";\n\ncontract SettingsStorage is ISettingsStorage, Ownable {\n\n  /**\n    * @dev Toggle for locking/unlocking trades at a token level.\n    *      The default behavior of the zero memory state for locking will be unlocked.\n    */\n  bool public locked;\n\n  /// @dev Toggle for allowing/disallowing new shareholders\n  bool public newShareholdersAllowed;\n\n  /// @dev Issuer of the token\n  address public issuer;\n\n  /// @dev Initial offering end date\n  uint256 public initialOfferEndDate;\n\n  /// @dev Messaging address\n  string public messagingAddress;\n\n  /// @dev Array of whitelists\n  IssuanceWhiteList[] whitelists;\n\n  /**\n   * @notice Locks the ability to trade a token\n   *\n   * @dev    This method can only be called by this contract's issuer\n   *\n   * @param  _locked True for lock the token\n   */\n  function setLocked(bool _locked) public {\n\n    require(msg.sender == issuer);\n\n    locked = _locked;\n    LogLockSet(_locked);\n  }\n\n  /**\n   * @notice Get whitelists\n   *\n   * @return IssuanceWhiteList[] Array of whitelists\n   */\n  function getWhitelists() view public returns (IssuanceWhiteList[]) {\n    return whitelists;\n  }\n\n  function addWhitelist(IssuanceWhiteList _whitelist) onlyOwner public {\n\n    //check that we don't pass an empty list\n    require(_whitelist != address(0));\n    bool contains = false;\n\n    //Loop through array to see if the whitelist is present\n    for (uint256 i = 0; i < whitelists.length; i++) {\n      if (whitelists[i] == _whitelist) {\n\n        //if it is, change the value of contains and stop\n        contains = true;\n        break;\n      }\n    }\n\n    //if not, push it into the array\n    if (!contains) {\n      whitelists.push(_whitelist);\n      WhitelistAdded(_whitelist);\n    }\n  }\n\n  function removeWhitelist(IssuanceWhiteList _whitelist) onlyOwner public {\n\n    //check that we don't pass an empty list\n    require(_whitelist != address(0));\n\n    //Loop through array to see if the whitelist is present\n    for (uint256 i = 0; i < whitelists.length; i++) {\n\n      //if we find it, we remove it from the list\n      if (whitelists[i] == _whitelist) {\n        remove(i);\n        WhitelistRemoved(_whitelist);\n        return;\n      }\n    }\n  }\n\n  function remove(uint256 index) private {\n    //check that the index doesn't exceed the list length\n    if (index >= whitelists.length)\n      return;\n\n    //move each list with one position on the left\n    for (uint256 i = index; i < whitelists.length-1; i++) {\n        whitelists[i] = whitelists[i+1];\n    }\n\n    //delete the last whitelist and decrease the array length\n    delete whitelists[whitelists.length-1];\n    whitelists.length--;\n  }\n\n  /**\n   * @notice Check if address is indeed in one of the whitelists\n   *\n   * @param _address Buyer to be added to whitelist\n   *\n   * @return True if buyer is added to whitelist, otherwise false\n   */\n  function isWhiteListed(address _address) view public returns (bool, string) {\n    for (uint256 i = 0; i < whitelists.length; i++) {\n      if (whitelists[i].verify(_address))\n        return (true, whitelists[i].whitelistType());\n    }\n    return (false, \"\");\n  }\n\n  /**\n   * @notice Set initial offering end date\n   *\n   * @param  _date Initial offering end date\n   */\n  function setInititalOfferEndDate(uint256 _date) public {\n\n    require(msg.sender == issuer);\n\n    initialOfferEndDate = _date;\n    InititalOfferEndDateSet(_date);\n  }\n\n  /**\n   * @notice Set issuer of token\n   *\n   * @param  _issuer Issuer to be set\n   */\n  function setIssuer(address _issuer) public {\n\n    require((msg.sender == issuer && issuer != address(0)) ||\n            (msg.sender == owner && issuer == address(0)));\n\n    issuer = _issuer;\n    IssuerSet(_issuer);\n  }\n\n  /**\n   * @notice Set messaging address\n   *\n   * @param  _address Messaging address to be set\n   */\n  function setMessagingAddress(string _address) public {\n\n    require(msg.sender == owner || msg.sender == issuer);\n\n    messagingAddress = _address;\n    MessagingAddressSet(_address);\n  }\n\n  /**\n   * @notice Allow/disallow new shareholders\n   *\n   * @param  allow Allow/disallow new shareholders\n   */\n  function allowNewShareholders(bool allow) public {\n\n    require(msg.sender == issuer);\n\n    newShareholdersAllowed = allow;\n    NewShareholdersAllowance(allow);\n  }\n}\n",
  "sourcePath": "/opt/app/contracts/SettingsStorage.sol",
  "compiler": {
    "name": "solc",
    "version": "0.4.24+commit.e67f0147.Emscripten.clang"
  },
  "schemaVersion": "2.0.0",
  "updatedAt": "2018-07-11T16:41:08.594Z"
}